:0400000093EF08F082
:100F00000000803F72313FFE753E58633D951D3CA9
:100F1000C5AE3A79213994803793A73556153400F8
:100F2000000000803FF0FFBEE2A93E8376BEAE2BFC
:0B0F30003E3CC3BDD2133D78D3BB0094
:100F3C0081AE1CD081AE18D0000E176E120EDAECFA
:100F4C0007F0000E1B6E000E1A6E1BBE06D01B5057
:100F5C000AE1800E1A5CD8B006D01A50C6EC08F024
:100F6C001A4A1B2AF2D78B8081BEFED781A01200B1
:100F7C0081A017D0120E3FEC08F0000E1D6E000E73
:100F8C001C6E1DBE06D01D500BE1800E1C5CD8B033
:100F9C0007D01C50120FC6EC08F01C4A1D2AF1D7C2
:100FAC008B8081A01200FDD7196E8B90060EC6ECBB
:100FBC0008F08B808B900B0E186E620EE82EFED70D
:100FCC00182EFCD700D0020EC6EC08F0000EC6ECB2
:100FDC0008F01950C6EC08F01750C6EC08F00B0ED0
:100FEC00186E620EE82EFED7182EFCD700D0120019
:100FFC00000E8D6E000E8C6E000E896E000E8A6EC9
:10100C00010E8B6EC70E966EEF0E926EDF0E936E08
:10101C00960E946E9568000E0F01486F100E496F76
:10102C00F18E968E968C000E426F000E416F000E64
:10103C00406F1200180E7E6E980EAC6E240EAD6EC4
:10104C00CF0EB06E000E7F6E000E166E000E176E79
:10105C00DFEC08F0000E166E000E176EDAEC08F0DE
:10106C00000E166E000E176EE4EC08F0000E156EF6
:10107C001200186E8B900B0E176E620EE82EFED7B8
:10108C00172EFCD700D0030EC6EC08F0000EC6ECF1
:10109C0008F01850C6EC08F0FF0EC6EC08F00B0E6A
:1010AC00176E620EE82EFED7172EFCD700D012005A
:1010BC008B90060EC6EC08F08B800B0E176E620E32
:1010CC00E82EFED7172EFCD700D08B900B0E176E88
:1010DC00620EE82EFED7172EFCD700D0C70EC6EC3A
:1010EC0008F08B801200BDEC08F0D5EC08F05EEC3B
:1010FC0008F09EEC07F0540E176E120EDAEC07F0A7
:10110C00150E1F6E4B0E1E6EBE0EE82EFED71E2E3B
:10111C00FCD71F2EFAD700D0ECD701EE00F011EE61
:10112C0000F0EE6AE550E150FCE1E250FAE100EE2D
:10113C0001F0150EEE6AE806FDE1000EF86E0001F6
:10114C0079EF08F0700ED36E000E9B6E000E0F013F
:10115C003D6F140E876E0B0E176E260E166E5E0EFE
:10116C00E82EFED7162EFCD7172EFAD71200FEEC5F
:10117C0007F0A8EC08F0CEEC08F020EC08F0120018
:10118C00166EC69E16C0C9FFC7A0FED7C950120066
:10119C00800EC76E200EC66E000EC86E1200F28E48
:1011AC00F28CA38EA49E120016C011F017C012F080
:1011BC00120016C013F017C014F0120016C00FF076
:0611CC0017C010F0120034
:08FFF800BEF4F4FFFFFFBFF3AC
:00000001FF
