:04000000E9EF09F02B
:100F00000000803F72313FFE753E58633D951D3CA9
:100F1000C5AE3A79213994803793A73556153400F8
:100F2000000000803FF0FFBEE2A93E8376BEAE2BFC
:100F30003E3CC3BDD2133D78D3BB0D003000200032
:010F400000B0
:100F4200126E000E0D6E0D0EABEC0AF012C00DF01B
:100F52000D0EABEC0AF07BD00FC009F00A6A4FEC21
:100F62000AF00D6E0A0EABEC0AF084D00FC009F045
:100F72000A6A4FEC0AF00D6E0B0EABEC0AF07AD057
:100F82000FC009F00A6A4FEC0AF0BF0B0D6E0C0E8F
:100F9200ABEC0AF06FD00FC009F00A6A4FEC0AF00E
:100FA200106E060E116ED8901032112EFCD7105012
:100FB2000D6E0D0EABEC0AF05DD00FC009F00A6A9F
:100FC2004FEC0AF00D6E0E0EABEC0AF053D00FC0D0
:100FD20009F00A6A4FEC0AF00D6E0A0EABEC0AF049
:100FE2000FC009F00A6A4FEC0AF00D6E0B0EABEC63
:100FF2000AF00FC009F00A6A4FEC0AF0BF0B0D6E3F
:101002000C0EABEC0AF00FC009F00A6A4FEC0AF0C2
:10101200106E060E116ED8901032112EFCD71050A1
:101022000D6E0D0EABEC0AF00FC009F00A6A4FEC20
:101032000AF00D6E0E0EABEC0AF00FC009F00A6A50
:101042004FEC0AF00D6E0F0EABEC0AF013D01250FB
:10105200000AD8B481D7100AD8B488D7300AD8B4D5
:101062008FD7100AD8B497D7700AD8B4A6D7300A47
:10107200D8B4ADD7100E0D6E070EABEC0AF012000D
:10108200000E106E0EAE0AD00E1E0D1E0C1E0B6C44
:10109200000E0C220D220E22010E106E0AAE0AD094
:1010A2000A1E091E081E076C000E082209220A22C7
:1010B200010E101A000E116E000E126E000E136E4B
:1010C200000E146E0B500C100D100E10D8B42AD056
:1010D200010E0F6E06D0D8900B360C360D360E363A
:1010E2000F2A0EAEF8D7D8901136123613361436B0
:1010F2000B50075C0C5008580D5009580E500A58F6
:10110200D8A009D00B50075E0C50085A0D50095A4E
:101112000E500A5A1180D8900E320D320C320B3218
:101122000F2EE1D71050D8B408D0141E131E121E71
:10113200116C000E12221322142211C007F012C0E9
:1011420008F013C009F014C00AF01200FDEC0AF016
:10115200C7EC0AF0DFEC0AF0340E166EF20EE82E3F
:10116200FED7162EFCD73B0E0D6E070E0E6E160E18
:10117200BFEC09F0050E0D6E0C0E0E6E140E0F6E06
:10118200190E68EC09F0170E0F6E200EA1EC07F095
:10119200000E186E000E176E18BE06D018500CE125
:1011A200800E175CD8B008D017506BEC0AF0E7EC51
:1011B2000AF0174A182AF0D781B0FED78AAA02D0BD
:1011C200010E01D0000EFF0A166E163A16468A501C
:1011D2001618DF0B16188A6EEFD7000E066E04AED5
:1011E20006D0036C041ED8B0042A010E066E02AEAD
:1011F20006D0016C021ED8B0022A010E061A000E99
:10120200086E000E076E03500410D8B41CD0010EF5
:10121200056E04D0D89003360436052A04AEFAD7F8
:10122200D890073608360350015C04500258D8A003
:1012320005D00350015E0450025A0780D890043250
:101242000332052EEDD70650D8B404D0076C081E21
:10125200D8B0082A07C001F008C002F01200000E40
:10126200066E02AE06D0016C021ED8B0022A010E32
:10127200066E04AE04D0036C041ED8B0042A0350D8
:101282000410D8B418D0010E056E04D0D8900336DD
:101292000436052A04AEFAD70350015C0450025802
:1012A200D8A004D00350015E0450025AD8900432F0
:1012B2000332052EF1D70650D8B404D0016C021EB9
:1012C200D8B0022A01C001F002C002F01200126E70
:1012D20016EC0BF0DE0EBAEC0AF0030EBAEC0AF0D2
:1012E200280E0DC010F0116A1010096E11500A6E0E
:1012F2004FEC0AF0BAEC0AF012C009F00A6A4FEC9D
:101302000AF0BAEC0AF00EC009F00A6A4FEC0AF0D1
:10131200BAEC0AF00FC009F00A6A4FEC0AF0BAEC14
:101322000AF01BEC0BF01200156E95809582729EEE
:10133200728A7250F00B0809726E719A7188000EEF
:10134200076E240E086EF40E096E000E0A6E15C0AA
:1013520001F0026A0F0E046EA00E036E98EC0AF002
:1013620001C00BF002C00CF0000E0CBEFF0E0D6EA1
:101372000E6E41EC08F00704746E1200116E16EC4A
:101382000BF0DE0EBAEC0AF0000EBAEC0AF0800E98
:101392000EC00FF0106A0F10096E10500A6E4FEC5B
:1013A2000AF0BAEC0AF00DC009F00A6A4FEC0AF032
:1013B200BAEC0AF011C00FF01F0E0F160F50096E93
:1013C2000A6A4FEC0AF0BAEC0AF01BEC0BF01200BE
:1013D200EC0EF66E150EF76E000EF86E00EE2EF0A5
:1013E20010EE0DF00900F5CFEEFFE550E150FAE105
:1013F20001EE00F011EE00F0EE6AE550E150FCE182
:10140200E250FAE100EE19F0150EEE6AE806FDE18F
:10141200000EF86E0001A7EF08F0000E8D6E000EB0
:101422008C6E000E896E000E8A6E010E8B6EC70ED8
:10143200966EEF0E926EDF0E936E960E946E956818
:10144200000E0F01486F100E496FF18E968E968C2A
:10145200000E426F000E416F000E406F1200180E18
:101462007E6E980EAC6E240EAD6ECF0EB06E000E78
:101472007F6E000E016E000E026E07EC0BF0000E86
:10148200016E000E026E02EC0BF0000E016E000EF9
:10149200026E0CEC0BF0000E2D6E120009C001F072
:1014A2000AC002F0000E046E0A0E036E30EC09F060
:1014B20001C00BF002C00CF009C001F00AC002F03A
:1014C200000E046E0A0E036EEEEC08F00138F00B0B
:1014D2000B101200036E16EC0BF0AE0EBAEC0AF013
:1014E2000350BAEC0AF011EC0BF0AF0EBAEC0AF0B2
:1014F200000E026E010E016ED3EC0AF01BEC0BF033
:1015020075501200700ED36E000E9B6E000E0F010E
:101512003D6F140E876E0B0E026E260E016E5E0E6E
:10152200E82EFED7012EFCD7022EFAD71200015068
:101532000302F3CF05F0F4CF06F001500402F3509A
:10154200062602500302F350062605C001F006C02B
:1015520002F012000E6E16EC0BF0DE0EBAEC0AF080
:101562000E50BAEC0AF00D50BAEC0AF01BEC0BF07C
:101572001200016E01C075FF73A0FED7A4AEFED7A4
:10158200A49E71AC12001BEC0BF012000EEC0AF0E0
:1015920083EC0AF0EFEC0AF030EC0AF0640E95EC02
:1015A20009F01200718673A0FED701B002D0719AC1
:1015B20001D0718A718871A81200FDD716EC0BF068
:1015C200000EBAEC0AF01BEC0BF01200016E9EA8A2
:1015D200FED7ADA2FED701C0AEFF1200800EC76ECD
:1015E200200EC66E000EC86E120003000400050035
:0715F20000000607080900D4
:1015FA00F28EF28CA38EA49E120001C029F002C0C2
:10160A002AF0120001C02BF002C02CF0120001C017
:10161A0027F002C028F01200718271B2FED7A49E90
:10162A001200718071B0FED7A49E1200718471B449
:06163A00FED7A49E120081
:08FFF800BEF4F4FFFFFFBFF3AC
:00000001FF
