:040000006DEF0AF0A6
:100F00000000803F72313FFE753E58633D951D3CA9
:100F1000C5AE3A79213994803793A73556153400F8
:100F2000000000803FF0FFBEE2A93E8376BEAE2BFC
:0D0F30003E3CC3BDD2133D78D3BB20000072
:100F3E0000000000000000000000000000000000A3
:100F4E000000000000000000000000000000000093
:100F5E000000000000000000000000000000000083
:100F6E0000000000000000000000000000000080F3
:100F7E008080000000000000000000000000000063
:100F8E00008080C0C00000000000000000000000D3
:100F9E000000000000000000000000000000000043
:100FAE000000000000000000000000000000000033
:100FBE000000000000000000000000000000000023
:100FCE000000000080C0E0F0F8FCF8E00000000037
:100FDE000000000000000000000000000080808083
:100FEE00808000808000000000808080808000FF74
:100FFE00FFFF0000000080808080000080800000E5
:10100E0080FFFF8080008080008080808000808054
:10101E000000000000808000008C8E84000080F8AC
:10102E00F8F8800000000000000000000000000042
:10103E00F0F0F0F0F0F0F0F0F0F0F0F0E0E0C08062
:10104E0000E0FCFEFFFFFF7FFFFFFFFFFF00000041
:10105E000000000000000000000000FEFFC70101BC
:10106E00010183FFFF00007CFEC70101010183FF28
:10107E00FFFF0038FEC78301010183C7FFFF000099
:10108E0001FFFF010100FFFF0701010100007FFFCB
:10109E0080000000FFFF7F0000FFFFFF000001FF48
:1010AE00FFFF010000000000000000000000000033
:1010BE00030F3F7F7FFFFFFFFFFFFFFFE7C7C78FD6
:1010CE008F9FBFFFFFC3C0F0FFFFFFFFFFFCFCFCC5
:1010DE00FCFCFCFCFCF8F8F0F0E0C000010303039C
:1010EE0003030103030000000001030303030101D6
:1010FE0003010000000103030303010103030000C9
:10110E0000030300000003030000000000000001C4
:10111E0003030303030100000001030100000003A9
:10112E0003010000000000000000000000000000AD
:10113E0000000080C0E0F0F9FFFFFFFFFF3F1F0F30
:10114E0087C7F7FFFF1F1F3DFCF8F8F8F87C7DFFFF
:10115E00FFFFFFFFFFFFFF7F3F0F07003030000054
:10116E000000000000000000000000000000000071
:10117E0000000000FEFEFC00000000000000000069
:10118E0000000000000000000000000000E0C000B1
:10119E0000000000000000000000303000000000E1
:1011AE000000000000000000000000000000000031
:1011BE0000C0FEFFFFFFFFFFFFFFFFFF7F7F3F1F10
:1011CE000F071F7FFFFFF8F8FFFFFFFFFFFEF8E09E
:1011DE00000000010000000000000000FEFE000004
:1011EE0000FCFEFC0C06060EFCF80000F0F81C0ECF
:1011FE000606060CFFFFFF0000FEFE00000000FCCE
:10120E00FEFC00183C7E66E6CE84000006FFFF065C
:10121E0006FCFEFC0C0606060000FEFE0000C0F8F2
:10122E00FC4E4646464E7C7840183C76E6CECC8048
:10123E0000000000000000000000000000000000A0
:10124E000000000001070F1F1F3F3F3F3F1F0F030E
:10125E000000000000000000000000000F0F000062
:10126E00000F0F0F000000000F0F000003070E0C01
:10127E0018180C060F0F0F0000010F0E0C180C0F94
:10128E00070100040E0C180C0F070000000F0F00D2
:10129E00000F0F0F0000000000000F0F00000007EE
:1012AE00070C0C181C0C060600040E0C180C0F076D
:1012BE000000000000000000000000000000000020
:1012CE000000000000000000000000000000000010
:1012DE000000000000000000000000000000000000
:1012EE0000000000000000000000000000000000F0
:1012FE0000000000000000000000000000000000E0
:10130E0000000000000000000000000000000000CF
:10131E0000000000000000000000000000000000BF
:10132E0000000000000000000000000000000000AF
:10133E008D84060E266E300EE82EFED7262EFCD796
:10134E0000D08D94340E266EF20EE82EFED7262E89
:10135E00FCD78D84AE0E246EAE0E3CEC0BF03F0E21
:10136E00246EA80E3CEC0BF0000E246ED30E3CEC5B
:10137E000BF0000E246E200E3CEC0BF0400E246E93
:10138E00400E3CEC0BF0A00E246EA00E3CEC0BF0CD
:10139E00C00E246EC00E3CEC0BF0120E246EDA0E54
:1013AE003CEC0BF07F0E246E810E3CEC0BF0D90E54
:1013BE00246ED90E3CEC0BF0400E246EDB0E3CEC92
:1013CE000BF0A40E246EA40E3CEC0BF0A60E246EB5
:1013DE00A60E3CEC0BF0800E246ED50E3CEC0BF002
:1013EE00140E246E8D0E3CEC0BF02E0E246E2E0E73
:1013FE003CEC0BF0AF0E246EAF0E3CEC0BF012007B
:10140E00000E326E30AE0AD0301E2F1E2E1E2D6CE8
:10141E00000E2E222F223022010E326E2CAE0AD05A
:10142E002C1E2B1E2A1E296C000E2A222B222C2249
:10143E00010E321A000E336E000E346E000E356E33
:10144E00000E366E2D502E102F103010D8B42AD01C
:10145E00010E316E06D0D8902D362E362F36303600
:10146E00312A30AEF8D7D890333634363536363654
:10147E002D50295C2E502A582F502B5830502C5856
:10148E00D8A009D02D50295E2E502A5A2F502B5AF3
:10149E0030502C5A3380D89030322F322E322D329B
:1014AE00312EE1D73250D8B408D0361E351E341E38
:1014BE00336C000E34223522362233C029F034C06C
:1014CE002AF035C02BF036C02CF012003E0EF66E10
:1014DE000F0EF76E000EF86E00EEC4F014EE00F074
:1014EE000900F5CFEEFFE550E150FAE1E250F8E1E8
:1014FE00180EF66E170EF76E000EF86E00EE3AF03E
:10150E0010EE0DF00900F5CFEEFFE550E150FAE1D7
:10151E0000EE60F0640EEE6AE806FDE100EE01F00A
:10152E00220EEE6AE806FDE1000EF86E00010BEFEA
:10153E000BF0376E95809582729E728A7250F00B08
:10154E000809726E719A7188000E296E240E2A6E29
:10155E00F40E2B6E000E2C6E37C023F0246A0F0E85
:10156E00266EA00E256E51EC0BF023C02DF024C07C
:10157E002EF0000E2EBEFF0E2F6E306E07EC0AF010
:10158E002904746E1200040E8D6E000E8C6E000E09
:10159E00896E000E8A6E010E8B6EC30E966EEF0E66
:1015AE00926EDF0E936E960E946E9568800E0F01FE
:1015BE00486F100E496FF18E968E968C000E426F0C
:1015CE00000E416F000E406F1200180E7E6E980EC8
:1015DE00AC6E240EAD6ECF0EB06E000E7F6E000E92
:1015EE00236E000E246E9DEC0BF0000E236E000E8B
:1015FE00246E98EC0BF0000E236E000E246EA2ECFF
:10160E000BF0000E226E120093EC0BF071EC0BF04F
:10161E0094907DEC0BF0340E386EF20EE82EFED761
:10162E00382EFCD79FEC09F00B0E396E260E386E55
:10163E005E0EE82EFED7382EFCD7392EFAD7F4D709
:10164E00700ED36E000E9B6E000E0F013D6F140ECA
:10165E00876E0B0E246E260E236E5E0EE82EFED7C0
:10166E00232EFCD7242EFAD71200256EA7EC0BF0F2
:10167E007A0E64EC0BF0255064EC0BF02428D8A401
:10168E0003D0ACEC0BF003D0245064EC0BF0ACECBC
:10169E000BF0120023502502F3CF27F0F4CF28F0E1
:1016AE0023502602F350282624502502F3502826D4
:1016BE0027C023F028C024F01200236E23C075FF2C
:1016CE0073A0FED7A4AEFED7A49E71AC1200ACECF4
:1016DE000BF01200CAEC0AF027EC0BF085EC0BF0C5
:1016EE00ECEC0AF0640EA0EC0AF01200A7EC0BF082
:1016FE00000E64EC0BF0ACEC0BF01200800EC76E1B
:10170E00200EC66E000EC86E120003000400050007
:07171E0000000607080900A6
:10172600F28EF28CA38EA49E120023C01DF024C05C
:101736001EF0120023C01FF024C020F0120023C0A8
:101746001BF024C01CF01200718071B0FED7A49E5D
:0C1756001200718471B4FED7A49E120032
:08FFF800BEF4F4FFFFFFBFF3AC
:00000001FF
