:0400000000EF09F014
:100F00000000803F72313FFE753E58633D951D3CA9
:100F1000C5AE3A79213994803793A73556153400F8
:100F2000000000803FF0FFBEE2A93E8376BEAE2BFC
:0D0F30003E3CC3BDD2133D78D3BB0D000085
:100F3E00000E106E0EAE0AD00E1E0D1E0C1E0B6C89
:100F4E00000E0C220D220E22010E106E0AAE0AD0D9
:100F5E000A1E091E081E076C000E082209220A220C
:100F6E00010E101A000E116E000E126E000E136E90
:100F7E00000E146E0B500C100D100E10D8B42AD09B
:100F8E00010E0F6E06D0D8900B360C360D360E367F
:100F9E000F2A0EAEF8D7D8901136123613361436F5
:100FAE000B50075C0C5008580D5009580E500A583B
:100FBE00D8A009D00B50075E0C50085A0D50095A94
:100FCE000E500A5A1180D8900E320D320C320B325E
:100FDE000F2EE1D71050D8B408D0141E131E121EB7
:100FEE00116C000E12221322142211C007F012C02F
:100FFE0008F013C009F014C00AF01200000E066EBD
:10100E0004AE06D0036C041ED8B0042A010E066E80
:10101E0002AE06D0016C021ED8B0022A010E061ACC
:10102E00000E086E000E076E03500410D8B41CD0CC
:10103E00010E056E04D0D89003360436052A04AE90
:10104E00FAD7D890073608360350015C0450025880
:10105E00D8A005D00350015E0450025A0780D890E4
:10106E0004320332052EEDD70650D8B404D0076CE7
:10107E00081ED8B0082A07C001F008C002F01200FE
:10108E00000E066E02AE06D0016C021ED8B0022A09
:10109E00010E066E04AE04D0036C041ED8B0042AF2
:1010AE0003500410D8B418D0010E056E04D0D89099
:1010BE0003360436052A04AEFAD70350015C0450F9
:1010CE000258D8A004D00350015E0450025AD890A2
:1010DE0004320332052EF1D70650D8B404D0016C79
:1010EE00021ED8B0022A01C001F002C002F01200A6
:1010FE00126E0BEC0AF0DE0EC8EC09F0030EC8EC13
:10110E0009F0280E0DC010F0116A1010096E115062
:10111E000A6E84EC09F0C8EC09F012C009F00A6AF4
:10112E0084EC09F0C8EC09F00EC009F00A6A84ECF0
:10113E0009F0C8EC09F00FC009F00A6A84EC09F056
:10114E00C8EC09F010EC0AF01200156E958095822D
:10115E00729E728A7250F00B0809726E719A7188C3
:10116E00000E076E240E086EF40E096E000E0A6E47
:10117E0015C001F0026A0F0E046EA00E036EB5ECE0
:10118E0009F001C00BF002C00CF0000E0CBEFF0EF9
:10119E000D6E0E6E9FEC07F00704746E1200116E4A
:1011AE000BEC0AF0DE0EC8EC09F0000EC8EC09F0EC
:1011BE00800E0EC00FF0106A0F10096E10500A6EDE
:1011CE0084EC09F0C8EC09F00DC009F00A6A84EC51
:1011DE0009F0C8EC09F011C00FF01F0E0F160F50DA
:1011EE00096E0A6A84EC09F0C8EC09F010EC0AF0FA
:1011FE001200E00EF66E130EF76E000EF86E00EE95
:10120E002CF010EE0DF00900F5CFEEFFE550E15099
:10121E00FAE101EE00F011EE00F0EE6AE550E15059
:10122E00FCE1E250FAE100EE17F0150EEE6AE80668
:10123E00FDE1000EF86E000166EF09F0000E8D6EF6
:10124E00000E8C6E000E896E000E8A6E010E8B6E75
:10125E00C70E966EEF0E926EDF0E936E960E946E16
:10126E009568000E0F01486F100E496FF18E968E25
:10127E00968C000E426F000E416F000E406F1200F2
:10128E00180E7E6E980EAC6E240EAD6ECF0EB06E36
:10129E00000E7F6E000E016E000E026E01EC0AF063
:1012AE00000E016E000E026EFCEC09F0000E016ED7
:1012BE00000E026E06EC0AF0000E2B6E1200F7EC1A
:1012CE0009F0D5EC09F0E1EC09F0340E166EF20ED1
:1012DE00E82EFED7162EFCD7340E0D6E010E0E6EB6
:1012EE000D0ED6EC08F0050E0D6E0B0E0E6E150ED5
:1012FE000F6E120E7FEC08F0FFD709C001F00AC086
:10130E0002F0000E046E0A0E036E47EC08F001C0E8
:10131E000BF002C00CF009C001F00AC002F0000E82
:10132E00046E0A0E036E05EC08F00138F00B0B107C
:10133E001200700ED36E000E9B6E000E0F013D6FED
:10134E00140E876E0B0E026E260E016E5E0EE82ECA
:10135E00FED7012EFCD7022EFAD71200015003023F
:10136E00F3CF05F0F4CF06F001500402F350062639
:10137E0002500302F350062605C001F006C002F02B
:10138E001200016E01C075FF73A0FED7A4AEFED78A
:10139E00A49E71AC120010EC0AF0120025EC09F0BC
:1013AE00A0EC09F0E9EC09F047EC09F0640EACECA6
:1013BE0008F012000BEC0AF0000EC8EC09F010EC6D
:1013CE000AF01200800EC76E200EC66E000EC86E9A
:0F13DE00120003000400050000000607080900C4
:1013EE00F28EF28CA38EA49E120001C027F002C0D2
:1013FE0028F0120001C029F002C02AF0120001C02C
:10140E0025F002C026F01200718071B0FED7A49EA6
:0C141E001200718471B4FED7A49E12006D
:08FFF800BEF4F4FFFFFFBFF3AC
:00000001FF
