:0400000074EF11F098
:100F00000000803F72313FFE753E58633D951D3CA9
:100F1000C5AE3A79213994803793A73556153400F8
:100F2000000000803FF0FFBEE2A93E8376BEAE2BFC
:0D0F30003E3CC3BDD2133D78D3BB0D000085
:100F3E003D503E103F10D8A407D0000E3D6E800EDF
:100F4E003E6E3F0E3F6E1200720E016E310E026E3D
:100F5E00440E036E3DC004F03EC005F03FC006F0E7
:100F6E0011EC0FF0D8B00CD0000E00016B6F220EFA
:100F7E006A6FFF0E3D6E7F0E3E6E7F0E3F6E12004D
:100F8E003DC001F03EC002F03FC003F0490E046EBA
:100F9E003A0E056EC40E066E11EC0FF0D8B00CD0E2
:100FAE00000E00016B6F220E6A6F000E3D6E000E7A
:100FBE003E6E000E3F6E12003FAE02D0010E01D00B
:100FCE00000E456E4550D8B40ED03DC001F03EC067
:100FDE0002F03FC003F0B2EC11F001C03DF002C0D0
:100FEE003EF003C03FF03DC00DF03EC00EF03FC0DE
:100FFE000FF0AA0E106EB80E116E3F0E126E2DEC83
:10100E000BF00DC03DF00EC03EF00FC03FF03DC0E6
:10101E0035F03EC036F03FC037F01AEC0CF035C05C
:10102E0040F036C041F037C042F040C01CF041C025
:10103E001DF042C01EF0B3EC0AF01CC043F01DC000
:10104E0044F03DC028F03EC029F03FC02AF043C016
:10105E0009F044C00AF058EC11F009C02BF00AC098
:10106E002CF00BC02DF0FAEC10F028C03DF029C08A
:10107E003EF02AC03FF03DC028F03EC029F03FC0F0
:10108E002AF0010E2B6E0F0E2C6E000E2E6E090E18
:10109E002D6E89EC0CF028C034F029C035F02AC032
:1010AE0036F043C037F044C038F0BDEC0DF034C01C
:1010BE003DF035C03EF036C03FF04550D8B425D097
:1010CE003D280EE17F0E3E180BE17F0E3F18D8A48F
:1010DE0007D0000E3D6E000E3E6E000E3F6E1200EB
:1010EE00000E096E800E0A6E3F0E0B6E3DC00CF0A8
:1010FE003EC00DF03FC00EF0A7EC0BF009C03DF066
:10110E000AC03EF00BC03FF012003DC03DF03EC0A5
:10111E003EF03FC03FF012001EC022F0236A246A48
:10112E001D34223601E323802250276E21C022F087
:10113E00236A246A2034223601E323802250266E4D
:10114E002750D8B40BD02650275CD8B00ED02750DD
:10115E0000082624226E180E226407D01FC01CF031
:10116E0020C01DF021C01EF012002650D8B40BD0A6
:10117E002750265CD8B00ED0265000082724226EA9
:10118E00180E226407D01CC01CF01DC01DF01EC01E
:10119E001EF01200060E256E1EBE258E21BE258C5B
:1011AE001D8EFF0E1C16FF0E1D16000E1E16208E17
:1011BE00FF0E1F16FF0E2016000E21162650275C5E
:1011CE00D8B01BD0D8901F36203621362606275091
:1011DE002618D8B40DD0250625C022F0070E2216EB
:1011EE00D8B406D0EFD7D8901E321D321C32272A23
:1011FE0026502718D8B41FD0F6D72750265CD8B063
:10120E001AD0D8901C361D361E36270627502618A3
:10121E00D8B40DD0250625C022F0070E2216D8B45C
:10122E0006D0EFD7D890213220321F32262A2650F0
:10123E002718D8A4F7D725AE0CD0FF0E1C1AFF0E18
:10124E001D1AFF0E1E1A010E1C26000E1D22000E68
:10125E001E2225AC0CD0FF0E1F1AFF0E201AFF0EF9
:10126E00211A010E1F26000E2022000E2122000E32
:10127E00256E1C501F261D5020221E50212221AEED
:10128E000ED0FF0E1F1AFF0E201AFF0E211A010E8E
:10129E001F26000E2022000E2122010E256E1FC0D9
:1012AE0001F020C002F021C003F027C004F025C0D9
:1012BE0005F020EC0EF001C01CF002C01DF003C0C2
:1012CE001EF01200000E526E465047104810D8A461
:1012DE001CD0000E016E000E026E000E036E49C091
:1012EE0004F04AC005F04BC006F011EC0FF0D8A088
:1012FE0005D0000E00016B6F210E6A6F000E466E58
:10130E00000E476E000E486E120049504A104B10E8
:10131E00D8A407D0000E466E800E476E3F0E486E64
:10132E00120048AE41D049C01CF04AC01DF04BC05F
:10133E001EF0B3EC0AF01CC053F01DC054F01EC0DA
:10134E0055F01FC056F053C009F054C00AF055C0F6
:10135E000BF056C00CF015EC10F04950091807E1CF
:10136E004A500A1804E14B500B18D8B40CD0000E9A
:10137E0000016B6F210E6A6F000E466E000E476EF7
:10138E00000E486E12005350010B526E46C001F013
:10139E0047C002F048C003F0B2EC11F001C046F0B5
:1013AE0002C047F003C048F046C034F047C035F0E5
:1013BE0048C036F024EC0AF034C04CF035C04DF085
:1013CE0036C04EF04CC00DF04DC00EF04EC00FF0BA
:1013DE0049C010F04AC011F04BC012F02DEC0BF0CA
:1013EE000DC04FF00EC050F00FC051F04FC03DF089
:1013FE0050C03EF051C03FF09FEC07F03DC046F0AC
:10140E003EC047F03FC048F05250D8B40FD046C04F
:10141E0001F047C002F048C003F0B2EC11F001C079
:10142E0046F002C047F003C048F0120046C046F036
:10143E0047C047F048C048F0120036AE0CD0000E40
:10144E0000016B6F210E6A6F000E346E000E356E4A
:10145E00000E366E1200345035103610D8A40CD053
:10146E00000E00016B6F220E6A6F000E346E000EBE
:10147E00356E000E366E1200000E106E000E116EDE
:10148E00400E126E370E046E000E056E34C001F063
:10149E0035C002F036C003F0C9EC0EF001C00DF0FD
:1014AE0002C00EF003C00FF02DEC0BF00DC01CF0BF
:1014BE000EC01DF00FC01EF0000E1F6E800E206EAF
:1014CE00BF0E216E93EC08F01CC034F01DC035F039
:1014DE001EC036F03706D8A0380634C028F035C006
:1014EE0029F036C02AF01F0E2B6E0F0E2C6E000E3A
:1014FE002E6E080E2D6E89EC0CF028C034F029C02B
:10150E0035F02AC036F0720E106E310E116E3F0E8F
:10151E00126E37C009F038C00AF058EC11F009C04D
:10152E000DF00AC00EF00BC00FF02DEC0BF00DC03D
:10153E001CF00EC01DF00FC01EF034C01FF035C0E1
:10154E0020F036C021F093EC08F01CC034F01DC022
:10155E0035F01EC036F012001EC020F0216A226A3D
:10156E001D34203601E3218020502A6E2A50D8A443
:10157E0009D0000E1C6E000E1D6E000E1E6E000EAB
:10158E001F6E1200170E206E1CC021F01DC022F01F
:10159E001EC023F02028246E04D0D890233222328D
:1015AE002132242EFAD72150256E1D8EFF0E1C16C9
:1015BE00FF0E1D16000E1E161C50266E1D50276E99
:1015CE001E50286E296A8E0E2A5E2AAE16D02A501A
:1015DE00800A8F0FD8B009D0000E1C6E000E1D6E43
:1015EE00000E1E6E000E1F6E1200D8902932283289
:1015FE00273226322A3EF9D715D0170E2A640FD07D
:10160E00000E1C6E000E1D6E000E1E6E000E1F6E66
:10161E001200D89026362736283629362A062A5022
:10162E00D8A4F7D72550D8B408D0291E281E271EB7
:10163E00266C000E27222822292226C01CF027C045
:10164E001DF028C01EF029C01FF012000FC013F0AD
:10165E00146A156A0E34133601E314801350166E95
:10166E001650D8A407D0000E0D6E000E0E6E000E92
:10167E000F6E120012C013F0146A156A113413366D
:10168E0001E3148013501B6E1B50D8A407D0000E1C
:10169E000D6E000E0E6E000E0F6E12001B507B0FA5
:1016AE0016260FC01BF012501B1A800E1B160E8E24
:1016BE00118EFF0E1016FF0E1116000E1216000ED2
:1016CE00176E000E186E000E196E070E1A6E0DA014
:1016DE0006D0105017261150182212501922D890E9
:1016EE000F320E320D32D8901036113612361A2EA7
:1016FE00EED7090E1A6E0DA006D0105017261150F7
:10170E00182212501922D8900F320E320D32D89064
:10171E001932183217321A2EEED717C001F018C030
:10172E0002F019C003F016C004F01BC005F020EC47
:10173E000EF001C00DF002C00EF003C00FF012004B
:10174E000BC00FF0106A116A0A340F3601E31080D5
:10175E000F50166E1650D8A407D0000E096E000E4C
:10176E000A6E000E0B6E12000EC00FF0106A116A98
:10177E000D340F3601E310800F50176E1750D8A49A
:10178E0007D0000E096E000E0A6E000E0B6E1200D0
:10179E00000E136E000E146E000E156E1750890F8C
:1017AE00165E0BC017F00E50171A800E17160A8E03
:1017BE00FF0E0916FF0E0A16000E0B160D8EFF0EEB
:1017CE000C16FF0E0D16000E0E16180E126ED89079
:1017DE001336143615360C50095C0D500A580E503F
:1017EE000B58D8A007D00C50095E0D500A5A0E5057
:1017FE000B5A1380D89009360A360B36122EE7D7BD
:10180E0013C001F014C002F015C003F016C004F0AE
:10181E0017C005F020EC0EF001C009F002C00AF06E
:10182E0003C00BF0120035C001F036C002F037C015
:10183E0003F03B0E046E000E056EC9EC0EF03CAECE
:10184E0010D037AE07D0000E356E800E366EBF0E3E
:10185E00376E1200000E356E000E366E000E376EAD
:10186E0012003C5004E1150E3B5CD8A007D035C0E9
:10187E0035F036C036F037C037F0120035C01CF0E8
:10188E0036C01DF037C01EF0B3EC0AF01CC02BF0B2
:10189E001DC02CF01EC02DF01FC02EF0D9EC0FF085
:1018AE002BC038F02CC039F02DC03AF035C001F005
:1018BE0036C002F037C003F038C004F039C005F06E
:1018CE003AC006F011EC0FF0D8B015D038C01CF0AD
:1018DE0039C01DF03AC01EF0000E1F6E800E206E35
:1018EE00BF0E216E93EC08F01CC035F01DC036F013
:1018FE001EC037F0120038C035F039C036F03AC08D
:10190E0037F012002DC001F02EC002F0000E046E52
:10191E00030E036E9FEC11F02BC02FF02CC030F095
:10192E0001502F26025030222FC0F6FF30C0F7FF95
:10193E000900F5CF31F00900F5CF32F00A00F5CFEE
:10194E0033F03ED031C010F032C011F033C012F07F
:10195E0028C00DF029C00EF02AC00FF02DEC0BF0B0
:10196E000DC01CF00EC01DF00FC01EF0000E046E58
:10197E00030E036E2D06D8A02E062DC001F02EC02C
:10198E0002F09FEC11F02BC02FF02CC030F0015064
:10199E002F26025030222FC0F6FF30C0F7FF09006D
:1019AE00F5CF1FF00900F5CF20F00A00F5CF21F09A
:1019BE0093EC08F01CC031F01DC032F01EC033F0A5
:1019CE002D502E10D8A4BED731C028F032C029F029
:1019DE0033C02AF01200000E106E0EAE0AD00E1E8C
:1019EE000D1E0C1E0B6C000E0C220D220E22010E73
:1019FE00106E0AAE0AD00A1E091E081E076C000ED3
:101A0E00082209220A22010E101A000E116E000E73
:101A1E00126E000E136E000E146E0B500C100D1085
:101A2E000E10D8B42AD0010E0F6E06D0D8900B36F9
:101A3E000C360D360E360F2A0EAEF8D7D89011365C
:101A4E001236133614360B50075C0C5008580D50D6
:101A5E0009580E500A58D8A009D00B50075E0C50EA
:101A6E00085A0D50095A0E500A5A1180D8900E324B
:101A7E000D320C320B320F2EE1D71050D8B408D0E5
:101A8E00141E131E121E116C000E1222132214228B
:101A9E0011C007F012C008F013C009F014C00AF00C
:101AAE00120030EC12F0900EE4EC11F0000EE4ECAB
:101ABE0011F02BEC12F0910EE4EC11F0000E026E10
:101ACE00000E016EFDEC11F075CF6DF0000E026E82
:101ADE00010E016EFDEC11F075CF6CF035EC12F0CD
:101AEE00000E496E800E4A6EC00E4B6E000E466E94
:101AFE00000E476E400E486E69EC09F046C057F076
:101B0E0047C058F048C059F057C010F058C011F0F7
:101B1E0059C012F06CC009F06DC00AF0C4EC11F09F
:101B2E0009C00DF00AC00EF00BC00FF02DEC0BF03B
:101B3E000DC05AF00EC05BF00FC05CF0000E106EC0
:101B4E00800E116E3D0E126E5AC00DF05BC00EF07F
:101B5E005CC00FF02DEC0BF00DC01CF00EC01DF094
:101B6E000FC01EF0B3EC0AF01C50120034503510AA
:101B7E003610D8A407D0000E346E000E356E000E4F
:101B8E00366E120036507F0B396E3A6AD89039365F
:101B9E003A36395037263A50382235AE03D0396AA4
:101BAE00392A01D0396A39503726000E382238AE1C
:101BBE000CD0000E00016B6F220E6A6F000E346E99
:101BCE00000E356E000E366E120038BE16D038047A
:101BDE00D8A013D0000E00016B6F220E6A6F36AEC6
:101BEE0006D0FF0E346E7F0E356EFF0EECD7FF0E55
:101BFE00346E7F0E356E7F0EE6D7383438303A6E3F
:101C0E003730396E36503918800B3918366E37C06A
:101C1E0039F0010E391639323932355039187F0BF9
:101C2E003918356E34C034F035C035F036C036F064
:101C3E0012000450D8B405D0015002100310D8A4DD
:101C4E000CD0000E016E000E026E000E036E12001E
:101C5E00042AD890033202320132000E0114066EAD
:101C6E00000E0214076EFE0E0314086E06500710C7
:101C7E000810D8B40CD0ECD7042A010E0126000EA1
:101C8E000222000E0322D890033202320132000EDD
:101C9E000114066E000E0214076EFF0E0314086E7A
:101CAE00065007100810D8B406D0E6D70406D89010
:101CBE0001360236033602BE03D0020E0460F6D79A
:101CCE0004A0029ED8900432045003120550D8A4EA
:101CDE00038E01C001F002C002F003C003F0120037
:101CEE000AC00EF00BC00FF00EC001F00FC002F0D4
:101CFE000CC003F00DC004F06DEC10F001C00EF03E
:101D0E0002C00FF0084A092A0E500F10D8A4ECD7C3
:101D1E0008C0D9FF09C0DAFF000EDF6E0806D8A092
:101D2E0009060AC001F00BC002F00CC003F00DC092
:101D3E0004F0D9EC10F00150106E0AC001F00BC087
:101D4E0002F00CC003F00DC004F06DEC10F001C0F9
:101D5E000AF002C00BF0090E106402D0070E102616
:101D6E00300E102608C0D9FF09C0DAFF10C0DFFF01
:101D7E000806D8A009060A500B10D8A4D2D7084AD4
:101D8E00092A1200015002100310D8A40FD004C06B
:101D9E00D9FF05C0DAFF000EDE6E000EDD6E000EFE
:101DAE00016E000E026E000E036E120003507F0BCA
:101DBE00066E076AD8900636073604C0D9FF05C0EE
:101DCE00DAFF06C0DEFF07C0DDFF02AE03D0066AF3
:101DDE00062A01D0066A065004C0D9FF05C0DAFFF4
:101DEE00DE12000EDD1204C0D9FF05C0DAFF820E2E
:101DFE00DE26FF0EDD220380038203840386038822
:101E0E00038A039C029E01C001F002C002F003C0CF
:101E1E0003F0120003AE16D001C007F002C008F0A6
:101E2E0003C009F0071E081E091E072A000E08220D
:101E3E000922000E0724016E000E0820026E800E8D
:101E4E000920036E06AE16D004C007F005C008F0D8
:101E5E0006C009F0071E081E091E072A000E0822DA
:101E6E000922000E0724046E000E0820056E800E57
:101E7E000920066E000E011A000E021A800E031AB9
:101E8E00000E041A000E051A800E061A0450015C8C
:101E9E000550025806500358D8B002D0D890120000
:101EAE00D8801200000E066E3BD00650010D01C008
:101EBE0004F002C005F0F3500426F450052204C0CD
:101ECE00F6FF05C0F7FFF86A0650010D000EF32469
:101EDE00D96E010EF420DA6E0E0EF76403D00800F0
:101EEE00F55005D0F6CFE9FFF7CFEAFFEF50DF6EE2
:101EFE000650010D000EF324D96E010EF420DA6E99
:101F0E00DF50D8B40CD0ADA2FED70650010D000E96
:101F1E00F324D96E010EF420DA6EDF50AE6E062A6F
:101F2E000350065CD8B01200C0D717EC12F0F1ECDB
:101F3E0011F008EC12F0D6EC11F058EC0DF05D6ECD
:101F4E005D500001746F756B766B776B000E796F59
:101F5E000A0E786F39EC11F0050E5E6E0F0E5D6E87
:101F6E00F10EE82EFED75D2EFCD75E2EFAD700F0CE
:101F7E0081A0E3D7340E5D6EF20EE82EFED75D2EF5
:101F8E00FCD781B0DAD78AAA02D0010E01D0000E9A
:101F9E00FF0A5D6E5D3A5D468A505D18DF0B5D1877
:101FAE008A6ECBD7000E346E8E0E336E2EAE11D0DF
:101FBE002E1E2D1E2C1E2B6C000E2C222D222E22A0
:101FCE00010E346E06D0D8902E322D322C322B329A
:101FDE00332A000E2B142F6E000E2C14306E000EB2
:101FEE002D14316EFF0E2E14326E2F503010311014
:101FFE003210D8A4E8D72BC001F02CC002F02DC0AF
:10200E0003F033C004F034C005F020EC0EF001C034
:10201E002BF002C02CF003C02DF012008E0E116EAC
:10202E0006D0D8900C320B320A320932112A000E29
:10203E0009140D6E000E0A140E6E000E0B140F6EA8
:10204E00FF0E0C14106E0D500E100F101010D8A4A1
:10205E00E8D709C001F00AC002F00BC003F011C0AE
:10206E0004F0000E056E20EC0EF001C009F002C067
:10207E000AF003C00BF01200156E95809582729EC9
:10208E00728A7250F00B0809726E719A7188000E86
:10209E00076E240E086EF40E096E000E0A6E15C041
:1020AE0001F0026A0F0E046EA00E036E9FEC11F08B
:1020BE0001C00BF002C00CF0000E0CBEFF0E0D6E38
:1020CE000E6EF2EC0CF00704746E1200000E066E2B
:1020DE00000E056E03500410D8B41CD0010E076E0E
:1020EE0004D0D89003360436072A04AEFAD7D89017
:1020FE00053606360350015C04500258D8A005D0B0
:10210E000350015E0450025A0580D8900432033207
:10211E00072EEDD705C001F006C002F01200000E2A
:10212E008D6E000E8C6E000E896E000E8A6E010E84
:10213E008B6EC70E966EEF0E926EDF0E936E960E30
:10214E00946E9568000E0F01486F100E496FF18E58
:10215E00968E968C000E426F000E416F000E406FF1
:10216E00120011C017F012C018F014AE0CD011C02E
:10217E00D9FF12C0DAFF2D0EDF6E114A122A136C30
:10218E00141ED8B0142A11C008F012C009F013C0E2
:10219E000AF014C00BF015C00CF016C00DF077EC61
:1021AE000EF0120003500410D8B418D0010E056EB4
:1021BE0004D0D89003360436052A04AEFAD703505D
:1021CE00015C04500258D8A004D00350015E0450A4
:1021DE00025AD89004320332052EF1D701C001F015
:1021EE0002C002F012002B502C102D10D8B406D0C5
:1021FE00000E2B1A000E2C1A800E2D1A28C01CF061
:10220E0029C01DF02AC01EF02BC01FF02CC020F0DC
:10221E002DC021F093EC08F01CC028F01DC029F051
:10222E001EC02AF01200180E7E6E980EAC6E240E92
:10223E00AD6ECF0EB06E000E7F6E000E016E000EF4
:10224E00026E21EC12F0000E016E000E026E1CECFE
:10225E0012F0000E016E000E026E26EC12F0000E51
:10226E005F6E12007A0E116E000E126E74C013F0B5
:10227E0075C014F078C015F079C016F0B8EC10F0F7
:10228E007A0E016E000E026E0A0E036E59EC0FF0FE
:10229E003A0E016E0F0E026E020E036E59EC0FF027
:1022AE001200000E0C6E0AAE06D0096C0A1ED8B0D3
:1022BE000A2A010E0C6E09C001F00AC002F0036A70
:1022CE008E0E046E0CC005F020EC0EF001C009F06D
:1022DE0002C00AF003C00BF0120001EE00F011EE86
:1022EE0000F0EE6AE550E150FCE1E250FAE100EE5A
:1022FE0060F0140EEE6AE806FDE15F6A000EF86EFD
:10230E0000019CEF0FF0700ED36E000E9B6E000E50
:10231E000F013D6F140E876E0B0E026E260E016EB0
:10232E005E0EE82EFED7012EFCD7022EFAD7120033
:10233E0001500302F3CF05F0F4CF06F00150040272
:10234E00F350062602500302F350062605C001F094
:10235E0006C002F01200015002100310D8B406D0CD
:10236E00000E011A000E021A800E031A01C001F0AF
:10237E0002C002F003C003F0120009C001F00AC04F
:10238E0002F0036A8E0E046E000E056E20EC0EF047
:10239E0001C009F002C00AF003C00BF0120030ECCD
:1023AE0012F0900EE4EC11F0010EE4EC11F0600E60
:1023BE00E4EC11F035EC12F01200016E01C075FF65
:1023CE0073A0FED7A4AEFED7A49E71AC120035EC5E
:1023DE0012F0120096EC10F08AEC11F010EC12F0E4
:1023EE001AEC11F0640E43EC10F01200718673A01B
:1023FE00FED701B002D0719A01D0718A71A8120075
:10240E00FDD730EC12F0000EE4EC11F035EC12F0CA
:10241E001200800EC76E200EC66E000EC86E120021
:10242E00F28EF28CA38EA49E120001C070F002C038
:10243E0071F0120001C072F002C073F0120001C000
:10244E006EF002C06FF01200718271B2FED7A49EC0
:10245E001200718071B0FED7A49E1200718471B407
:06246E00FED7A49E12003F
:08FFF800BEF4F4FFFFFFBFF3AC
:00000001FF
