:04000000A6EF0AF06D
:100F00000000803F72313FFE753E58633D951D3CA9
:100F1000C5AE3A79213994803793A73556153400F8
:100F2000000000803FF0FFBEE2A93E8376BEAE2BFC
:0D0F30003E3CC3BDD2133D78D3BB0D000085
:100F3E00136E20EE3FF010EE14F0070EDBCFE3FF42
:100F4E00E806FCE2000E1D6E000E1C6E1DBE06D0E5
:100F5E001D5070E1030E1C5CD8B01200D8901C34EA
:100F6E00D96E1D34DA6E140ED926000EDA22030E57
:100F7E00DE18DE10D8A414D010C009F00A6A8BEC6B
:100F8E000BF07F0B0D6ED8901C34D96E1D34DA6EBB
:100F9E00140ED926000EDA22DF5009EC0CF043D0E5
:100FAE00D8901C34D96E1D34DA6E140ED926000E6C
:100FBE00DA22040EDE18DE10D8A414D00FC009F009
:100FCE000A6A8BEC0BF07F0B0D6ED8901C34D96E29
:100FDE001D34DA6E140ED926000EDA22DF5009EC1B
:100FEE000CF021D0D8901C34D96E1D34DA6E140E4C
:100FFE00D926000EDA22050EDE18DE10D8A413D084
:10100E0013C009F00A6A8BEC0BF07F0B0D6ED890B3
:10101E001C34D96E1D34DA6E140ED926000EDA2267
:10102E00DF5009EC0CF01C4A1D2A1DBE97D71D502F
:10103E0001E190D71200176E20EE47F010EE12F07D
:10104E00040EDBCFE3FFE806FCE2000E196E000E85
:10105E00186E19BE4BD019505FE1040E185CD8B053
:10106E00120044D017C009F00A6A8BEC0BF07F0B0C
:10107E000D6E120E1824D96E000E1920DA6EDF5086
:10108E0009EC0CF046D00FC009F00A6A8BEC0BF09D
:10109E007F0B0D6E120E1824D96E000E1920DA6E0B
:1010AE00DF5009EC0CF035D010C009F00A6A8BEC59
:1010BE000BF07F0B0D6E120E1824D96E000E192038
:1010CE00DA6EDF5009EC0CF024D011C009F00A6A78
:1010DE008BEC0BF07F0B0D6E120E1824D96E000EDA
:1010EE001920DA6EDF5009EC0CF013D0120E182412
:1010FE00D96E000E1920DA6EDF50060AD8B4B2D7B8
:10110E00010AD8B4C0D70F0AD8B4CED7010AD8B4C2
:10111E00DCD7184A192A9DD71200000E106E0EAE9B
:10112E000AD00E1E0D1E0C1E0B6C000E0C220D2274
:10113E000E22010E106E0AAE0AD00A1E091E081EDD
:10114E00076C000E082209220A22010E101A000E48
:10115E00116E000E126E000E136E000E146E0B50FA
:10116E000C100D100E10D8B42AD0010E0F6E06D032
:10117E00D8900B360C360D360E360F2A0EAEF8D72B
:10118E00D89011361236133614360B50075C0C50AD
:10119E0008580D5009580E500A58D8A009D00B50B7
:1011AE00075E0C50085A0D50095A0E500A5A1180FB
:1011BE00D8900E320D320C320B320F2EE1D710506A
:1011CE00D8B408D0141E131E121E116C000E12225B
:1011DE001322142211C007F012C008F013C009F038
:1011EE0014C00AF012000AC00EF00BC00FF00EC0B1
:1011FE0001F00FC002F00CC003F00DC004F07DEC46
:10120E000AF001C00EF002C00FF0084A092A0E5073
:10121E000F10D8A4ECD708C0D9FF09C0DAFF000E12
:10122E00DF6E0806D8A009060AC001F00BC002F056
:10123E000CC003F00DC004F00EEC0BF00150106E5C
:10124E000AC001F00BC002F00CC003F00DC004F098
:10125E007DEC0AF001C00AF002C00BF0090E10641A
:10126E0002D0070E1026300E102608C0D9FF09C076
:10127E00DAFF10C0DFFF0806D8A009060A500B10CF
:10128E00D8A4D2D7084A092A120060EC0CF033EC2D
:10129E000CF04AEC0CF0340E296EF20EE82EFED74E
:1012AE00292EFCD7F9EC0BF0360E0F6E2D0E106EAC
:1012BE000C0E9FEC07F0050E0F6E090E106E170E3A
:1012CE00116E190E22EC08F00A0E0F6E020EA7EC2C
:1012DE000BF081B0FED78AAA02D0010E01D0000E0B
:1012EE00FF0A296E293A29468A502918DF0B291838
:1012FE008A6E000E106E020E0F6E18EC0CF0030EBE
:10130E006DEC0BF0296E2950196E1A6A1B6A1C6A55
:10131E00000E1E6E0A0E1D6E4EEC0BF0DAD7000E8E
:10132E00066E3BD00650010D01C004F002C005F060
:10133E00F3500426F450052204C0F6FF05C0F7FF53
:10134E00F86A0650010D000EF324D96E010EF4203A
:10135E00DA6E0E0EF76403D00800F55005D0F6CF06
:10136E00E9FFF7CFEAFFEF50DF6E0650010D000EDA
:10137E00F324D96E010EF420DA6EDF50D8B40CD0FF
:10138E00ADA2FED70650010D000EF324D96E010E4C
:10139E00F420DA6EDF50AE6E062A0350065CD8B02B
:1013AE001200C0D7000E066E04AE06D0036C041EEB
:1013BE00D8B0042A010E066E02AE06D0016C021ED3
:1013CE00D8B0022A010E061A000E086E000E076E25
:1013DE0003500410D8B41CD0010E056E04D0D89062
:1013EE0003360436052A04AEFAD7D89007360836E7
:1013FE000350015C04500258D8A005D00350015E82
:10140E000450025A0780D89004320332052EEDD7CD
:10141E000650D8B404D0076C081ED8B0082A07C0EE
:10142E0001F008C002F01200000E066E02AE06D0E9
:10143E00016C021ED8B0022A010E066E04AE04D054
:10144E00036C041ED8B0042A03500410D8B418D06C
:10145E00010E056E04D0D89003360436052A04AE6C
:10146E00FAD70350015C04500258D8A004D00350A0
:10147E00015E0450025AD89004320332052EF1D781
:10148E000650D8B404D0016C021ED8B0022A01C096
:10149E0001F002C002F01200156E95809582729EC8
:1014AE00728A7250F00B0809726E719A7188000E72
:1014BE00076E240E086EF40E096E000E0A6E15C02D
:1014CE0001F0026A0F0E046EA00E036EE6EC0BF036
:1014DE0001C00BF002C00CF0000E0CBEFF0E0D6E24
:1014EE000E6E94EC08F00704746E1200000E066E79
:1014FE00000E056E03500410D8B41CD0010E076EFA
:10150E0004D0D89003360436072A04AEFAD7D89002
:10151E00053606360350015C04500258D8A005D09B
:10152E000350015E0450025A0580D89004320332F3
:10153E00072EEDD705C001F006C002F01200B20E64
:10154E00F66E180EF76E000EF86E00EE3FF010EE0F
:10155E000DF00900F5CFEEFFE550E150FAE101EE96
:10156E0000F011EE00F0EE6AE550E150FCE1E250C1
:10157E00FAE100EE2AF0150EEE6AE806FDE1000E25
:10158E00F86E00014CEF09F0000E8D6E000E8C6EA1
:10159E00000E896E000E8A6E010E8B6EC70E966E51
:1015AE00EF0E926EDF0E936E960E946E9568000E91
:1015BE000F01486F100E496FF18E968E968C000EAD
:1015CE00426F000E416F000E406F120011C017F0F7
:1015DE0012C018F014AE0CD011C0D9FF12C0DAFF31
:1015EE002D0EDF6E114A122A136C141ED8B0142A57
:1015FE0011C008F012C009F013C00AF014C00BF0AD
:10160E0015C00CF016C00DF0FAEC08F012000350E5
:10161E000410D8B418D0010E056E04D0D89003363D
:10162E000436052A04AEFAD70350015C0450025862
:10163E00D8A004D00350015E0450025AD890043250
:10164E000332052EF1D701C001F002C002F01200E4
:10165E00180E7E6E980EAC6E240EAD6ECF0EB06E62
:10166E00000E7F6E000E016E000E026E6AEC0CF024
:10167E00000E016E000E026E65EC0CF0000E016E97
:10168E00000E026E6FEC0CF0000E3E6E12001F0E7E
:10169E00116E000E126E19C013F01AC014F01DC098
:1016AE0015F01EC016F0EDEC0AF01F0E016E000EC6
:1016BE00026E0A0E036E96EC09F03A0E016E0F0ED4
:1016CE00026E020E036E96EC09F01200076E74ECB9
:1016DE000CF0D00E26EC0CF0075026EC0CF079EC4A
:1016EE000CF074EC0CF0D10E26EC0CF0000E026E29
:1016FE00010E016E3FEC0CF079EC0CF075CF01F0A1
:10170E00026AD2EC0BF0120009C001F00AC002F01E
:10171E00000E046E0A0E036E1BEC0AF001C00BF0F5
:10172E0002C00CF009C001F00AC002F0000E046EF7
:10173E000A0E036ED9EC09F00138F00B0B101200F3
:10174E00106EFA0E0D6E0F0E09EC0CF0020E0D6EF1
:10175E00010E09EC0CF010C00DF0100E09EC0CF09F
:10176E000FC00DF0110E09EC0CF01200700ED36EBE
:10177E00000E9B6E000E0F013D6F140E876E0B0E4A
:10178E00026E260E016E5E0EE82EFED7012EFCD7DF
:10179E00022EFAD7120001C003F00F0E031601C07D
:1017AE0004F002C005F0040E066E05340532043254
:1017BE00062EFBD704500A0DF350032412000150DD
:1017CE000302F3CF05F0F4CF06F001500402F350FC
:1017DE00062602500302F350062605C001F006C08D
:1017EE0002F01200800E0D6E000E09EC0CF0800E51
:1017FE000D6E020E09EC0CF0F80E0D6E0F0E09ECCC
:10180E000CF012000E6E74EC0CF0D00E26EC0CF0F8
:10181E000E5026EC0CF00D5026EC0CF079EC0CF082
:10182E0012000FC00DF0010E09EC0CF01A0E116E25
:10183E00F80EE82EFED7112EFCD700D01200016E46
:10184E0001C075FF73A0FED7A4AEFED7A49E71ACE7
:10185E00120079EC0CF01200CBEC0AF0BDEC0BF0A0
:10186E0052EC0CF02FEC0BF0640E53EC0AF012005D
:10187E00718673A0FED701B002D0719A01D0718A21
:10188E0071A81200FDD774EC0CF0000E26EC0CF0D3
:10189E0079EC0CF01200800EC76E200EC66E000E94
:1018AE00C86E1200030004000500000006070809B8
:0118BE000029
:1018C000F28EF28CA38EA49E120001C03AF002C0E8
:1018D0003BF0120001C03CF002C03DF0120001C01C
:1018E00038F002C039F01200718071B0FED7A49EAA
:0C18F0001200718471B4FED7A49E120097
:08FFF800BEF4F4FFFFFFBFF3AC
:00000001FF
