:04000000F9EF7AF0AA
:10F33200718471B4FED7A49E1200718071B0FED7A1
:10F34200A49E12001EC017F01FC018F012001EC0AB
:10F352001BF01FC01CF012001EC019F01FC01AF0D3
:10F362001200F28EF28CA38EA49E1200800EC76E43
:10F37200200EC66E000EC86E12009EEC79F0000ED2
:10F38200DAEC79F099EC79F0120003000400050040
:10F39200000006070809000101017EEC7AF02DEC5D
:10F3A2007AF0B7EC79F05FEC7AF0900EA0EC7AF09C
:10F3B20012001E6E1EC075FF73A0FED7A4AEFED74C
:10F3C200A49E71AC120099EC79F012001F6E160E19
:10F3D2001F601200080E1E6401D012001FC043F00D
:10F3E2001EC042F012001F6E000E206E9EEC79F0DD
:10F3F2007A0EDAEC79F02050DAEC79F01F50DAEC80
:10F4020079F099EC79F012001E502002F3CF22F02D
:10F41200F4CF23F01E502102F35023261F50200266
:10F42200F350232622C01EF023C01FF01200206ECC
:10F432009EEC79F07A0EDAEC79F02050DAEC79F081
:10F442001F28D8A403D099EC79F003D01F50DAEC2E
:10F4520079F099EC79F01200700ED36E000E9B6E6B
:10F46200000E0F013D6F140E876E0B0E1F6E260EDF
:10F472001E6E5E0EE82EFED71E2EFCD71F2EFAD76A
:10F482001200B2EC79F0CEEC79F0BEEC79F0340EE9
:10F49200336EF20EE82EFED7332EFCD774EC7CF0DE
:10F4A200CAEC7AF0010E1E6E010EE7EC79F0D50E71
:10F4B200286EFF0E296E64EC7BF0FFD7180E7E6E6D
:10F4C200980EAC6E240EAD6ECF0EB06E000E7F6E37
:10F4D200000E1E6E000E1F6EA8EC79F0000E1E6E5E
:10F4E200000E1F6EADEC79F0000E1E6E000E1F6E48
:10F4F200A3EC79F0000E1D6E1200040E8D6E000E4C
:10F502008C6E000E896E000E8A6E010E8B6EC30E1B
:10F51200966EEF0E926EDF0E936E960E946E956857
:10F52200800E0F01486F100E496FF18E968E968CE9
:10F53200000E426F000E416F000E406F1200326EDD
:10F5420095809582729E728A7250F00B0809726ED3
:10F55200719A7188000E246E240E256EF40E266EAA
:10F56200000E276E32C01EF01F6A0F0E216EA00E13
:10F57200206E05EC7AF01EC028F01FC029F0000EA4
:10F5820029BEFF0E2A6E2B6EA4EC7BF02404746E4F
:10F592001200210E1F6E210E18EC7AF0000EF4EC10
:10F5A20079F07F0EF4EC79F0220E1F6E220E18EC29
:10F5B2007AF0000EF4EC79F0070EF4EC79F09EECA0
:10F5C20079F07A0EDAEC79F0400EDAEC79F0000E8E
:10F5D200226E000E216E040E225CD8B006D0000E00
:10F5E200DAEC79F0214A222AF6D799EC79F0120066
:10F5F200C00EF66EF90EF76E000EF86E00EEC4F055
:10F6020014EE00F00900F5CFEEFFE550E150FAE10B
:10F61200E250F8E18C0EF66EF30EF76E000EF86E05
:10F6220000EE34F010EE10F00900F5CFEEFFE550D9
:10F63200E150FAE100EE60F0640EEE6AE806FDE1E8
:10F6420000EE01F01D0EEE6AE806FDE1000EF86E16
:10F65200000142EF7AF0000E236E1FAE06D01E6C40
:10F662001F1ED8B01F2A010E236E21AE04D0206CBB
:10F67200211ED8B0212A20502110D8B418D0010E52
:10F68200226E04D0D89020362136222A21AEFAD713
:10F6920020501E5C21501F58D8A004D020501E5E5E
:10F6A20021501F5AD89021322032222EF1D72350D6
:10F6B200D8B404D01E6C1F1ED8B01F2A1EC01EF064
:10F6C2001FC01FF01200000E2C6E29D02C50010D0D
:10F6D20028C02AF029C02BF0F3502A26F4502B22FE
:10F6E2002AC0F6FF2BC0F7FF0800F550200AD8A465
:10F6F20003D04304D8B412D02C50010D28C02AF0F4
:10F7020029C02BF0F3502A26F4502B222AC0F6FFF0
:10F712002BC0F7FF0800F5500AEC7CF02C2A2C5085
:10F72200010D28C02AF029C02BF0F3502A26F450EC
:10F732002B222AC0F6FF2BC0F7FF0800F550000964
:10F74200D8B41200C3D7000E2D6E2BAE0AD02B1EDA
:10F752002A1E291E286C000E29222A222B22010E83
:10F762002D6E27AE0AD0271E261E251E246C000EE3
:10F77200252226222722010E2D1A000E2E6E000EA1
:10F782002F6E000E306E000E316E285029102A1096
:10F792002B10D8B42AD0010E2C6E06D0D890283661
:10F7A20029362A362B362C2A2BAEF8D7D8902E366D
:10F7B2002F36303631362850245C295025582A50AD
:10F7C20026582B502758D8A009D02850245E2950FB
:10F7D200255A2A50265A2B50275A2E80D8902B323F
:10F7E2002A32293228322C2EE1D72D50D8B408D013
:10F7F200311E301E2F1E2E6C000E2F22302231227F
:10F802002EC024F02FC025F030C026F031C027F0E2
:10F812001200266E1F0E266403D07E0E266402D0CE
:10F822003F0E266E210E1F6E210E18EC7AF0430455
:10F83200060DF350F4EC79F04304060DF350040F77
:10F84200F4EC79F0220E1F6E220E18EC7AF04204CC
:10F85200F4EC79F04204F4EC79F09EEC79F07A0E53
:10F86200DAEC79F0400EDAEC79F0000E276E040E35
:10F87200276401D01ED0E00E26241E6E1F6AFF0EE2
:10F882001F22000E216E050E206E05EC7AF0275025
:10F892001E26000E1F22C10E1E24F66EFD0E1F2014
:10F8A200F76E0800F5CF25F02550DAEC79F0272A1B
:10F8B200DED799EC79F043C01EF01F6A000E216E6C
:10F8C200150E206E2CEC7BF01E28436E4150D8B4EE
:10F8D20012004304D8A4120042C024F0070E2416DA
:10F8E2002428426E12008D84340E216EF20EE82E10
:10F8F200FED7212EFCD78D94340E216EF20EE82E07
:10F90200FED7212EFCD78D84AE0E1F6EAE0E18ECE4
:10F912007AF03F0E1F6EA80E18EC7AF0000E1F6EE2
:10F92200D30E18EC7AF08D0E1F6E8D0E18EC7AF055
:10F93200000E1F6E200E18EC7AF0400E1F6E400E65
:10F9420018EC7AF0A10E1F6EA10E18EC7AF0C80E18
:10F952001F6EC80E18EC7AF0120E1F6EDA0E18EC3B
:10F962007AF07F0E1F6E810E18EC7AF0D90E1F6EA0
:10F97200D90E18EC7AF0400E1F6EDB0E18EC7AF0FE
:10F98200A40E1F6EA40E18EC7AF0A60E1F6EA60E21
:10F9920018EC7AF0800E1F6ED50E18EC7AF0140E69
:10F9A2001F6E8D0E18EC7AF02E0E1F6E2E0E18ECB6
:10F9B2007AF0AF0E1F6EAF0E18EC7AF01200000054
:10F9C2000000000000000000000000000000000035
:10F9D2000000000000000000000000000000000025
:10F9E2000000000000000000000000000000000015
:10F9F2000000000000000000000000000080808085
:10FA02000000000000000000000000000000008074
:10FA120080C0C000000000000000000000000000E4
:10FA220000000000000000000000000000000000D4
:10FA320000000000000000000000000000000000C4
:10FA420000000000000000000000000000000000B4
:10FA5200000080C0E0F0F8FCF8E0000000000000C8
:10FA62000000000000000000000000808080808014
:10FA720000808000000000808080808000FFFFFF07
:10FA8200000000008080808000008080000080FFF5
:10FA9200FF80800080800080808080008080000065
:10FAA200000000808000008C8E84000080F8F8F84E
:10FAB2008000000000000000000000000000F0F0E4
:10FAC200F0F0F0F0F0F0F0F0F0F0E0E0C08000E0F4
:10FAD200FCFEFFFFFF7FFFFFFFFFFF0000000000B3
:10FAE200000000000000000000FEFFC7010101014C
:10FAF20083FFFF00007CFEC70101010183FFFFFFBE
:10FB02000038FEC78301010183C7FFFF000001FF28
:10FB1200FF010100FFFF0701010100007FFF8000DC
:10FB22000000FFFF7F0000FFFFFF000001FFFFFF5B
:10FB32000100000000000000000000000000030FB0
:10FB42003F7F7FFFFFFFFFFFFFFFE7C7C78F8F9F4B
:10FB5200BFFFFFC3C0F0FFFFFFFFFFFCFCFCFCFC8C
:10FB6200FCFCFCF8F8F0F0E0C0000103030303031F
:10FB72000103030000000001030303030101030169
:10FB8200000000010303030301010303000000035B
:10FB92000300000003030000000000000001030353
:10FBA200030303010000000103010000000303013D
:10FBB2000000000000000000000000000000000043
:10FBC2000080C0E0F0F9FFFFFFFFFF3F1F0F87C774
:10FBD200F7FFFF1F1F3DFCF8F8F8F87C7DFFFFFFE1
:10FBE200FFFFFFFFFF7F3F0F0700303000000000E4
:10FBF2000000000000000000000000000000000003
:10FC02000000FEFEFC0000000000000000000000FA
:10FC12000000000000000000000000E0C000000042
:10FC22000000000000000000303000000000000072
:10FC3200000000000000000000000000000000C002
:10FC4200FEFFFFFFFFFFFFFFFFFF7F7F3F1F0F074B
:10FC52001F7FFFFFF8F8FFFFFFFFFFFEF8E0000045
:10FC620000010000000000000000FEFE000000FC99
:10FC7200FEFC0C06060EFCF80000F0F81C0E060650
:10FC8200060CFFFFFF0000FEFE00000000FCFEFC71
:10FC920000183C7E66E6CE84000006FFFF0606FCE6
:10FCA200FEFC0C0606060000FEFE0000C0F8FC4E3C
:10FCB2004646464E7C7840183C76E6CECC80000024
:10FCC2000000000000000000000000000000000032
:10FCD200000001070F1F1F3F3F3F3F1F0F030000A0
:10FCE200000000000000000000000F0F0000000FE5
:10FCF2000F0F000000000F0F000003070E0C181872
:10FD02000C060F0F0F0000010F0E0C180C0F07014D
:10FD120000040E0C180C0F070000000F0F00000F5C
:10FD22000F0F0000000000000F0F00000007070C7B
:10FD32000C181C0C060600040E0C180C0F07000011
:10FD420000000000000000000000000000000000B1
:10FD520000000000000000000000000000000000A1
:10FD62000000000000000000000000000000000091
:10FD72000000000000000000000000000000000081
:10FD82000000000000000000000000000000000071
:10FD92000000000000000000000000000000000061
:10FDA2000000000000000000000000000000000051
:10FDB2000000000000000000000000000000000041
:10FDC2000000000000005F00000007000700147F31
:10FDD200147F14242A7F2A12231308646236495698
:10FDE20020500008070300001C2241000041221C91
:10FDF200002A1C7F1C2A08083E0808008070300078
:10FE02000808080808000060600020100804023E8C
:10FE12005149453E00427F400072494949462141CD
:10FE2200494D331814127F1027454545393C4A493C
:10FE3200493141211109073649494936464949297B
:10FE42001E0000140000004034000000081422418B
:10FE52001414141414004122140802015909063E14
:10FE6200415D594E7C1211127C7F494949363E410F
:10FE72004141227F4141413E7F494949417F090930
:10FE820009013E414151737F0808087F00417F41CB
:10FE9200002040413F017F081422417F4040404002
:10FEA2007F021C027F7F0408107F3E4141413E7F5A
:10FEB200090909063E4151215E7F09192946264951
:10FEC20049493203017F01033F4040403F1F204028
:10FED200201F3F4038403F63140814630304780432
:10FEE200036159494D43007F4141410204081020FA
:10FEF200004141417F040201020440404040400071
:10FF02000307080020545478407F2844443838447A
:10FF1200444428384444287F385454541800087EF6
:10FF2200090218A4A49C787F0804047800447D4048
:10FF3200002040403D007F1028440000417F4000E7
:10FF42007C047804787C080404783844444438FCFF
:10FF52001824241818242418FC7C08040408485483
:10FF620054542404043F44243C4040207C1C204040
:10FF7200201C3C4030403C44281028444C90909037
:10FF82007C4464544C440008364100000077000071
:10FF92000041360800020102040200803F72313F34
:10FFA200FE753E58633D951D3CC5AE3A79213994A4
:10FFB200803793A73556153400000000803FF0FFCC
:10FFC200BEE2A93E8376BEAE2B3E3CC3BDD2133DFC
:10FFD20078D3BB496620796F752072656164696E5A
:10FFE200672074686973204974277320776F726B76
:06FFF20065640020000020
:08FFF800BEF4F4FFFFFFBFF3AC
:00000001FF
