:0400000012EF09F002
:100F00000000803F72313FFE753E58633D951D3CA9
:100F1000C5AE3A79213994803793A73556153400F8
:100F2000000000803FF0FFBEE2A93E8376BEAE2BFC
:100F30003E3CC3BDD2133D78D3BB0D003000200032
:010F400000B0
:100F4200000E2F6E2DAE0AD02D1E2C1E2B1E2A6CCB
:100F5200000E2B222C222D22010E2F6E29AE0AD03A
:100F6200291E281E271E266C000E2722282229222F
:100F7200010E2F1A000E306E000E316E000E326E10
:100F8200000E336E2A502B102C102D10D8B42AD0FC
:100F9200010E2E6E06D0D8902A362B362C362D36E0
:100FA2002E2A2DAEF8D7D890303631363236333637
:100FB2002A50265C2B5027582C5028582D5029583F
:100FC200D8A009D02A50265E2B50275A2C50285AD6
:100FD2002D50295A3080D8902D322C322B322A3281
:100FE2002E2EE1D72F50D8B408D0331E321E311E18
:100FF200306C000E31223222332230C026F031C052
:1010020027F032C028F033C029F01200000E236E00
:10101200030E226ED5EC09F022C02CF023C02DF075
:1010220089EC0AF0400E2AEC0AF0030E2AEC0AF0D0
:1010320028502910D8A40FD026C02AF0010E2B6EFA
:101042002A2A02D0D8902B362A2EFCD72B502C10CD
:101052002AEC0AF00FD026C02AF0010E2B6E2A2AA3
:1010620002D0D8902B362A2EFCD72B50FF0A2C14F4
:101072002AEC0AF08EEC0AF0000E236E040E226EA9
:10108200D5EC09F022C02CF023C02DF089EC0AF037
:10109200400E2AEC0AF0040E2AEC0AF026C02AF0CE
:1010A200010E2B6E2A2A02D0D8902B362A2EFCD77C
:1010B2002B502C102AEC0AF08EEC0AF0120070EC85
:1010C2000AF037EC0AF094905AEC0AF0340E366EBD
:1010D200F20EE82EFED7362EFCD7000E276E050E36
:1010E200266E000E296E000E286EDBEC08F0000E54
:1010F200276E030E266E000E296E010E286EDBECA3
:1011020008F0000E276E030E266E71EC09F0000E39
:101112002F6E030E2E6E000E316E000E306EA1EC9D
:1011220008F069EC0AF0070E376E170E366E6A0E7B
:10113200E82EFED7362EFCD7372EFAD700D0F1D7BD
:10114200000E236E020E226ED5EC09F022C034F09E
:1011520023C035F089EC0AF0400E2AEC0AF0020EA8
:101162002AEC0AF02EC032F0010E336E322A02D07F
:10117200D8903336322EFCD7335034102AEC0AF092
:101182008EEC0AF089EC0AF0400E2AEC0AF0050E09
:101192002AEC0AF0040E2AEC0AF08EEC0AF02EC0B9
:1011A20026F02FC027F030C028F031C029F007EC1C
:1011B20008F01200000E236E000E226ED5EC09F02C
:1011C20022C02CF023C02DF089EC0AF0400E2AEC4C
:1011D2000AF0000E2AEC0AF028042910D8A40FD035
:1011E20026C02AF0010E2B6E2A2A02D0D8902B3666
:1011F2002A2EFCD72B502C102AEC0AF00FD026C036
:101202002AF0010E2B6E2A2A02D0D8902B362A2ED3
:10121200FCD72B50FF0A2C142AEC0AF08EEC0AF0B1
:101222001200340EF66E140EF76E000EF86E00EE1B
:1012320060F010EE20F00900F5CFEEFFE550E1502E
:10124200FAE19E0EF66E140EF76E000EF86E00EEC8
:1012520038F010EE15F00900F5CFEEFFE550E15041
:10126200FAE101EE00F011EE00F0EE6AE550E15015
:10127200FCE1E250FAE100EE01F01F0EEE6AE80630
:10128200FDE1000EF86E000160EF08F0346E95800B
:101292009582729E728A7250F00B0809726E719A70
:1012A2007188000E266E240E276EF40E286E000E34
:1012B200296E34C020F0216A0F0E236EA00E226E1A
:1012C20007EC0AF020C02AF021C02BF0000E2BBE42
:1012D200FF0E2C6E2D6EA1EC07F02604746E120028
:1012E200000E236E060E226ED5EC09F022C02AF003
:1012F20023C02BF089EC0AF0400E2AEC0AF0060E0D
:101302002AEC0AF026C028F0010E296E282A02D003
:10131200D8902936282EFCD729502A102AEC0AF018
:101322008EEC0AF01200040E8D6E000E8C6E000E12
:10133200896E000E8A6E010E8B6EC30E966EEF0ED4
:10134200926EDF0E936E960E946E9568800E0F016C
:10135200486F100E496FF18E968E968C000E426F7A
:10136200000E416F000E406F1200180E7E6E980E36
:10137200AC6E240EAD6ECF0EB06E000E7F6E000E00
:10138200206E000E216E7AEC0AF0000E206E000E26
:10139200216E75EC0AF0000E206E000E216E7FECBD
:1013A2000AF0000E1F6E120089EC0AF0400E2AECC1
:1013B2000AF022502AEC0AF084EC0AF0410E2AECE0
:1013C2000AF0000E216E010E206E43EC0AF075CF7A
:1013D20024F0256A8EEC0AF024C022F025C023F006
:1013E2001200700ED36E000E9B6E000E0F013D6F49
:1013F200140E876E0B0E216E260E206E5E0EE82EE8
:10140200FED7202EFCD7212EFAD71200205022021E
:10141200F3CF24F0F4CF25F020502302F3502526F9
:1014220021502202F350252624C020F025C021F0AD
:101432001200000102030405060708090A0B0C0D3D
:101442000E0F101112131415161718191A1B1C1D42
:101452001E1F206E20C075FF73A0FED7A4AEFED75C
:10146200A49E71AC12008EEC0AF0120094EC09F00A
:10147200F2EC09F062EC0AF0B6EC09F0640E47EC0B
:1014820009F01200718673A0FED720B002D0719AC3
:1014920001D0718A718871A81200FDD7030004007F
:1014A20005000000B0B1B2B3B4B5B6B7060708097B
:0114B2000039
:1014B40089EC0AF0000E2AEC0AF08EEC0AF0120015
:1014C400800EC76E200EC66E000EC86E1200000E8F
:1014D400236E080E226ED5EC09F01200F28EF28C07
:1014E400A38EA49E120020C01BF021C01CF0120089
:1014F40020C01DF021C01EF0120020C019F021C030
:101504001AF01200718271B2FED7A49E120071808B
:1015140071B0FED7A49E1200718471B4FED7A49E4C
:021524001200B3
:08FFF800BEF4F4FFFFFFBFF3AC
:00000001FF
