:04000000BFEF08F056
:100F00000000803F72313FFE753E58633D951D3CA9
:100F1000C5AE3A79213994803793A73556153400F8
:100F2000000000803FF0FFBEE2A93E8376BEAE2BFC
:0B0F30003E3CC3BDD2133D78D3BB0094
:100F3C00000E106E0EAE0AD00E1E0D1E0C1E0B6C8B
:100F4C00000E0C220D220E22010E106E0AAE0AD0DB
:100F5C000A1E091E081E076C000E082209220A220E
:100F6C00010E101A000E116E000E126E000E136E92
:100F7C00000E146E0B500C100D100E10D8B42AD09D
:100F8C00010E0F6E06D0D8900B360C360D360E3681
:100F9C000F2A0EAEF8D7D8901136123613361436F7
:100FAC000B50075C0C5008580D5009580E500A583D
:100FBC00D8A009D00B50075E0C50085A0D50095A96
:100FCC000E500A5A1180D8900E320D320C320B3260
:100FDC000F2EE1D71050D8B408D0141E131E121EB9
:100FEC00116C000E12221322142211C007F012C031
:100FFC0008F013C009F014C00AF012003FEC09F01D
:10100C0018EC09F0340E166EF20EE82EFED7162EE2
:10101C00FCD7FF0EFCEC08F0FF0EFCEC08F0A9EC82
:10102C0008F030EC09F00B0E176E260E166E5E0EE5
:10103C00E82EFED7162EFCD7172EFAD781A0EFD7A5
:10104C00340E166EF20EE82EFED7162EFCD781B09B
:10105C00E6D78AAA02D0010E01D0000EFF0A166E46
:10106C00163A16468A501618DF0B16188A6ED7D702
:10107C00156E95809582729E728A7250F00B0809DB
:10108C00726E719A7188000E076E240E086EF40E43
:10109C00096E000E0A6E15C001F0026A0F0E046E86
:1010AC00A00E036EE9EC08F001C00BF002C00CF0CE
:1010BC00000E0CBEFF0E0D6E0E6E9EEC07F00704BC
:1010CC00746E1200000E8D6E000E8C6E000E896E0A
:1010DC00000E8A6E010E8B6EC70E966EEF0E926E20
:1010EC00DF0E936E960E946E9568000E0F01486F8E
:1010FC00100E496FF18E968E968C000E426F000E7C
:10110C00416F000E406F1200180E7E6E980EAC6E82
:10111C00240EAD6ECF0EB06E000E7F6E000E016E03
:10112C00000E026E49EC09F0000E016E000E026E0C
:10113C0044EC09F0000E016E000E026E4EEC09F04C
:10114C00000E2C6E120058EC09F0400E0BEC09F05E
:10115C00090E0BEC09F053EC09F0410E0BEC09F005
:10116C00000E026E000E016E24EC09F05DEC09F02D
:10117C00120001EE00F011EE00F0EE6AE550E150C5
:10118C00FCE1E250FAE100EE18F0150EEE6AE8060A
:10119C00FDE1000EF86E000104EF08F0700ED36E46
:1011AC00000E9B6E000E0F013D6F140E876E0B0E22
:1011BC00026E260E016E5E0EE82EFED7012EFCD7B7
:1011CC00022EFAD7120001500302F3CF05F0F4CF30
:1011DC0006F001500402F350062602500302F350AD
:1011EC00062605C001F006C002F01200026E58EC93
:1011FC0009F0400E0BEC09F0000E0BEC09F002505C
:10120C000BEC09F05DEC09F01200016E01C075FFEA
:10121C0073A0FED7A4AEFED7A49E71AC12005DECF9
:10122C0009F0120068EC08F0D4EC08F038EC09F086
:10123C008AEC08F0640E3EEC08F01200718673A084
:10124C00FED701B002D0719A01D0718A71B8FED765
:10125C0075501200016E9EA8FED7ADA2FED701C03C
:10126C00AEFF1200800EC76E200EC66E000EC86E4A
:10127C001200F28EF28CA38EA49E120001C028F0F4
:10128C0002C029F0120001C02AF002C02BF012009B
:10129C0001C026F002C027F01200718271B2FED795
:1012AC00A49E1200718071B0FED7A49E12007184AE
:0812BC0071B4FED7A49E1200DC
:08FFF800BEF4F4FFFFFFBFF3AC
:00000001FF
