:0400000016EF0BF0FC
:100F00000000803F72313FFE753E58633D951D3CA9
:100F1000C5AE3A79213994803793A73556153400F8
:100F2000000000803FF0FFBEE2A93E8376BEAE2BFC
:0D0F30003E3CC3BDD2133D78D3BB0D000085
:100F3E001C6E20EE40F010EE12F0090EDBCFE3FF38
:100F4E00E806FCE2000E1E6E000E1D6E1EBE08D0E0
:100F5E001E5005E1040E1D5CD8B0120001D0120027
:100F6E0066EC0CF0D00E21EC0CF0D8901D34D96E3E
:100F7E001E34DA6E120ED926000EDA22DF5021EC64
:100F8E000CF0D8901D34D96E1E34DA6E120ED9269E
:100F9E00000EDA22060EDE18DE10D8A40BD01CC00E
:100FAE0009F00A6ADDEC0BF07F0B21EC0CF06BEC18
:100FBE000CF04AD0D8901D34D96E1E34DA6E120E53
:100FCE00D926000EDA22070EDE18DE10D8A40BD0BA
:100FDE000DC009F00A6ADDEC0BF07F0B21EC0CF072
:100FEE006BEC0CF031D0D8901D34D96E1E34DA6E05
:100FFE00120ED926000EDA22080EDE18DE10D8A444
:10100E000BD00EC009F00A6ADDEC0BF07F0B21EC61
:10101E000CF06BEC0CF018D0D8901D34D96E1E3439
:10102E00DA6E120ED926000EDA22090EDE18DE1046
:10103E00D8A40AD00FC009F00A6ADDEC0BF07F0BC2
:10104E0021EC0CF06BEC0CF01D4A1E2A1EBE88D74C
:10105E001E5001E17FD71200196E20EE4AF010EEFD
:10106E0011F0070EDBCFE3FFE806FCE2000E1B6E6D
:10107E00000E1A6E1BBE06D01B5062E1030E1A5CE8
:10108E00D8B0120066EC0CF0D00E21EC0CF0D8901B
:10109E001A34D96E1B34DA6E110ED926000EDA22EE
:1010AE00DF5021EC0CF0D8901A34D96E1B34DA6E66
:1010BE00110ED926000EDA22030EDE18DE10D8A489
:1010CE000BD00EC009F00A6ADDEC0BF07F0B21ECA1
:1010DE000CF06BEC0CF031D0D8901A34D96E1B3466
:1010EE00DA6E110ED926000EDA22040EDE18DE108C
:1010FE00D8A40BD00DC009F00A6ADDEC0BF07F0B03
:10110E0021EC0CF06BEC0CF018D0D8901A34D96E90
:10111E001B34DA6E110ED926000EDA22050EDE18F9
:10112E00DE10D8A40AD019C009F00A6ADDEC0BF063
:10113E007F0B21EC0CF06BEC0CF01A4A1B2A9AD7A1
:10114E001200000E106E0EAE0AD00E1E0D1E0C1EDC
:10115E000B6C000E0C220D220E22010E106E0AAE2A
:10116E000AD00A1E091E081E076C000E082209224C
:10117E000A22010E101A000E116E000E126E000ED3
:10118E00136E000E146E0B500C100D100E10D8B402
:10119E002AD0010E0F6E06D0D8900B360C360D36B7
:1011AE000E360F2A0EAEF8D7D890113612361336E9
:1011BE0014360B50075C0C5008580D5009580E5041
:1011CE000A58D8A009D00B50075E0C50085A0D5083
:1011DE00095A0E500A5A1180D8900E320D320C3226
:1011EE000B320F2EE1D71050D8B408D0141E131E98
:1011FE00121E116C000E12221322142211C007F0BF
:10120E0012C008F013C009F014C00AF0120052EC1C
:10121E000CF02EEC0CF043EC0CF0340E296EF20EAA
:10122E00E82EFED7292EFCD7EEEC0AF03A0E0D6E04
:10123E00320E0E6E170E33EC08F0050E0D6E020E0A
:10124E000E6E150E0F6E1C0E9FEC07F03B0E026E0F
:10125E00000E036E000E046E000E056E0A0E6FEC8D
:10126E000AF0010E196E000E1A6E000E1B6E000EA5
:10127E001C6E000E1E6E0A0E1D6EBEEC0BF08AAAC0
:10128E0002D0010E01D0000EFF0A296E293A29461E
:10129E008A502918DF0B29188A6E0B0E2A6E260E1D
:1012AE00296E5E0EE82EFED7292EFCD72A2EFAD7EF
:1012BE00D8D70AC00EF00BC00FF00EC001F00FC051
:1012CE0002F00CC003F00DC004F0C5EC0AF001C032
:1012DE000EF002C00FF0084A092A0E500F10D8A4C3
:1012EE00ECD708C0D9FF09C0DAFF000EDF6E080682
:1012FE00D8A009060AC001F00BC002F00CC003F022
:10130E000DC004F07EEC0BF00150106E0AC001F01F
:10131E000BC002F00CC003F00DC004F0C5EC0AF0D7
:10132E0001C00AF002C00BF0090E106402D0070EC5
:10133E001026300E102608C0D9FF09C0DAFF10C0E3
:10134E00DFFF0806D8A009060A500B10D8A4D2D782
:10135E00084A092A1200000E066E3BD00650010DF7
:10136E0001C004F002C005F0F3500426F45005222B
:10137E0004C0F6FF05C0F7FFF86A0650010D000E17
:10138E00F324D96E010EF420DA6E0E0EF76403D03C
:10139E000800F55005D0F6CFE9FFF7CFEAFFEF5082
:1013AE00DF6E0650010D000EF324D96E010EF420EF
:1013BE00DA6EDF50D8B40CD0ADA2FED70650010DB8
:1013CE00000EF324D96E010EF420DA6EDF50AE6EED
:1013DE00062A0350065CD8B01200C0D7000E066E67
:1013EE0004AE06D0036C041ED8B0042A010E066E9D
:1013FE0002AE06D0016C021ED8B0022A010E061AE9
:10140E00000E086E000E076E03500410D8B41CD0E8
:10141E00010E056E04D0D89003360436052A04AEAC
:10142E00FAD7D890073608360350015C045002589C
:10143E00D8A005D00350015E0450025A0780D89000
:10144E0004320332052EEDD70650D8B404D0076C03
:10145E00081ED8B0082A07C001F008C002F012001A
:10146E00000E066E02AE06D0016C021ED8B0022A25
:10147E00010E066E04AE04D0036C041ED8B0042A0E
:10148E0003500410D8B418D0010E056E04D0D890B5
:10149E0003360436052A04AEFAD70350015C045015
:1014AE000258D8A004D00350015E0450025AD890BE
:1014BE0004320332052EF1D70650D8B404D0016C95
:1014CE00021ED8B0022A01C001F002C002F01200C2
:1014DE00066E66EC0CF0D00E21EC0CF0000E21EC3A
:1014EE000CF0820E21EC0CF06BEC0CF066EC0CF0B8
:1014FE00D00E21EC0CF0065021EC0CF0025003241F
:10150E0005247F0B21EC0CF06BEC0CF066EC0CF070
:10151E00D00E21EC0CF0010E21EC0CF0000E21ECA3
:10152E000CF06BEC0CF01200156E95809582729E8D
:10153E00728A7250F00B0809726E719A7188000EE1
:10154E00076E240E086EF40E096E000E0A6E15C09C
:10155E0001F0026A0F0E046EA00E036E0EEC0CF07C
:10156E0001C00BF002C00CF0000E0CBEFF0E0D6E93
:10157E000E6EA8EC08F00704746E1200000E066ED4
:10158E00000E056E03500410D8B41CD0010E076E69
:10159E0004D0D89003360436072A04AEFAD7D89072
:1015AE00053606360350015C04500258D8A005D00B
:1015BE000350015E0450025A0580D8900432033263
:1015CE00072EEDD705C001F006C002F0120066EC42
:1015DE000CF0D00E21EC0CF0000E21EC0CF0800E75
:1015EE0021EC0CF06BEC0CF066EC0CF0D00E21EC58
:1015FE000CF0020E21EC0CF0800E21EC0CF06BECDA
:10160E000CF066EC0CF0D00E21EC0CF00F0E21EC71
:10161E000CF0F80E21EC0CF06BEC0CF01200740ECA
:10162E00F66E180EF76E000EF86E00EE40F010EE2D
:10163E0012F00900F5CFEEFFE550E150FAE101EEB0
:10164E0000F011EE00F0EE6AE550E150FCE1E250E0
:10165E00FAE100EE2BF0150EEE6AE806FDE1000E43
:10166E00F86E00010EEF09F0000E8D6E000E8C6EFE
:10167E00000E896E000E8A6E010E8B6EC70E966E70
:10168E00EF0E926EDF0E936E960E946E9568000EB0
:10169E000F01486F100E496FF18E968E968C000ECC
:1016AE00426F000E416F000E406F120011C017F016
:1016BE0012C018F014AE0CD011C0D9FF12C0DAFF50
:1016CE002D0EDF6E114A122A136C141ED8B0142A76
:1016DE0011C008F012C009F013C00AF014C00BF0CC
:1016EE0015C00CF016C00DF060EC09F0120003509E
:1016FE000410D8B418D0010E056E04D0D89003365D
:10170E000436052A04AEFAD70350015C0450025881
:10171E00D8A004D00350015E0450025AD89004326F
:10172E000332052EF1D701C001F002C002F0120003
:10173E00180E7E6E980EAC6E240EAD6ECF0EB06E81
:10174E00000E7F6E000E016E000E026E5CEC0CF051
:10175E00000E016E000E026E57EC0CF0000E016EC4
:10176E00000E026E61EC0CF0000E3F6E12001F0EAA
:10177E00116E000E126E19C013F01AC014F01DC0B7
:10178E0015F01EC016F05DEC0BF01F0E016E000E74
:10179E00026E0A0E036EB2EC09F03A0E016E0F0ED7
:1017AE00026E020E036EB2EC09F0120009C001F0D7
:1017BE000AC002F0000E046E0A0E036E37EC0AF039
:1017CE0001C00BF002C00CF009C001F00AC002F01B
:1017DE00000E046E0A0E036EF5EC09F00138F00BE4
:1017EE000B101200700ED36E000E9B6E000E0F01CA
:1017FE003D6F140E876E0B0E026E260E016E5E0E80
:10180E00E82EFED7012EFCD7022EFAD71200015079
:10181E000302F3CF05F0F4CF06F001500402F350AB
:10182E00062602500302F350062605C001F006C03C
:10183E0002F01200016E01C075FF73A0FED7A4AEB8
:10184E00FED7A49E71AC12006BEC0CF012003BECB8
:10185E000BF0F9EC0BF04BEC0CF09FEC0BF0640E74
:10186E009BEC0AF0120006000700080009000000B9
:10187E00030004000500000066EC0CF0000E21ECE5
:10188E000CF06BEC0CF01200800EC76E200EC66EC4
:10189E00000EC86E1200F28EF28CA38EA49E120061
:1018AE0001C03BF002C03CF0120001C03DF002C08E
:1018BE003EF0120001C039F002C03AF01200718001
:1018CE0071B0FED7A49E1200718471B4FED7A49E8F
:0218DE001200F6
:08FFF800BEF4F4FFFFFFBFF3AC
:00000001FF
