:0400000002EF7BF0A0
:10F34200718471B4FED7A49E1200718071B0FED791
:10F35200A49E12001EC017F01FC018F012001EC09B
:10F362001BF01FC01CF012001EC019F01FC01AF0C3
:10F372001200F28EF28CA38EA49E1200800EC76E33
:10F38200200EC66E000EC86E1200A6EC79F0000EBA
:0AF39200E3EC79F0A1EC79F0120031
:10F39D000300040005000000060708090001010133
:10F3AD000187EC7AF036EC7AF0BFEC79F068EC7A04
:10F3BD00F0900EA9EC7AF012001E6E1EC075FF7350
:10F3CD00A0FED7A4AEFED7A49E71AC1200A1EC791D
:10F3DD00F012001F6E160E1F601200080E1E640143
:10F3ED00D012001FC044F01EC043F012001F6E006B
:10F3FD000E206EA6EC79F07A0EE3EC79F02050E356
:10F40D00EC79F01F50E3EC79F0A1EC79F012001ECD
:10F41D00502002F3CF22F0F4CF23F01E502102F33F
:10F42D005023261F502002F350232622C01EF02306
:10F43D00C01FF01200206EA6EC79F07A0EE3EC7985
:10F44D00F02050E3EC79F01F28D8A403D0A1EC797B
:10F45D00F003D01F50E3EC79F0A1EC79F0120070BD
:10F46D000ED36E000E9B6E000E0F013D6F140E87B6
:10F47D006E0B0E1F6E260E1E6E5E0EE82EFED71E36
:10F48D002EFCD71F2EFAD71200BAEC79F0D7EC79F3
:10F49D00F0C6EC79F0340E336EF20EE82EFED73353
:10F4AD002EFCD77DEC7CF0D3EC7AF0010E1E6E01B4
:10F4BD000EF0EC79F0E70E286EFF0E296E6DEC7BE9
:10F4CD00F0FFD7180E7E6E980EAC6E240EAD6ECF7B
:10F4DD000EB06E000E7F6E000E1E6E000E1F6EB013
:10F4ED00EC79F0000E1E6E000E1F6EB5EC79F0007B
:10F4FD000E1E6E000E1F6EABEC79F0000E1D6E121F
:10F50D0000040E8D6E000E8C6E000E896E000E8A3C
:10F51D006E010E8B6EC30E966EEF0E926EDF0E9316
:10F52D006E960E946E9568800E0F01486F100E4901
:10F53D006FF18E968E968C000E426F000E416F000D
:10F54D000E406F1200326E95809582729E728A7295
:10F55D0050F00B0809726E719A7188000E246E249A
:10F56D000E256EF40E266E000E276E32C01EF01F95
:10F57D006A0F0E216EA00E206E0EEC7AF01EC028C2
:10F58D00F01FC029F0000E29BEFF0E2A6E2B6EADA6
:10F59D00EC7BF02404746E1200210E1F6E210E21DF
:10F5AD00EC7AF0000EFDEC79F07F0EFDEC79F02297
:10F5BD000E1F6E220E21EC7AF0000EFDEC79F00795
:10F5CD000EFDEC79F0A6EC79F07A0EE3EC79F040D3
:10F5DD000EE3EC79F0000E226E000E216E040E2269
:10F5ED005CD8B006D0000EE3EC79F0214A222AF661
:10F5FD00D7A1EC79F01200D20EF66EF90EF76E006F
:10F60D000EF86E00EEC4F014EE00F00900F5CFEE2A
:10F61D00FFE550E150FAE1E250F8E19D0EF66EF390
:10F62D000EF76E000EF86E00EE34F010EE11F009CC
:10F63D0000F5CFEEFFE550E150FAE100EE60F06429
:10F64D000EEE6AE806FDE100EE01F01D0EEE6AE831
:10F65D0006FDE1000EF86E00014BEF7AF0000E236F
:10F66D006E1FAE06D01E6C1F1ED8B01F2A010E23B2
:10F67D006E21AE04D0206C211ED8B0212A2050213D
:10F68D0010D8B418D0010E226E04D0D89020362197
:10F69D0036222A21AEFAD720501E5C21501F58D891
:10F6AD00A004D020501E5E21501F5AD89021322028
:10F6BD0032222EF1D72350D8B404D01E6C1F1ED881
:10F6CD00B01F2A1EC01EF01FC01FF01200000E2C0E
:10F6DD006E29D02C50010D28C02AF029C02BF0F333
:10F6ED00502A26F4502B222AC0F6FF2BC0F7FF0814
:10F6FD0000F550200AD8A403D04404D8B412D02C5D
:10F70D0050010D28C02AF029C02BF0F3502A26F401
:10F71D00502B222AC0F6FF2BC0F7FF0800F550131F
:10F72D00EC7CF02C2A2C50010D28C02AF029C02B7E
:10F73D00F0F3502A26F4502B222AC0F6FF2BC0F7E7
:10F74D00FF0800F5500009D8B41200C3D7000E2DE4
:10F75D006E2BAE0AD02B1E2A1E291E286C000E29D8
:10F76D00222A222B22010E2D6E27AE0AD0271E260D
:10F77D001E251E246C000E252226222722010E2D69
:10F78D001A000E2E6E000E2F6E000E306E000E3112
:10F79D006E285029102A102B10D8B42AD0010E2C07
:10F7AD006E06D0D890283629362A362B362C2A2BA1
:10F7BD00AEF8D7D8902E362F363036313628502425
:10F7CD005C295025582A5026582B502758D8A00967
:10F7DD00D02850245E2950255A2A50265A2B5027BE
:10F7ED005A2E80D8902B322A32293228322C2EE1F3
:10F7FD00D72D50D8B408D0311E301E2F1E2E6C00C0
:10F80D000E2F22302231222EC024F02FC025F030B1
:10F81D00C026F031C027F01200266E1F0E2664039D
:10F82D00D07E0E266402D03F0E266E210E1F6E2155
:10F83D000E21EC7AF04404060DF350FDEC79F04402
:10F84D0004060DF350040FFDEC79F0220E1F6E220D
:10F85D000E21EC7AF04304FDEC79F04304FDEC79D4
:10F86D00F0A6EC79F07A0EE3EC79F0400EE3EC794A
:10F87D00F0000E276E040E276401D01ED0E00E2678
:10F88D00241E6E1F6AFF0E1F22000E216E050E2014
:10F89D006E0EEC7AF027501E26000E1F22D30E1E80
:10F8AD0024F66EFD0E1F20F76E0800F5CF25F0250E
:10F8BD0050E3EC79F0272ADED7A1EC79F044C01E95
:10F8CD00F01F6A000E216E150E206E35EC7BF01EBA
:10F8DD0028446E4250D8B412004404D8A4120043F8
:10F8ED00C024F0070E24162428436E12008D843494
:10F8FD000E216EF20EE82EFED7212EFCD78D9434FC
:10F90D000E216EF20EE82EFED7212EFCD78D84AE81
:10F91D000E1F6EAE0E21EC7AF03F0E1F6EA80E215B
:10F92D00EC7AF0000E1F6ED30E21EC7AF08D0E1FC7
:10F93D006E8D0E21EC7AF0000E1F6E200E21EC7AEA
:10F94D00F0400E1F6E400E21EC7AF0A10E1F6EA13D
:10F95D000E21EC7AF0C80E1F6EC80E21EC7AF01253
:10F96D000E1F6EDA0E21EC7AF07F0E1F6E810E21C6
:10F97D00EC7AF0D90E1F6ED90E21EC7AF0400E1FE5
:10F98D006EDB0E21EC7AF0A40E1F6EA40E21EC7A24
:10F99D00F0A60E1F6EA60E21EC7AF0800E1F6ED50E
:10F9AD000E21EC7AF0140E1F6E8D0E21EC7AF02ED6
:10F9BD000E1F6E2E0E21EC7AF0AF0E1F6EAF0E21C4
:10F9CD00EC7AF012000000000000000000000000C2
:10F9DD00000000000000000000000000000000001A
:10F9ED00000000000000000000000000000000000A
:10F9FD0000000000000000000000000000000000FA
:10FA0D000000000080808000000000000000000069
:10FA1D000000000000008080C0C000000000000059
:10FA2D0000000000000000000000000000000000C9
:10FA3D0000000000000000000000000000000000B9
:10FA4D0000000000000000000000000000000000A9
:10FA5D0000000000000000000080C0E0F0F8FCF89D
:10FA6D00E0000000000000000000000000000000A9
:10FA7D0000008080808080008080000000008080F9
:10FA8D0080808000FFFFFF000000008080808000EC
:10FA9D00008080000080FFFF8080008080008080DB
:10FAAD0080800080800000000000808000008C8E2F
:10FABD0084000080F8F8F8800000000000000000CD
:10FACD000000000000F0F0F0F0F0F0F0F0F0F0F0D9
:10FADD00F0E0E0C08000E0FCFEFFFFFF7FFFFFFFD6
:10FAED00FFFF00000000000000000000000000000B
:10FAFD00FEFFC70101010183FFFF00007CFEC7016E
:10FB0D0001010183FFFFFF0038FEC783010101835F
:10FB1D00C7FFFF000001FFFF010100FFFF0701010B
:10FB2D000100007FFF80000000FFFF7F0000FFFF4E
:10FB3D00FF000001FFFFFF010000000000000000BA
:10FB4D000000000000030F3F7F7FFFFFFFFFFFFF5F
:10FB5D00FFE7C7C78F8F9FBFFFFFC3C0F0FFFFFF3A
:10FB6D00FFFFFCFCFCFCFCFCFCFCF8F8F0F0E0C03A
:10FB7D00000103030303030103030000000001035D
:10FB8D00030303010103010000000103030303014B
:10FB9D000103030000000303000000030300000045
:10FBAD000000000001030303030301000000010333
:10FBBD000100000003030100000000000000000030
:10FBCD00000000000000000080C0E0F0F9FFFFFF22
:10FBDD00FFFF3F1F0F87C7F7FFFF1F1F3DFCF8F803
:10FBED00F8F87C7DFFFFFFFFFFFFFFFF7F3F0F0753
:10FBFD000030300000000000000000000000000098
:10FC0D00000000000000000000FEFEFC00000000EF
:10FC1D0000000000000000000000000000000000D7
:10FC2D000000E0C0000000000000000000000030F7
:10FC3D003000000000000000000000000000000087
:10FC4D00000000000000C0FEFFFFFFFFFFFFFFFFF1
:10FC5D00FF7F7F3F1F0F071F7FFFFFF8F8FFFFFF9D
:10FC6D00FFFFFEF8E00000000100000000000000B2
:10FC7D0000FEFE000000FCFEFC0C06060EFCF8006B
:10FC8D0000F0F81C0E0606060CFFFFFF0000FEFE3E
:10FC9D0000000000FCFEFC00183C7E66E6CE8400F1
:10FCAD000006FFFF0606FCFEFC0C0606060000FE25
:10FCBD00FE0000C0F8FC4E4646464E7C7840183C8F
:10FCCD0076E6CECC800000000000000000000000B1
:10FCDD0000000000000000000001070F1F1F3F3F44
:10FCED003F3F1F0F03000000000000000000000058
:10FCFD00000F0F0000000F0F0F000000000F0F008E
:10FD0D000003070E0C18180C060F0F0F0000010F43
:10FD1D000E0C180C0F070100040E0C180C0F070029
:10FD2D0000000F0F00000F0F0F0000000000000F6C
:10FD3D000F00000007070C0C181C0C060600040E23
:10FD4D000C180C0F07000000000000000000000060
:10FD5D000000000000000000000000000000000096
:10FD6D000000000000000000000000000000000086
:10FD7D000000000000000000000000000000000076
:10FD8D000000000000000000000000000000000066
:10FD9D000000000000000000000000000000000056
:10FDAD000000000000000000000000000000000046
:10FDBD000000000000000000000000000000000036
:10FDCD00000000000000000000000000005F0000C7
:10FDDD000007000700147F147F14242A7F2A1223A2
:10FDED001308646236495620500008070300001CB2
:10FDFD002241000041221C002A1C7F1C2A08083EBB
:10FE0D0008080080703000080808080800006060CD
:10FE1D000020100804023E5149453E00427F40003B
:10FE2D0072494949462141494D331814127F102713
:10FE3D00454545393C4A4949314121110907364962
:10FE4D00494936464949291E000014000000403436
:10FE5D00000000081422411414141414004122143B
:10FE6D000802015909063E415D594E7C1211127C62
:10FE7D007F494949363E414141227F4141413E7FC3
:10FE8D00494949417F090909013E414151737F08A3
:10FE9D0008087F00417F41002040413F017F081449
:10FEAD0022417F404040407F021C027F7F040810AA
:10FEBD007F3E4141413E7F090909063E4151215E88
:10FECD007F09192946264949493203017F01033F1C
:10FEDD004040403F1F2040201F3F4038403F6314AB
:10FEED0008146303047804036159494D43007F41AD
:10FEFD0041410204081020004141417F04020102EA
:10FF0D00044040404040000307080020545478400E
:10FF1D007F284444383844444428384444287F38A2
:10FF2D005454541800087E090218A4A49C787F0824
:10FF3D0004047800447D40002040403D007F10289F
:10FF4D00440000417F40007C047804787C08040460
:10FF5D00783844444438FC1824241818242418FCF8
:10FF6D007C08040408485454542404043F44243C9D
:10FF7D004040207C1C2040201C3C4030403C44280C
:10FF8D001028444C9090907C4464544C44000836A6
:10FF9D004100000077000000413608000201020414
:10FFAD000200803F72313FFE753E58633D951D3C0A
:10FFBD00C5AE3A79213994803793A735561534005B
:10FFCD00000000803FF0FFBEE2A93E8376BEAE2B5F
:10FFDD003E3CC3BDD2133D78D3BB4F4C454420446A
:0AFFED004953504C41590020000018
:08FFF800BEF4F4FFFFFFBFF3AC
:00000001FF
