:040000009EEF08F077
:100F00000000803F72313FFE753E58633D951D3CA9
:100F1000C5AE3A79213994803793A73556153400F8
:100F2000000000803FF0FFBEE2A93E8376BEAE2BFC
:0B0F30003E3CC3BDD2133D78D3BB0094
:100F3C00000E106E0EAE0AD00E1E0D1E0C1E0B6C8B
:100F4C00000E0C220D220E22010E106E0AAE0AD0DB
:100F5C000A1E091E081E076C000E082209220A220E
:100F6C00010E101A000E116E000E126E000E136E92
:100F7C00000E146E0B500C100D100E10D8B42AD09D
:100F8C00010E0F6E06D0D8900B360C360D360E3681
:100F9C000F2A0EAEF8D7D8901136123613361436F7
:100FAC000B50075C0C5008580D5009580E500A583D
:100FBC00D8A009D00B50075E0C50085A0D50095A96
:100FCC000E500A5A1180D8900E320D320C320B3260
:100FDC000F2EE1D71050D8B408D0141E131E121EB9
:100FEC00116C000E12221322142211C007F012C031
:100FFC0008F013C009F014C00AF0120025EC09F037
:10100C000AEC09F0340E166EF20EE82EFED7162EF0
:10101C00FCD7FF0EEEEC08F0FF0EEEEC08F0DBEC6C
:10102C0008F016EC09F081A0FED7340E166EF20E05
:10103C00E82EFED7162EFCD781B0F5D78AAA02D09F
:10104C00010E01D0000EFF0A166E163A16468A5093
:10105C001618DF0B16188A6EE6D7156E95809582DA
:10106C00729E728A7250F00B0809726E719A7188B6
:10107C00000E076E240E086EF40E096E000E0A6E3A
:10108C0015C001F0026A0F0E046EA00E036EC8ECC0
:10109C0008F001C00BF002C00CF0000E0CBEFF0EED
:1010AC000D6E0E6E9EEC07F00704746E1200000EAF
:1010BC008D6E000E8C6E000E896E000E8A6E010E07
:1010CC008B6EC70E966EEF0E926EDF0E936E960EB3
:1010DC00946E9568000E0F01486F100E496FF18EDB
:1010EC00968E968C000E426F000E416F000E406F74
:1010FC001200180E7E6E980EAC6E240EAD6ECF0ED6
:10110C00B06E000E7F6E000E016E000E026E2FECA4
:10111C0009F0000E016E000E026E2AEC09F0000EB2
:10112C00016E000E026E34EC09F0000E2B6E1200F4
:10113C0001EE00F011EE00F0EE6AE550E150FCE13A
:10114C00E250FAE100EE17F0150EEE6AE806FDE14A
:10115C00000EF86E000104EF08F0700ED36E000E56
:10116C009B6E000E0F013D6F140E876E0B0E026E00
:10117C00260E016E5E0EE82EFED7012EFCD7022E37
:10118C00FAD7120001500302F3CF05F0F4CF06F0AA
:10119C0001500402F350062602500302F3500626B7
:1011AC0005C001F006C002F012003EEC09F0400E42
:1011BC00FDEC08F0090EFDEC08F039EC09F0410EDD
:1011CC00FDEC08F048EC09F043EC09F07550120006
:1011DC00026E3EEC09F0400EFDEC08F0000EFDEC4A
:1011EC0008F00250FDEC08F043EC09F01200016E1F
:1011FC0001C075FF73A0FED7A4AEFED7A49E71AC40
:10120C00120043EC09F012005DEC08F0B3EC08F0AE
:10121C001EEC09F07FEC08F0640E33EC08F01200C1
:10122C00016E9EA8FED7ADA2FED701C0AEFF120084
:10123C00800EC76E200EC66E000EC86E1200F28EA7
:10124C00F28CA38EA49E120001C027F002C028F0DD
:10125C00120001C029F002C02AF0120001C025F0D2
:10126C0002C026F01200718271B2FED7A49E120049
:10127C00718071B0FED7A49E1200718471B4FED738
:0C128C00A49E1200718673B01200FDD702
:08FFF800BEF4F4FFFFFFBFF3AC
:00000001FF
