:0400000095EF10F078
:100F00000000803F72313FFE753E58633D951D3CA9
:100F1000C5AE3A79213994803793A73556153400F8
:100F2000000000803FF0FFBEE2A93E8376BEAE2BFC
:0D0F30003E3CC3BDD2133D78D3BB0D000085
:100F3E0049504A104B10D8A407D0000E496E800EAF
:100F4E004A6E3F0E4B6E1200720E016E310E026E25
:100F5E00440E036E49C004F04AC005F04BC006F0C3
:100F6E00DFEC0EF0D8B00CD0000E0001756F220E23
:100F7E00746FFF0E496E7F0E4A6E7F0E4B6E12001F
:100F8E0049C001F04AC002F04BC003F0490E046E96
:100F9E003A0E056EC40E066EDFEC0EF0D8B00CD015
:100FAE00000E0001756F220E746F000E496E000E5A
:100FBE004A6E000E4B6E12004BAE02D0010E01D0E7
:100FCE00000E516E5150D8B40ED049C001F04AC037
:100FDE0002F04BC003F0D5EC10F001C049F002C096
:100FEE004AF003C04BF049C00DF04AC00EF04BC0A2
:100FFE000FF0AA0E106EB80E116E3F0E126EB2ECFE
:10100E000BF00DC049F00EC04AF00FC04BF049C0B6
:10101E0041F04AC042F04BC043F09FEC0CF041C08F
:10102E004CF042C04DF043C04EF04CC028F04DC0C5
:10103E0029F04EC02AF038EC0BF028C04FF029C032
:10104E0050F049C028F04AC029F04BC02AF04FC0DA
:10105E0009F050C00AF060EC10F009C02BF00AC085
:10106E002CF00BC02DF021EC10F028C049F029C057
:10107E004AF02AC04BF049C028F04AC029F04BC0B4
:10108E002AF0010E2B6E0F0E2C6E000E2E6E090E18
:10109E002D6E0EEC0DF028C034F029C035F02AC0AC
:1010AE0036F04FC037F050C038F0DDEC0DF034C0E4
:1010BE0049F035C04AF036C04BF05150D8B425D067
:1010CE0049280EE17F0E4A180BE17F0E4B18D8A46B
:1010DE0007D0000E496E000E4A6E000E4B6E1200C7
:1010EE00000E096E800E0A6E3F0E0B6E49C00CF09C
:1010FE004AC00DF04BC00EF02CEC0CF009C049F0BC
:10110E000AC04AF00BC04BF0120049C049F04AC069
:10111E004AF04BC04BF012001EC022F0236A246A24
:10112E001D34223601E323802250276E21C022F087
:10113E00236A246A2034223601E323802250266E4D
:10114E002750D8B40BD02650275CD8B00ED02750DD
:10115E0000082624226E180E226407D01FC01CF031
:10116E0020C01DF021C01EF012002650D8B40BD0A6
:10117E002750265CD8B00ED0265000082724226EA9
:10118E00180E226407D01CC01CF01DC01DF01EC01E
:10119E001EF01200060E256E1EBE258E21BE258C5B
:1011AE001D8EFF0E1C16FF0E1D16000E1E16208E17
:1011BE00FF0E1F16FF0E2016000E21162650275C5E
:1011CE00D8B01BD0D8901F36203621362606275091
:1011DE002618D8B40DD0250625C022F0070E2216EB
:1011EE00D8B406D0EFD7D8901E321D321C32272A23
:1011FE0026502718D8B41FD0F6D72750265CD8B063
:10120E001AD0D8901C361D361E36270627502618A3
:10121E00D8B40DD0250625C022F0070E2216D8B45C
:10122E0006D0EFD7D890213220321F32262A2650F0
:10123E002718D8A4F7D725AE0CD0FF0E1C1AFF0E18
:10124E001D1AFF0E1E1A010E1C26000E1D22000E68
:10125E001E2225AC0CD0FF0E1F1AFF0E201AFF0EF9
:10126E00211A010E1F26000E2022000E2122000E32
:10127E00256E1C501F261D5020221E50212221AEED
:10128E000ED0FF0E1F1AFF0E201AFF0E211A010E8E
:10129E001F26000E2022000E2122010E256E1FC0D9
:1012AE0001F020C002F021C003F027C004F025C0D9
:1012BE0005F040EC0EF001C01CF002C01DF003C0A2
:1012CE001EF01200000E0001826F52505310541087
:1012DE00D8A41CD0000E016E000E026E000E036E1E
:1012EE0055C004F056C005F057C006F0DFEC0EF006
:1012FE00D8A005D0000E0001756F210E746F000E80
:10130E00526E000E536E000E546E12005550561053
:10131E005710D8A407D0000E526E800E536E3F0E9B
:10132E00546E120054AE42D055C028F056C029F06B
:10133E0057C02AF038EC0BF028C083F029C084F097
:10134E002AC085F02BC086F083C009F084C00AF055
:10135E0085C00BF086C00CF0A7EC0FF055500918A5
:10136E0007E156500A1804E157500B18D8B40CD0A8
:10137E00000E0001756F210E746F000E526E000E7E
:10138E00536E000E546E120000018351010B826FDA
:10139E0052C001F053C002F054C003F0D5EC10F06F
:1013AE0001C052F002C053F003C054F052C034F0EA
:1013BE0053C035F054C036F027EC0AF034C07CF040
:1013CE0035C07DF036C07EF07CC00DF07DC00EF0D5
:1013DE007EC00FF055C010F056C011F057C012F07D
:1013EE00B2EC0BF00DC07FF00EC080F00FC081F09C
:1013FE007FC049F080C04AF081C04BF09FEC07F0EF
:10140E0049C052F04AC053F04BC054F00001825113
:10141E00D8B40FD052C001F053C002F054C003F044
:10142E00D5EC10F001C052F002C053F003C054F0DE
:10143E00120052C052F053C053F054C054F0120078
:10144E0036AE0CD0000E0001756F210E746F000EBB
:10145E00346E000E356E000E366E1200345035109E
:10146E003610D8A40CD0000E0001756F220E746FCA
:10147E00000E346E000E356E000E366E1200000E2B
:10148E00106E000E116E400E126E370E046E000EB0
:10149E00056E34C001F035C002F036C003F097EC93
:1014AE000EF001C00DF002C00EF003C00FF0B2EC52
:1014BE000BF00DC01CF00EC01DF00FC01EF0000E84
:1014CE001F6E800E206EBF0E216E93EC08F01CC0B6
:1014DE0034F01DC035F01EC036F03706D8A03806E1
:1014EE0034C028F035C029F036C02AF01F0E2B6EFE
:1014FE000F0E2C6E000E2E6E080E2D6E0EEC0DF0D5
:10150E0028C034F029C035F02AC036F0720E106EA5
:10151E00310E116E3F0E126E37C009F038C00AF050
:10152E0060EC10F009C00DF00AC00EF00BC00FF009
:10153E00B2EC0BF00DC01CF00EC01DF00FC01EF073
:10154E0034C01FF035C020F036C021F093EC08F007
:10155E001CC034F01DC035F01EC036F01200000164
:10156E008D6F000E556EE00E566E400E576E000ECD
:10157E00526E000E536E400E546E69EC09F052C05E
:10158E0087F053C088F054C089F0000E556EE00EFF
:10159E00566E400E576E000E526E000E536E400E7B
:1015AE00546E69EC09F052C08AF053C08BF054C0EF
:1015BE008CF087C001F088C002F089C003F0D5EC32
:1015CE0010F001C01FF002C020F003C021F08AC04D
:1015DE0010F08BC011F08CC012F000018D51E7ECB1
:1015EE0010F009C00DF00AC00EF00BC00FF0B2ECF7
:1015FE000BF00DC01CF00EC01DF00FC01EF093ECD2
:10160E0008F01CC028F01DC029F01EC02AF038ECCE
:10161E000BF028C08EF029C08FF041EC11F0A00E17
:10162E00F9EC10F000018F51F9EC10F000018E5121
:10163E00F9EC10F0000E0001916F000E906F91BF4B
:10164E0006D091510BE1800E905DD8B007D0585066
:10165E00F9EC10F00001904B912BF1D74BEC11F0FF
:10166E0012002AC02CF02D6A2E6A29342C3601E382
:10167E002D802C50366E3650D8A409D0000E286E10
:10168E00000E296E000E2A6E000E2B6E1200170E23
:10169E002C6E28C02DF029C02EF02AC02FF02C2839
:1016AE00306E04D0D8902F322E322D32302EFAD703
:1016BE002D50316E298EFF0E2816FF0E2916000EA4
:1016CE002A162850326E2950336E2A50346E356ADF
:1016DE008E0E365E36AE16D03650800A8F0FD8B0CC
:1016EE0009D0000E286E000E296E000E2A6E000E16
:1016FE002B6E1200D8903532343233323232363EBF
:10170E00F9D715D0170E36640FD0000E286E000EC6
:10171E00296E000E2A6E000E2B6E1200D8903236F5
:10172E0033363436353636063650D8A4F7D73150E0
:10173E00D8B408D0351E341E331E326C000E332240
:10174E003422352232C028F033C029F034C02AF0BA
:10175E0035C02BF012000FC013F0146A156A0E3448
:10176E00133601E314801350166E1650D8A407D00A
:10177E00000E0D6E000E0E6E000E0F6E120012C0D9
:10178E0013F0146A156A1134133601E314801350E2
:10179E001B6E1B50D8A407D0000E0D6E000E0E6EE1
:1017AE00000E0F6E12001B507B0F16260FC01BF083
:1017BE0012501B1A800E1B160E8E118EFF0E101657
:1017CE00FF0E1116000E1216000E176E000E186E7A
:1017DE00000E196E070E1A6E0DA006D010501726A9
:1017EE001150182212501922D8900F320E320D328B
:1017FE00D8901036113612361A2EEED7090E1A6EF2
:10180E000DA006D010501726115018221250192272
:10181E00D8900F320E320D32D8901932183217324C
:10182E001A2EEED717C001F018C002F019C003F03F
:10183E0016C004F01BC005F040EC0EF001C00DF018
:10184E0002C00EF003C00FF012000BC00FF0106AB2
:10185E00116A0A340F3601E310800F50166E1650BF
:10186E00D8A407D0000E096E000E0A6E000E0B6E85
:10187E0012000EC00FF0106A116A0D340F3601E31C
:10188E0010800F50176E1750D8A407D0000E096E97
:10189E00000E0A6E000E0B6E1200000E136E000E7E
:1018AE00146E000E156E1750890F165E0BC017F0D2
:1018BE000E50171A800E17160A8EFF0E0916FF0EFF
:1018CE000A16000E0B160D8EFF0E0C16FF0E0D16C1
:1018DE00000E0E16180E126ED890133614361536DC
:1018EE000C50095C0D500A580E500B58D8A007D05A
:1018FE000C50095E0D500A5A0E500B5A1380D89098
:10190E0009360A360B36122EE7D713C001F014C073
:10191E0002F015C003F016C004F017C005F040EC3D
:10192E000EF001C009F002C00AF003C00BF0120065
:10193E0041C001F042C002F043C003F0470E046EF6
:10194E00000E056E97EC0EF048AE10D043AE07D0E9
:10195E00000E416E800E426EBF0E436E1200000EE0
:10196E00416E000E426E000E436E1200485004E1AE
:10197E00150E475CD8A007D041C041F042C042F0DE
:10198E0043C043F0120041C028F042C029F043C0CA
:10199E002AF038EC0BF028C037F029C038F02AC0F6
:1019AE0039F02BC03AF06BEC0FF037C044F038C072
:1019BE0045F039C046F041C001F042C002F043C0CC
:1019CE0003F044C004F045C005F046C006F0DFEC5D
:1019DE000EF0D8B015D044C01CF045C01DF046C066
:1019EE001EF0000E1F6E800E206EBF0E216E93EC49
:1019FE0008F01CC041F01DC042F01EC043F01200A2
:101A0E0044C041F045C042F046C043F012002DC024
:101A1E0001F02EC002F0000E046E030E036EC2EC37
:101A2E0010F02BC02FF02CC030F001502F2602509A
:101A3E0030222FC0F6FF30C0F7FF0900F5CF31F08E
:101A4E000900F5CF32F00A00F5CF33F03ED031C0A9
:101A5E0010F032C011F033C012F028C00DF029C0C2
:101A6E000EF02AC00FF0B2EC0BF00DC01CF00EC041
:101A7E001DF00FC01EF0000E046E030E036E2D0639
:101A8E00D8A02E062DC001F02EC002F0C2EC10F030
:101A9E002BC02FF02CC030F001502F2602503022D8
:101AAE002FC0F6FF30C0F7FF0900F5CF1FF0090079
:101ABE00F5CF20F00A00F5CF21F093EC08F01CC012
:101ACE0031F01DC032F01EC033F02D502E10D8A4B0
:101ADE00BED731C028F032C029F033C02AF0120030
:101AEE00000E106E0EAE0AD00E1E0D1E0C1E0B6CCE
:101AFE00000E0C220D220E22010E106E0AAE0AD01E
:101B0E000A1E091E081E076C000E082209220A2250
:101B1E00010E101A000E116E000E126E000E136ED4
:101B2E00000E146E0B500C100D100E10D8B42AD0DF
:101B3E00010E0F6E06D0D8900B360C360D360E36C3
:101B4E000F2A0EAEF8D7D890113612361336143639
:101B5E000B50075C0C5008580D5009580E500A587F
:101B6E00D8A009D00B50075E0C50085A0D50095AD8
:101B7E000E500A5A1180D8900E320D320C320B32A2
:101B8E000F2EE1D71050D8B408D0141E131E121EFB
:101B9E00116C000E12221322142211C007F012C073
:101BAE0008F013C009F014C00AF0120034503510BA
:101BBE003610D8A407D0000E346E000E356E000E0F
:101BCE00366E120036507F0B396E3A6AD89039361F
:101BDE003A36395037263A50382235AE03D0396A64
:101BEE00392A01D0396A39503726000E382238AEDC
:101BFE000CD0000E0001756F220E746F000E346E45
:101C0E00000E356E000E366E120038BE16D0380439
:101C1E00D8A013D0000E0001756F220E746F36AE71
:101C2E0006D0FF0E346E7F0E356EFF0EECD7FF0E14
:101C3E00346E7F0E356E7F0EE6D7383438303A6EFE
:101C4E003730396E36503918800B3918366E37C02A
:101C5E0039F0010E391639323932355039187F0BB9
:101C6E003918356E34C034F035C035F036C036F024
:101C7E0012000450D8B405D0015002100310D8A49D
:101C8E000CD0000E016E000E026E000E036E1200DE
:101C9E00042AD890033202320132000E0114066E6D
:101CAE00000E0214076EFE0E0314086E0650071087
:101CBE000810D8B40CD0ECD7042A010E0126000E61
:101CCE000222000E0322D890033202320132000E9D
:101CDE000114066E000E0214076EFF0E0314086E3A
:101CEE00065007100810D8B406D0E6D70406D890D0
:101CFE0001360236033602BE03D0020E0460F6D75A
:101D0E0004A0029ED8900432045003120550D8A4A9
:101D1E00038E01C001F002C002F003C003F01200F6
:101D2E00015002100310D8A40FD004C0D9FF05C073
:101D3E00DAFF000EDE6E000EDD6E000E016E000E7E
:101D4E00026E000E036E120003507F0B066E076AC2
:101D5E00D8900636073604C0D9FF05C0DAFF06C094
:101D6E00DEFF07C0DDFF02AE03D0066A062A01D0F1
:101D7E00066A065004C0D9FF05C0DAFFDE12000E57
:101D8E00DD1204C0D9FF05C0DAFF820EDE26FF0E7B
:101D9E00DD2203800382038403860388038A039C67
:101DAE00029E01C001F002C002F003C003F0120057
:101DBE0003AE16D001C007F002C008F003C009F050
:101DCE00071E081E091E072A000E08220922000EF1
:101DDE000724016E000E0820026E800E0920036E8D
:101DEE0006AE16D004C007F005C008F006C009F014
:101DFE00071E081E091E072A000E08220922000EC1
:101E0E000724046E000E0820056E800E0920066E53
:101E1E00000E011A000E021A800E031A000E041A8A
:101E2E00000E051A800E061A0450015C0550025869
:101E3E0006500358D8B002D0D8901200D8801200A5
:101E4E002DEC11F006EC11F01EEC11F0000E596E97
:101E5E00A40E586E030EB6EC0AF01A0E5A6EF80E59
:101E6E00E82EFED75A2EFCD700D0000E046E010EBF
:101E7E00036E000E066E7E0E056E7CEC10F00B0EE1
:101E8E005B6E260E5A6E5E0EE82EFED75A2EFCD7CD
:101E9E005B2EFAD781A0F3D7340E5A6EF20EE82ECF
:101EAE00FED75A2EFCD781B0EAD78AAA02D0010EED
:101EBE0001D0000EFF0A5A6E5A3A5A468A505A18E4
:101ECE00DF0B5A188A6EDBD7000E406E8E0E3F6EF9
:101EDE003AAE11D03A1E391E381E376C000E38221B
:101EEE0039223A22010E406E06D0D8903A3239325B
:101EFE00383237323F2A000E37143B6E000E38143C
:101F0E003C6E000E39143D6EFF0E3A143E6E3B5081
:101F1E003C103D103E10D8A4E8D737C001F038C0B1
:101F2E0002F039C003F03FC004F040C005F040ECB1
:101F3E000EF001C037F002C038F003C039F01200C5
:101F4E008E0E116E06D0D8900C320B320A32093238
:101F5E00112A000E09140D6E000E0A140E6E000EDC
:101F6E000B140F6EFF0E0C14106E0D500E100F1082
:101F7E001010D8A4E8D709C001F00AC002F00BC0B7
:101F8E0003F011C004F0000E056E40EC0EF001C01F
:101F9E0009F002C00AF003C00BF01200156E958016
:101FAE009582729E728A7250F00B0809726E719A47
:101FBE007188000E076E240E086EF40E096E000E68
:101FCE000A6E15C001F0026A0F0E046EA00E036EAB
:101FDE00C2EC10F001C00BF002C00CF0000E0CBEF3
:101FEE00FF0E0D6E0E6E77EC0DF00704746E120080
:101FFE00000E8D6E000E8C6E000E896E000E8A6EB7
:10200E00010E8B6EC70E966EEF0E926EDF0E936EF6
:10201E00960E946E9568000E0F01486F100E496F64
:10202E00F18E968E968C000E426F000E416F000E52
:10203E00406F12002B502C102D10D8B406D0000E6D
:10204E002B1A000E2C1A800E2D1A28C01CF029C037
:10205E001DF02AC01EF02BC01FF02CC020F02DC08A
:10206E0021F093EC08F01CC028F01DC029F01EC012
:10207E002AF01200180E7E6E980EAC6E240EAD6E07
:10208E00CF0EB06E000E7F6E000E016E000E026E51
:10209E0037EC11F0000E016E000E026E32EC11F0F4
:1020AE00000E016E000E026E3CEC11F0000E5E6E24
:1020BE001200000E0C6E0AAE06D0096C0A1ED8B0C5
:1020CE000A2A010E0C6E09C001F00AC002F0036A62
:1020DE008E0E046E0CC005F040EC0EF001C009F03F
:1020EE0002C00AF003C00BF0120041EC11F0A00E7A
:1020FE00F9EC10F00350F9EC10F00550F9EC10F07B
:10210E0046EC11F0A10EF9EC10F0000E026E010E6D
:10211E00016E12EC11F04BEC11F0120001EE00F01A
:10212E0011EE00F0EE6AE550E150FCE1E250FAE10A
:10213E0000EE60F01C0EEE6AE806FDE15E6A5D6A76
:10214E005C6A000EF86E000127EF0FF0700ED36E72
:10215E00000E9B6E000E0F013D6F140E876E0B0E60
:10216E00026E260E016E5E0EE82EFED7012EFCD7F5
:10217E00022EFAD7120001500302F3CF05F0F4CF6E
:10218E0006F001500402F350062602500302F350EB
:10219E00062605C001F006C002F012000150021022
:1021AE000310D8B406D0000E011A000E021A800ECB
:1021BE00031A01C001F002C002F003C003F01200C6
:1021CE000C6E0C50016E026A036A8E0E046E000EC7
:1021DE00056E40EC0EF001C009F002C00AF003C01B
:1021EE000BF01200016E01C075FF73A0FED7A4AEF6
:1021FE00FED7A49E71AC12004BEC11F01200FFEC56
:10220E000FF0ADEC10F026EC11F041EC10F0640E76
:10221E00D5EC0FF01200718673A0FED701B002D07C
:10222E00719A01D0718A71B8FED77550120041ECC7
:10223E0011F0000EF9EC10F04BEC11F01200800EC4
:10224E00C76E200EC66E000EC86E1200F28EF28C95
:10225E00A38EA49E120001C078F002C079F0120085
:10226E0001C07AF002C07BF0120001C076F002C00D
:10227E0077F01200718071B0FED7A49E12007182A9
:10228E0071B2FED7A49E1200718471B4FED7A49EC3
:02229E0012002C
:08FFF800BEF4F4FFFFFFBFF3AC
:00000001FF
