:04000000B0EF73F0FA
:10E084000101718471B4FED7A49E1200718071B035
:10E09400FED7A49E1200718271B2FED7A49E120014
:10E0A40001C09DF002C09EF0120001C0A1F002C0A8
:10E0B400A2F0120001C09FF002C0A0F01200F28E84
:10E0C400F28CA38EA49E1200800EC76E200EC66E24
:06E0D400000EC86E1200F0
:10E0DB0003000400050000000607080900010148C1
:10E0EB00EC70F0000E95EC70F043EC70F0120071D8
:10E0FB008673A0FED701B002D0719A01D0718A71DC
:10E10B008871A81200FDD794EC71F0D9EC70F06611
:10E11B00EC70F074EC71F0900E03EC72F0120001E5
:10E12B006E01C075FF73A0FED7A4AEFED7A49E717F
:10E13B00AC120043EC70F012000C6E0C50016E022E
:10E14B006A036A8E0E046E000E056EB7EC74F00156
:10E15B00C009F002C00AF003C00BF012000150021C
:10E16B00100310D8B406D0000E011A000E021A804C
:10E17B000E031A01C001F002C002F003C003F0123B
:10E18B000001500302F3CF05F0F4CF06F001500469
:10E19B0002F350062602500302F350062605C00177
:10E1AB00F006C002F01200700ED36E000E9B6E00D4
:10E1BB000E0F013D6F140E876E0B0E026E260E01B5
:10E1CB006E5E0EE82EFED7012EFCD7022EFAD7126A
:10E1DB0000046E48EC70F0AE0E95EC70F0045095A8
:10E1EB00EC70F0025095EC70F043EC70F0340E03D1
:10E1FB006EF20EE82EFED7032EFCD71200036E48EC
:10E20B00EC70F0AE0E95EC70F0035095EC70F04D99
:10E21B00EC70F0AF0E95EC70F0000E026E010E017B
:10E22B006E7DEC70F043EC70F075501200000E0C2C
:10E23B006E0AAE06D0096C0A1ED8B00A2A010E0C63
:10E24B006E09C001F00AC002F0036A8E0E046E0C58
:10E25B00C005F0B7EC74F001C009F002C00AF0037E
:10E26B00C00BF0120009C001F00AC002F0000E044E
:10E27B006E0A0E036E8EEC72F001C00BF002C00C36
:10E28B00F009C001F00AC002F0000E046E0A0E0382
:10E29B006E30EC74F00138F00B0B1012002B502C7D
:10E2AB00102D10D8B406D0000E2B1A000E2C1A808D
:10E2BB000E2D1A28C01CF029C01DF02AC01EF02BF1
:10E2CB00C01FF02CC020F02DC021F050EC7AF01CB8
:10E2DB00C028F01DC029F01EC02AF01200180E7EB7
:10E2EB006E980EAC6E240EAD6ECF0EB06E000E7F20
:10E2FB006E000E016E000E026E57EC70F0000E01F8
:10E30B006E000E026E5CEC70F0000E016E000E02E1
:10E31B006E52EC70F0000E0001A36F1200040E8D14
:10E32B006E000E8C6E000E896E000E8A6E010E8BC7
:10E33B006EC30E966EEF0E926EDF0E936E960E946C
:10E34B006E9568800E0F01486F100E496FF18E9617
:10E35B008E968C000E426F000E416F000E406F12B6
:10E36B0000790E0E6E000E0F6E73C010F074C0119C
:10E37B00F075C012F076C013F077C014F078C015AA
:10E38B00F007EC78F0790E016E000E026E0A0E03A8
:10E39B006EC6EC72F0F50E016EFF0E026E020E03EE
:10E3AB006EC6EC72F01200116E48EC70F0DE0E953A
:10E3BB00EC70F0000E95EC70F0800E0EC00FF010AC
:10E3CB006A0F10096E10500A6E38EC71F095EC70F4
:10E3DB00F00DC009F00A6A38EC71F095EC70F01191
:10E3EB00C00FF01F0E0F160F50096E0A6A38EC7132
:10E3FB00F095EC70F043EC70F01200156E95809573
:10E40B0082729E728A7250F00B0809726E719A7149
:10E41B0088000E076E240E086EF40E096E000E0AAD
:10E42B006E15C001F0026A0F0E046EA00E036EC6CD
:10E43B00EC70F001C00BF002C00CF0000E0CBEFF34
:10E44B000E0D6E0E6E73EC75F00704746E12008E6B
:10E45B000E116E06D0D8900C320B320A32093211E3
:10E46B002A000E09140D6E000E0A140E6E000E0B10
:10E47B00140F6EFF0E0C14106E0D500E100F1010AB
:10E48B0010D8A4E8D709C001F00AC002F00BC003F2
:10E49B00F011C004F0000E056EB7EC74F001C0096A
:10E4AB00F002C00AF003C00BF01200055006100773
:10E4BB00100810D8B424D0010E096E06D0D89005E0
:10E4CB0036063607360836092A08AEF8D705500146
:10E4DB005C065002580750035808500458D8A0083F
:10E4EB00D00550015E0650025A0750035A085004DB
:10E4FB005AD8900832073206320532092EE7D70177
:10E50B00C001F002C002F003C003F004C004F0121B
:10E51B0000000E066E02AE06D0016C021ED8B002D1
:10E52B002A010E066E04AE04D0036C041ED8B00490
:10E53B002A03500410D8B418D0010E056E04D0D89D
:10E54B009003360436052A04AEFAD70350015C0457
:10E55B00500258D8A004D00350015E0450025AD880
:10E56B009004320332052EF1D70650D8B404D001F3
:10E57B006C021ED8B0022A01C001F002C002F012D8
:10E58B0000000E066E31D006500124046E000E0200
:10E59B0020056E04C0F6FF05C0F7FFF86A000E06F3
:10E5AB0024D96EDA6A010EDA220E0EF76403D00854
:10E5BB0000F55005D0F6CFE9FFF7CFEAFFEF50DFBC
:10E5CB006E000E0624D96EDA6A010EDA22DF50D8FD
:10E5DB00B40AD0ADA2FED7000E0624D96EDA6A01BA
:10E5EB000EDA22DF50AE6E062A0350065CD8B0124C
:10E5FB0000CAD703AE0FD0000E076E000E086E8058
:10E60B000E096E0150075C016E02500858026E0332
:10E61B00500958036E06AE0FD0000E076E000E08A1
:10E62B006E800E096E0450075C046E055008580589
:10E63B006E06500958066E000E011A000E021A8063
:10E64B000E031A000E041A000E051A800E061A0489
:10E65B0050015C0550025806500358D8B002D0D870
:10E66B00901200D880120061EC70F089EC70F0759C
:10E67B00EC70F0340E5D6EF20EE82EFED75D2EFCC4
:10E68B00D7460E056E380E066E030E076E000E088B
:10E69B006E040E096E080E24EC7BF0290E0D6E0035
:10E6AB000E0E6E0F0ED9EC71F0000E596E010E5856
:10E6BB006E000E5B6E040E5A6E82EC78F058C073CF
:10E6CB00F059C074F05AC075F05BC076F0000E00C4
:10E6DB0001786F0A0E776FB6EC71F0FFD7000E4022
:10E6EB006E8E0E3F6E3AAE11D03A1E391E381E3763
:10E6FB006C000E382239223A22010E406E06D0D819
:10E70B00903A323932383237323F2A000E37143BC7
:10E71B006E000E38143C6E000E39143D6EFF0E3A2F
:10E72B00143E6E3B503C103D103E10D8A4E8D7373A
:10E73B00C001F038C002F039C003F03FC004F04014
:10E74B00C005F0B7EC74F001C037F002C038F0032D
:10E75B00C039F01200E00EF66EF90EF76E000EF8EF
:10E76B006E01EE64F014EE00F00900F5CFEEFFE55C
:10E77B0050E150FAE1E250F8E1DB0EF66EE00EF7F5
:10E78B006E000EF86E00EEA4F010EE0FF00900F51F
:10E79B00CFEEFFE550E150FAE1840EF66EE00EF796
:10E7AB006E000EF86E0900F5CF5EF00900F5CF5F35
:10E7BB00F001EE00F0640EEE6AE806FDE100EE8378
:10E7CB00F0210EEE6AE806FDE1000EF86E0001394D
:10E7DB00EF73F0000E096E000E0A6E000E0B6E004A
:10E7EB000E0C6E0550061007100810D8B42AD00175
:10E7FB000E0D6E06D0D89005360636073608360D48
:10E80B002A08AEF8D7D89009360A360B360C3605DF
:10E81B0050015C065002580750035808500458D852
:10E82B00A009D00550015E0650025A0750035A0842
:10E83B0050045A0980D89008320732063205320D3F
:10E84B002EE1D709C001F00AC002F00BC003F00C97
:10E85B00C004F01200000E066E04AE06D0036C046A
:10E86B001ED8B0042A010E066E02AE06D0016C0251
:10E87B001ED8B0022A010E061A000E086E000E07F3
:10E88B006E03500410D8B41CD0010E056E04D0D802
:10E89B009003360436052A04AEFAD7D8900736080B
:10E8AB00360350015C04500258D8A005D003500128
:10E8BB005E0450025A0780D89004320332052EEDC5
:10E8CB00D70650D8B404D0076C081ED8B0082A0756
:10E8DB00C001F008C002F01200015002100310D862
:10E8EB00A40FD004C0D9FF05C0DAFF000EDE6E0006
:10E8FB000EDD6E000E016E000E026E000E036E1228
:10E90B000003507F0B066E076AD890063607360455
:10E91B00C0D9FF05C0DAFF06C0DEFF07C0DDFF026E
:10E92B00AE03D0066A062A01D0066A065004C0D987
:10E93B00FF05C0DAFFDE12000EDD1204C0D9FF05A1
:10E94B00C0DAFF820EDE26FF0EDD220350800B3F66
:10E95B0009036E029E01C001F002C002F003C00366
:10E96B00F012000450D8B405D0015002100310D897
:10E97B00A40CD0000E016E000E026E000E036E1280
:10E98B0000042AD890033202320132000E01140621
:10E99B006E000E0214076EFE0E0314086E0650076F
:10E9AB00100810D8B40CD0ECD7042A010E012600A5
:10E9BB000E0222000E0322D89003320232013200E3
:10E9CB000E0114066E000E0214076EFF0E031408E0
:10E9DB006E065007100810D8B406D0E6D70406D838
:10E9EB009001360236033602BE03D0020E0460F6E7
:10E9FB00D704A0029ED8900432045003120550D8BD
:10EA0B00A4038E01C001F002C002F003C003F01298
:10EA1B0000345035103610D8A407D0000E346E00D9
:10EA2B000E356E000E366E120036507F0B396E3A75
:10EA3B006AD89039363A36395037263A503822351B
:10EA4B00AE03D0396A392A01D0396A3950372600DA
:10EA5B000E382238AE0CD0000E00019A6F220E99A0
:10EA6B006F000E346E000E356E000E366E120038CF
:10EA7B00BE18D03804D8A015D0000E00019A6F2212
:10EA8B000E996F36AE07D0FF0E346E7F0E356EFFCC
:10EA9B000E366E1200FF0E346E7F0E356E7F0E3605
:10EAAB006E1200383438303A6E3730396E36503992
:10EABB0018800B3918366E37C039F0010E391639FC
:10EACB00323932355039187F0B3918356E34C03422
:10EADB00F035C035F036C036F01200000E106E0E59
:10EAEB00AE0AD00E1E0D1E0C1E0B6C000E0C220D52
:10EAFB00220E22010E106E0AAE0AD00A1E091E0843
:10EB0B001E076C000E082209220A22010E101A00A1
:10EB1B000E116E000E126E000E136E000E146E0BA5
:10EB2B00500C100D100E10D8B42AD0010E0F6E061B
:10EB3B00D0D8900B360C360D360E360F2A0EAEF89B
:10EB4B00D7D89011361236133614360B50075C0C8F
:10EB5B005008580D5009580E500A58D8A009D00B20
:10EB6B0050075E0C50085A0D50095A0E500A5A1194
:10EB7B0080D8900E320D320C320B320F2EE1D710A3
:10EB8B0050D8B408D0141E131E121E116C000E1296
:10EB9B00221322142211C007F012C008F013C0096F
:10EBAB00F014C00AF012002DC001F02EC002F000CC
:10EBBB000E046E030E036EC6EC70F02BC02FF02C00
:10EBCB00C030F001502F26025030222FC0F6FF30FC
:10EBDB00C0F7FF0900F5CF31F00900F5CF32F00A8D
:10EBEB0000F5CF33F03ED031C010F032C011F0330E
:10EBFB00C012F028C00DF029C00EF02AC00FF08D06
:10EC0B00EC77F00DC01CF00EC01DF00FC01EF00015
:10EC1B000E046E030E036E2D06D8A02E062DC0011A
:10EC2B00F02EC002F0C6EC70F02BC02FF02CC030D1
:10EC3B00F001502F26025030222FC0F6FF30C0F7C4
:10EC4B00FF0900F5CF1FF00900F5CF20F00A00F502
:10EC5B00CF21F050EC7AF01CC031F01DC032F01E09
:10EC6B00C033F02D502E10D8A4BED731C028F032AF
:10EC7B00C029F033C02AF012002AC02CF02D6A2EC6
:10EC8B006A29342C3601E32D802C50366E3650D841
:10EC9B00A409D0000E286E000E296E000E2A6E00FD
:10ECAB000E2B6E1200170E2C6E28C02DF029C02EC5
:10ECBB00F02AC02FF02C28306E04D0D8902F322E93
:10ECCB00322D32302EFAD72D50316E298EFF0E2871
:10ECDB0016FF0E2916000E2A162850326E295033B5
:10ECEB006E2A50346E356A8E0E365E36AE0DD036C9
:10ECFB0050800A8F0FD8A0CDD7D89035323432330D
:10ED0B00323232363EF9D70DD0170E366407D0C1EA
:10ED1B00D7D890323633363436353636063650D869
:10ED2B00A4F7D73150D8B408D0351E341E331E3259
:10ED3B006C000E33223422352232C028F033C02926
:10ED4B00F034C02AF035C02BF0120041C001F04264
:10ED5B00C002F043C003F0470E046E000E056E7246
:10ED6B00EC74F048AE10D043AE07D0000E416E806D
:10ED7B000E426EBF0E436E1200000E416E000E422D
:10ED8B006E000E436E1200485004E1150E475CD81E
:10ED9B00A007D041C041F042C042F043C043F01243
:10EDAB000041C028F042C029F043C02AF042EC7663
:10EDBB00F028C037F029C038F02AC039F02BC03A00
:10EDCB00F074EC73F037C044F038C045F039C046EE
:10EDDB00F041C001F042C002F043C003F044C00454
:10EDEB00F045C005F046C006F0FFEC72F0D8B01548
:10EDFB00D044C01CF045C01DF046C01EF0000E1FD5
:10EE0B006E800E206EBF0E216E50EC7AF01CC0414E
:10EE1B00F01DC042F01EC043F0120044C041F0454B
:10EE2B00C042F046C043F012000BC00FF0106A1145
:10EE3B006A0A340F3601E310800F50166E1650D845
:10EE4B00A407D0000E096E000E0A6E000E0B6E1298
:10EE5B00000EC00FF0106A116A0D340F3601E3106B
:10EE6B00800F50176E1750D8A407D0000E096E00F4
:10EE7B000E0A6E000E0B6E1200000E136E000E14B7
:10EE8B006E000E156E1750890F165E0BC017F00E25
:10EE9B0050171A800E17160A8EFF0E0916FF0E0A50
:10EEAB0016000E0B160D8EFF0E0C16FF0E0D160018
:10EEBB000E0E16180E126ED8901336143615360C1D
:10EECB0050095C0D500A580E500B58D8A007D00CA7
:10EEDB0050095E0D500A5A0E500B5A1380D89009E8
:10EEEB00360A360B36122EE7D713C001F014C002C8
:10EEFB00F015C003F016C004F017C005F0B7EC74A2
:10EF0B00F001C009F002C00AF003C00BF012000FB1
:10EF1B00C013F0146A156A0E34133601E314801310
:10EF2B0050166E1650D8A407D0000E0D6E000E0EA4
:10EF3B006E000E0F6E120012C013F0146A156A11D8
:10EF4B0034133601E3148013501B6E1B50D8A407E7
:10EF5B00D0000E0D6E000E0E6E000E0F6E12001B0B
:10EF6B00507B0F16260FC01BF012501B1A800E1B66
:10EF7B00160E8E118EFF0E1016FF0E1116000E12AE
:10EF8B0016000E176E000E186E000E196E070E1A75
:10EF9B006E0DA006D01050172611501822125019C2
:10EFAB0022D8900F320E320D32D890103611361205
:10EFBB00361A2EEED7090E1A6E0DA006D01050176A
:10EFCB00261150182212501922D8900F320E320DE2
:10EFDB0032D8901932183217321A2EEED717C001C9
:10EFEB00F018C002F019C003F016C004F01BC005E6
:10EFFB00F0B7EC74F001C00DF002C00EF003C00FBF
:10F00B00F0120010C016F011C017F012C018F01358
:10F01B00C019F016C001F017C002F018C003F019A8
:10F02B00C004F014C005F015C006F0000E06BEFFBC
:10F03B000E076E086EEFEC73F001C016F002C017EE
:10F04B00F003C018F004C019F00E4A0F2A1650171F
:10F05B001018101910D8A4DDD70EC0D9FF0FC0DAC5
:10F06B00FF000EDF6E0E06D8A00F0610C001F011C8
:10F07B00C002F012C003F013C004F014C005F01569
:10F08B00C006F0000E06BEFF0E076E086E5BEC723C
:10F09B00F001501A6E10C001F011C002F012C00343
:10F0AB00F013C004F014C005F015C006F0000E06F6
:10F0BB00BEFF0E076E086EEFEC73F001C010F0028E
:10F0CB00C011F003C012F004C013F0090E1A640251
:10F0DB00D0070E1A26300E1A260EC0D9FF0FC0DA33
:10F0EB00FF1AC0DFFF0E06D8A00F0610501110122A
:10F0FB00101310D8B41200B9D7000E0001956F0091
:10F10B000E966F000E976F000E986F000E726F00C9
:10F11B000E716F60D071C009F072C00AF01CEC71F7
:10F12B00F009C06BF00AC06CF00BC06DF06BC055F2
:10F13B00F06CC056F06DC057F0000E526E800E533F
:10F14B006E430E546E92EC79F052C06EF053C06F5A
:10F15B00F054C070F06EC010F06FC011F070C012A0
:10F16B00F058500001712504EC71F0A2EC70F0091D
:10F17B00C00DF00AC00EF00BC00FF08DEC77F00D48
:10F18B00C01FF00EC020F00FC021F095C009F09603
:10F19B00C00AF097C00BF098C00CF02DEC72F00980
:10F1AB00C01CF00AC01DF00BC01EF050EC7AF01C16
:10F1BB00C028F01DC029F01EC02AF042EC76F028C2
:10F1CB00C095F029C096F02AC097F02BC098F0009C
:10F1DB0001714B722B5A50715D7251800A5C6E5BE0
:10F1EB0050800A5C58D8A096D795C058F096C05955
:10F1FB00F097C05AF098C05BF0120036AE0CD000FE
:10F20B000E00019A6F210E996F000E346E000E35B1
:10F21B006E000E366E1200345035103610D8A40C1A
:10F22B00D0000E00019A6F220E996F000E346E0003
:10F23B000E356E000E366E1200000E106E000E11A3
:10F24B006E400E126E370E046E000E056E34C0014A
:10F25B00F035C002F036C003F072EC74F001C00D53
:10F26B00F002C00EF003C00FF08DEC77F00DC01C58
:10F27B00F00EC01DF00FC01EF0000E1F6E800E2092
:10F28B006EBF0E216E50EC7AF01CC034F01DC035F1
:10F29B00F01EC036F03706D8A0380634C028F0353B
:10F2AB00C029F036C02AF0DA0E2B6EFF0E2C6E0042
:10F2BB000E2E6E080E2D6ED9EC75F028C034F02989
:10F2CB00C035F02AC036F0720E106E310E116E3F43
:10F2DB000E126E37C009F038C00AF01CEC71F00941
:10F2EB00C00DF00AC00EF00BC00FF08DEC77F00DD7
:10F2FB00C01CF00EC01DF00FC01EF034C01FF03547
:10F30B00C020F036C021F050EC7AF01CC034F01D58
:10F31B00C035F01EC036F01200000E0001666F52B1
:10F32B005053105410D8A41CD0000E016E000E02C6
:10F33B006E000E036E55C004F056C005F057C006A4
:10F34B00F0FFEC72F0D8A005D0000E00019A6F21EF
:10F35B000E996F000E526E000E536E000E546E120D
:10F36B0000555056105710D8A407D0000E526E807F
:10F37B000E536E3F0E546E120054AE42D055C02841
:10F38B00F056C029F057C02AF042EC76F028C0673F
:10F39B00F029C068F02AC069F02BC06AF067C00979
:10F3AB00F068C00AF069C00BF06AC00CF02DEC726B
:10F3BB00F05550091807E156500A1804E157500B45
:10F3CB0018D8B40CD0000E00019A6F210E996F0063
:10F3DB000E526E000E536E000E546E12000001673B
:10F3EB0051010B666F52C001F053C002F054C003C1
:10F3FB00F0B4EC70F001C052F002C053F003C054F3
:10F40B00F052C034F053C035F054C036F003EC79F1
:10F41B00F034C060F035C061F036C062F060C00DF2
:10F42B00F061C00EF062C00FF055C010F056C01165
:10F43B00F057C012F08DEC77F00DC063F00EC06486
:10F44B00F00FC065F063C049F064C04AF065C04B73
:10F45B00F0FCEC7BF049C052F04AC053F04BC05467
:10F46B00F000016651D8B40FD052C001F053C00266
:10F47B00F054C003F0B4EC70F001C052F002C05372
:10F48B00F003C054F0120052C052F053C053F0546A
:10F49B00C054F012001EC022F0236A246A1D3422CD
:10F4AB003601E323802250276E21C022F0236A24E9
:10F4BB006A2034223601E323802250266E2750D84F
:10F4CB00B40AD02650275CD8B00DD02750265C222A
:10F4DB006E180E226407D01FC01CF020C01DF02137
:10F4EB00C01EF012002650D8B40AD02750265CD884
:10F4FB00B00DD02650275C226E180E226407D01C4C
:10F50B00C01CF01DC01DF01EC01EF01200060E2503
:10F51B006E1EBE258E21BE258C1D8EFF0E1C16FF6A
:10F52B000E1D16000E1E16208EFF0E1F16FF0E2030
:10F53B0016000E21162650275CD8B01BD0D8901F72
:10F54B003620362136260627502618D8B40DD0255E
:10F55B000625C022F0070E2216D8B406D0EFD7D856
:10F56B00901E321D321C32272A26502718D8B41F62
:10F57B00D0F6D72750265CD8B01AD0D8901C361DA1
:10F58B00361E36270627502618D8B40DD02506254B
:10F59B00C022F0070E2216D8B406D0EFD7D8902190
:10F5AB003220321F32262A26502718D8A4F7D72507
:10F5BB00AE0CD0FF0E1C1AFF0E1D1AFF0E1E1A01E9
:10F5CB000E1C26000E1D22000E1E2225AC0CD0FF99
:10F5DB000E1F1AFF0E201AFF0E211A010E1F2600F6
:10F5EB000E2022000E2122000E256E1C501F261D00
:10F5FB005020221E50212221AE0ED0FF0E1F1AFFCB
:10F60B000E201AFF0E211A010E1F26000E202200BB
:10F61B000E2122010E256E1FC001F020C002F02129
:10F62B00C003F027C004F025C005F0B7EC74F0015F
:10F63B00C01CF002C01DF003C01EF01200176E00BC
:10F64B000E106E000E0F6E1BD00FC00AF0D8900A72
:10F65B0036D8900A36D8900A36FF0E0B6E000E0C79
:10F66B006E0A2A03D00C340C320B320A2EFBD70B4A
:10F67B0050026E17500F24EEEC70F00F4A102A094F
:10F68B00500A6E0B6A0A500F5C1050800A0C6E0BFE
:10F69B0050800A0C58D8A0D8D70850071009E1069B
:10F6AB0004D8B006D005C002F01750EEEC70F01283
:10F6BB00000850071003E10604D8A034D0085032DC
:10F6CB00E10704D8B02FD0000E126E000E116E1190
:10F6DB00C00AF0D8900A36D8900A36D8900A360A63
:10F6EB005005C00BF006C00CF007C00DF008C00EA3
:10F6FB00F0E82A05D0D8900E320D320C320B32E8DE
:10F70B002EF9D70B50026E17501124EEEC70F0113E
:10F71B004A122A12BEDCD7125068E1020E115CD8D5
:10F72B00B01200D5D7085003E10704D8A02FD000A2
:10F73B000E146E000E136E13C00AF0D8900A36D852
:10F74B00900A36D8900A360A5005C00BF006C00C4A
:10F75B00F007C00DF008C00EF0E82A05D0D8900EC7
:10F76B00320D320C320B32E82EF9D70B50026E17DA
:10F77B00501324EEEC70F0134A142A14BEDCD71489
:10F78B005034E1040E135CD8B01200D5D7000E161E
:10F79B006E000E156E15C00AF0D8900A36D8900A76
:10F7AB0036D8900A360A5005C00BF006C00CF0078D
:10F7BB00C00DF008C00EF0E82A05D0D8900E320D1F
:10F7CB00320C320B32E82EF9D70B50026E17501554
:10F7DB0024EEEC70F0154A162A16BEDCD71650052F
:10F7EB00E1080E155CD8B01200D5D7120049504A6B
:10F7FB00104B10D8A407D0000E496E800E4A6E3FF6
:10F80B000E4B6E1200720E016E310E026E440E0321
:10F81B006E49C004F04AC005F04BC006F0FFEC7215
:10F82B00F0D8B00CD0000E00019A6F220E996FFF2A
:10F83B000E496E7F0E4A6E7F0E4B6E120049C00151
:10F84B00F04AC002F04BC003F0490E046E3A0E05AD
:10F85B006EC40E066EFFEC72F0D8B00CD0000E002A
:10F86B00019A6F220E996F000E496E000E4A6E00C0
:10F87B000E4B6E12004BAE02D0010E01D0000E519A
:10F88B006E5150D8B40ED049C001F04AC002F04BB3
:10F89B00C003F0B4EC70F001C049F002C04AF003B1
:10F8AB00C04BF049C00DF04AC00EF04BC00FF0AA90
:10F8BB000E106EB80E116E3F0E126E8DEC77F00DB2
:10F8CB00C049F00EC04AF00FC04BF049C041F04A9E
:10F8DB00C042F04BC043F0ABEC76F041C04CF04271
:10F8EB00C04DF043C04EF04CC028F04DC029F04E37
:10F8FB00C02AF042EC76F028C04FF029C050F049F6
:10F90B00C028F04AC029F04BC02AF04FC009F05074
:10F91B00C00AF01CEC71F009C02BF00AC02CF00BE4
:10F92B00C02DF054EC71F028C049F029C04AF02AE0
:10F93B00C04BF049C028F04AC029F04BC02AF0BC9C
:10F94B000E2B6EFF0E2C6E000E2E6E090E2D6ED929
:10F95B00EC75F028C034F029C035F02AC036F04FD2
:10F96B00C037F050C038F00EEC75F034C049F035AC
:10F97B00C04AF036C04BF05150D8B425D049280EB0
:10F98B00E17F0E4A180BE17F0E4B18D8A407D0006D
:10F99B000E496E000E4A6E000E4B6E1200000E09E1
:10F9AB006E800E0A6E3F0E0B6E49C00CF04AC00DF6
:10F9BB00F04BC00EF01AEC77F009C049F00AC04AC0
:10F9CB00F00BC04BF0120049C049F04AC04AF04B53
:10F9DB00C04BF0120000000000000000000000000F
:10F9EB00000000000000000000000000000000000C
:10F9FB0000000000000000000000000000000000FC
:10FA0B0000000000000000000000000000000000EB
:10FA1B00000000008080800000000000000000005B
:10FA2B000000000000008080C0C00000000000004B
:10FA3B0000000000000000000000000000000000BB
:10FA4B0000000000000000000000000000000000AB
:10FA5B00000000000000000000000000000000009B
:10FA6B0000000000000000000080C0E0F0F8FCF88F
:10FA7B00E00000000000000000000000000000009B
:10FA8B0000008080808080008080000000008080EB
:10FA9B0080808000FFFFFF000000008080808000DE
:10FAAB00008080000080FFFF8080008080008080CD
:10FABB0080800080800000000000808000008C8E21
:10FACB0084000080F8F8F8800000000000000000BF
:10FADB000000000000F0F0F0F0F0F0F0F0F0F0F0CB
:10FAEB00F0E0E0C08000E0FCFEFFFFFF7FFFFFFFC8
:10FAFB00FFFF0000000000000000000000000000FD
:10FB0B00FEFFC70101010183FFFF00007CFEC7015F
:10FB1B0001010183FFFFFF0038FEC7830101018351
:10FB2B00C7FFFF000001FFFF010100FFFF070101FD
:10FB3B000100007FFF80000000FFFF7F0000FFFF40
:10FB4B00FF000001FFFFFF010000000000000000AC
:10FB5B000000000000030F3F7F7FFFFFFFFFFFFF51
:10FB6B00FFE7C7C78F8F9FBFFFFFC3C0F0FFFFFF2C
:10FB7B00FFFFFCFCFCFCFCFCFCFCF8F8F0F0E0C02C
:10FB8B00000103030303030103030000000001034F
:10FB9B00030303010103010000000103030303013D
:10FBAB000103030000000303000000030300000037
:10FBBB000000000001030303030301000000010325
:10FBCB000100000003030100000000000000000022
:10FBDB00000000000000000080C0E0F0F9FFFFFF14
:10FBEB00FFFF3F1F0F87C7F7FFFF1F1F3DFCF8F8F5
:10FBFB00F8F87C7DFFFFFFFFFFFFFFFF7F3F0F0745
:10FC0B000030300000000000000000000000000089
:10FC1B00000000000000000000FEFEFC00000000E1
:10FC2B0000000000000000000000000000000000C9
:10FC3B000000E0C0000000000000000000000030E9
:10FC4B003000000000000000000000000000000079
:10FC5B00000000000000C0FEFFFFFFFFFFFFFFFFE3
:10FC6B00FF7F7F3F1F0F071F7FFFFFF8F8FFFFFF8F
:10FC7B00FFFFFEF8E00000000100000000000000A4
:10FC8B0000FEFE000000FCFEFC0C06060EFCF8005D
:10FC9B0000F0F81C0E0606060CFFFFFF0000FEFE30
:10FCAB0000000000FCFEFC00183C7E66E6CE8400E3
:10FCBB000006FFFF0606FCFEFC0C0606060000FE17
:10FCCB00FE0000C0F8FC4E4646464E7C7840183C81
:10FCDB0076E6CECC800000000000000000000000A3
:10FCEB0000000000000000000001070F1F1F3F3F36
:10FCFB003F3F1F0F0300000000000000000000004A
:10FD0B00000F0F0000000F0F0F000000000F0F007F
:10FD1B000003070E0C18180C060F0F0F0000010F35
:10FD2B000E0C180C0F070100040E0C180C0F07001B
:10FD3B0000000F0F00000F0F0F0000000000000F5E
:10FD4B000F00000007070C0C181C0C060600040E15
:10FD5B000C180C0F07000000000000000000000052
:10FD6B000000000000000000000000000000000088
:10FD7B000000000000000000000000000000000078
:10FD8B000000000000000000000000000000000068
:10FD9B000000000000000000000000000000000058
:10FDAB000000000000000000000000000000000048
:10FDBB000000000000000000000000000000000038
:10FDCB000000000000000000000000000000000028
:10FDDB00000000000000000000000000005F0000B9
:10FDEB000007000700147F147F14242A7F2A122394
:10FDFB001308646236495620500008070300001CA4
:10FE0B002241000041221C002A1C7F1C2A08083EAC
:10FE1B0008080080703000080808080800006060BF
:10FE2B000020100804023E5149453E00427F40002D
:10FE3B0072494949462141494D331814127F102705
:10FE4B00454545393C4A4949314121110907364954
:10FE5B00494936464949291E000014000000403428
:10FE6B00000000081422411414141414004122142D
:10FE7B000802015909063E415D594E7C1211127C54
:10FE8B007F494949363E414141227F4141413E7FB5
:10FE9B00494949417F090909013E414151737F0895
:10FEAB0008087F00417F41002040413F017F08143B
:10FEBB0022417F404040407F021C027F7F0408109C
:10FECB007F3E4141413E7F090909063E4151215E7A
:10FEDB007F09192946264949493203017F01033F0E
:10FEEB004040403F1F2040201F3F4038403F63149D
:10FEFB0008146303047804036159494D43007F419F
:10FF0B0041410204081020004141417F04020102DB
:10FF1B000440404040400003070800205454784000
:10FF2B007F284444383844444428384444287F3894
:10FF3B005454541800087E090218A4A49C787F0816
:10FF4B0004047800447D40002040403D007F102891
:10FF5B00440000417F40007C047804787C08040452
:10FF6B00783844444438FC1824241818242418FCEA
:10FF7B007C08040408485454542404043F44243C8F
:10FF8B004040207C1C2040201C3C4030403C4428FE
:10FF9B001028444C9090907C4464544C4400083698
:10FFAB004100000077000000413608000201020406
:10FFBB000200803F72313FFE753E58633D951D3CFC
:10FFCB00C5AE3A79213994803793A735561534004D
:10FFDB00000000803FF0FFBEE2A93E8376BEAE2B51
:0DFFEB003E3CC3BDD2133D78D3BB200000C7
:08FFF800BEF4F4FFFFFFBFF3AC
:00000001FF
