:040000004EEF10F0BF
:100F00000000803F72313FFE753E58633D951D3CA9
:100F1000C5AE3A79213994803793A73556153400F8
:100F2000000000803FF0FFBEE2A93E8376BEAE2BFC
:0D0F30003E3CC3BDD2133D78D3BB20000072
:100F3E00515052105310D8A407D0000E516E800E8F
:100F4E00526E3F0E536E1200720E016E310E026E15
:100F5E00440E036E51C004F052C005F053C006F0AB
:100F6E0023EC0FF0D8B00CD0000E0001AC6F220EA7
:100F7E00AB6FFF0E516E7F0E526E7F0E536E1200D0
:100F8E0051C001F052C002F053C003F0490E046E7E
:100F9E003A0E056EC40E066E23EC0FF0D8B00CD0D0
:100FAE00000E0001AC6F220EAB6F000E516E000EE4
:100FBE00526E000E536E120053AE02D0010E01D0CF
:100FCE00000E596E5950D8B40ED051C001F052C017
:100FDE0002F053C003F00EEC11F001C051F002C04C
:100FEE0052F003C053F051C012F052C013F053C070
:100FFE0014F0AA0E156EB80E166E3F0E176EF6ECA6
:10100E000BF012C051F013C052F014C053F051C087
:10101E0049F052C04AF053C04BF0E3EC0CF049C01B
:10102E0054F04AC055F04BC056F054C030F055C085
:10103E0031F056C032F07CEC0BF030C057F031C0BE
:10104E0058F051C02DF052C02EF053C02FF057C0A3
:10105E0009F058C00AF0AFEC10F009C030F00AC029
:10106E0031F00BC032F08FEC10F02DC051F02EC0CD
:10107E0052F02FC053F051C02DF052C02EF053C07D
:10108E002FF0010E306E0F0E316E000E336E090E04
:10109E00326E52EC0DF02DC039F02EC03AF02FC04A
:1010AE003BF057C03CF058C03DF021EC0EF039C07B
:1010BE0051F03AC052F03BC053F05950D8B425D03D
:1010CE0051280EE17F0E52180BE17F0E5318D8A453
:1010DE0007D0000E516E000E526E000E536E1200AF
:1010EE00000E216E800E226E3F0E236E51C024F034
:1010FE0052C025F053C026F070EC0CF021C051F018
:10110E0022C052F023C053F0120051C051F052C011
:10111E0052F053C053F0120023C027F0286A296AF8
:10112E002234273601E3288027502C6E26C027F064
:10113E00286A296A2534273601E3288027502B6E2A
:10114E002C50D8B40BD02B502C5CD8B00ED02C50C9
:10115E0000082B24276E180E276407D024C021F018
:10116E0025C022F026C023F012002B50D8B40BD08D
:10117E002C502B5CD8B00ED02B5000082C24276E90
:10118E00180E276407D021C021F022C022F023C000
:10119E0023F01200060E2A6E23BE2A8E26BE2A8C3D
:1011AE00228EFF0E2116FF0E2216000E2316258EFE
:1011BE00FF0E2416FF0E2516000E26162B502C5C45
:1011CE00D8B01BD0D8902436253626362B062C5078
:1011DE002B18D8B40DD02A062AC027F0070E2716D2
:1011EE00D8B406D0EFD7D8902332223221322C2A0F
:1011FE002B502C18D8B41FD0F6D72C502B5CD8B04F
:10120E001AD0D8902136223623362C062C502B1885
:10121E00D8B40DD02A062AC027F0070E2716D8B448
:10122E0006D0EFD7D8902632253224322B2A2B50D7
:10123E002C18D8A4F7D72AAE0CD0FF0E211AFF0E09
:10124E00221AFF0E231A010E2126000E2222000E54
:10125E0023222AAC0CD0FF0E241AFF0E251AFF0EE5
:10126E00261A010E2426000E2522000E2622000E1E
:10127E002A6E21502426225025222350262226AEC5
:10128E000ED0FF0E241AFF0E251AFF0E261A010E7F
:10129E002426000E2522000E2622010E2A6E24C0C0
:1012AE0001F025C002F026C003F02CC004F02AC0C5
:1012BE0005F084EC0EF001C021F002C022F003C054
:1012CE0023F0120068EC11F0D00E20EC11F00001AA
:1012DE00C339E846E00B8C0920EC11F06DEC11F0EF
:1012EE00F00E00D0E82EFDD768EC11F0D10E20ECF8
:1012FE0011F0000E0001D06F030ECF6FD0BF2FD0B4
:10130E00D05103E1CF05D8A02AD0CF05D011D8A453
:10131E0007D0000E026E010E016E39EC11F006D0F0
:10132E00000E026E000E016E39EC11F0FF0E000180
:10133E00C56FFF0EC66FCFC0C7F0D0C0C8F0C55185
:10134E00C727C651C8239F0EC725D96E000EC821C8
:10135E00DA6E75CFDFFFCF07D8A0D007CFD7A14564
:10136E00E846030BA16F6DEC11F068EC11F0D00E96
:10137E0020EC11F0000E20EC11F06DEC11F0000ECF
:10138E005D6EC00E5E6EC00E5F6E000E5A6E200E4B
:10139E005B6E410E5C6E2FEC0AF05AC0C9F05BC05A
:1013AE00CAF05CC0CBF0000E156E740E166E410EB8
:1013BE00176EC9C012F0CAC013F0CBC014F0F6EC11
:1013CE000BF012C0CCF013C0CDF014C0CEF0000E56
:1013DE00246E800E256E3F0E266ECCC015F0CDC04D
:1013EE0016F0CEC017F09FC0C5F0A0C0C6F0A1C0C9
:1013FE00C7F0A2C0C8F0030E06D00001D890C833C3
:10140E00C733C633C533E82EF8D7C5C009F0C6C0FA
:10141E000AF0C7C00BF0C8C00CF0A7EC0FF009C063
:10142E0012F00AC013F00BC014F0F6EC0BF012C061
:10143E0021F013C022F014C023F070EC0CF021C088
:10144E0030F022C031F023C032F07CEC0BF01200F1
:10145E00000E0001BE6F5A505B105C10D8A41CD059
:10146E00000E016E000E026E000E036E5DC004F0E3
:10147E005EC005F05FC006F023EC0FF0D8A005D0DB
:10148E00000E0001AC6F210EAB6F000E5A6E000EF7
:10149E005B6E000E5C6E12005D505E105F10D8A485
:1014AE0007D0000E5A6E800E5B6E3F0E5C6E120001
:1014BE005CAE42D05DC030F05EC031F05FC032F045
:1014CE007CEC0BF030C0BFF031C0C0F032C0C1F0C8
:1014DE0033C0C2F0BFC009F0C0C00AF0C1C00BF0EB
:1014EE00C2C00CF0A7EC0FF05D50091807E15E507A
:1014FE000A1804E15F500B18D8B40CD0000E00018E
:10150E00AC6F210EAB6F000E5A6E000E5B6E000EAE
:10151E005C6E12000001BF51010BBE6F5AC001F08C
:10152E005BC002F05CC003F00EEC11F001C05AF08B
:10153E0002C05BF003C05CF05AC039F05BC03AF0F9
:10154E005CC03BF0EDEC0AF039C0B8F03AC0B9F02F
:10155E003BC0BAF0B8C012F0B9C013F0BAC014F064
:10156E005DC015F05EC016F05FC017F0F6EC0BF024
:10157E0012C0BBF013C0BCF014C0BDF0BBC051F024
:10158E00BCC052F0BDC053F09FEC07F051C05AF0F2
:10159E0052C05BF053C05CF00001BE51D8B40FD006
:1015AE005AC001F05BC002F05CC003F00EEC11F00B
:1015BE0001C05AF002C05BF003C05CF012005AC0CA
:1015CE005AF05BC05BF05CC05CF012003BAE0CD01E
:1015DE00000E0001AC6F210EAB6F000E396E000EC7
:1015EE003A6E000E3B6E120039503A103B10D8A4E2
:1015FE000CD0000E0001AC6F220EAB6F000E396ED8
:10160E00000E3A6E000E3B6E1200000E156E000EAE
:10161E00166E400E176E3C0E046E000E056E39C02F
:10162E0001F03AC002F03BC003F0DBEC0EF001C05B
:10163E0012F002C013F003C014F0F6EC0BF012C05F
:10164E0021F013C022F014C023F0000E246E800E81
:10165E00256EBF0E266E93EC08F021C039F022C025
:10166E003AF023C03BF03C06D8A03D0639C02DF021
:10167E003AC02EF03BC02FF01F0E306E0F0E316EA3
:10168E00000E336E080E326E52EC0DF02DC039F096
:10169E002EC03AF02FC03BF0720E156E310E166E44
:1016AE003F0E176E3CC009F03DC00AF0AFEC10F0D3
:1016BE0009C012F00AC013F00BC014F0F6EC0BF0D8
:1016CE0012C021F013C022F014C023F039C024F050
:1016DE003AC025F03BC026F093EC08F021C039F05B
:1016EE0022C03AF023C03BF0120032C034F0356A0B
:1016FE00366A3134343601E3358034503E6E3E5016
:10170E00D8A409D0000E306E000E316E000E326E6F
:10171E00000E336E1200170E346E30C035F031C02D
:10172E0036F032C037F03428386E04D0D8903732C5
:10173E0036323532382EFAD73550396E318EFF0E9D
:10174E003016FF0E3116000E321630503A6E3150F2
:10175E003B6E32503C6E3D6A8E0E3E5E3EAE16D0F5
:10176E003E50800A8F0FD8B009D0000E306E000E9A
:10177E00316E000E326E000E336E1200D8903D3276
:10178E003C323B323A323E3EF9D715D0170E3E640C
:10179E000FD0000E306E000E316E000E326E000E47
:1017AE00336E1200D8903A363B363C363D363E0606
:1017BE003E50D8A4F7D73950D8B408D03D1E3C1EA1
:1017CE003B1E3A6C000E3B223C223D223AC030F0CA
:1017DE003BC031F03CC032F03DC033F0120014C0BB
:1017EE0018F0196A1A6A1334183601E31980185062
:1017FE001B6E1B50D8A407D0000E126E000E136E77
:10180E00000E146E120017C018F0196A1A6A1634F8
:10181E00183601E319801850206E2050D8A407D036
:10182E00000E126E000E136E000E146E120020507B
:10183E007B0F1B2614C020F01750201A800E201686
:10184E00138E168EFF0E1516FF0E1616000E171699
:10185E00000E1C6E000E1D6E000E1E6E070E1F6E0D
:10186E0012A006D015501C2616501D2217501E22EF
:10187E00D890143213321232D890153616361736D7
:10188E001F2EEED7090E1F6E12A006D015501C2665
:10189E0016501D2217501E22D890143213321232B7
:1018AE00D8901E321D321C321F2EEED71CC001F0F6
:1018BE001DC002F01EC003F01BC004F020C005F0D6
:1018CE0084EC0EF001C012F002C013F003C014F04D
:1018DE00120023C027F0286A296A2234273601E332
:1018EE00288027502E6E2E50D8A407D0000E216EC1
:1018FE00000E226E000E236E120026C027F0286AFC
:10190E00296A2534273601E3288027502F6E2F5061
:10191E00D8A407D0000E216E000E226E000E236E8C
:10192E001200000E2B6E000E2C6E000E2D6E2F5020
:10193E00890F2E5E23C02FF026502F1A800E2F16E1
:10194E00228EFF0E2116FF0E2216000E2316258E56
:10195E00FF0E2416FF0E2516000E2616180E2A6EE2
:10196E00D8902B362C362D362450215C25502258FB
:10197E0026502358D8A007D02450215E2550225A35
:10198E002650235A2B80D8902136223623362A2EE3
:10199E00E7D72BC001F02CC002F02DC003F02EC0F3
:1019AE0004F02FC005F084EC0EF001C021F002C04F
:1019BE0022F003C023F0120049C001F04AC002F029
:1019CE004BC003F04F0E046E000E056EDBEC0EF0F6
:1019DE0050AE10D04BAE07D0000E496E800E4A6E40
:1019EE00BF0E4B6E1200000E496E000E4A6E000EB8
:1019FE004B6E1200505004E1150E4F5CD8A007D06C
:101A0E0049C049F04AC04AF04BC04BF0120049C0E1
:101A1E0030F04AC031F04BC032F07CEC0BF030C0ED
:101A2E003FF031C040F032C041F033C042F06BECB9
:101A3E000FF03FC04CF040C04DF041C04EF049C0D9
:101A4E0001F04AC002F04BC003F04CC004F04DC090
:101A5E0005F04EC006F023EC0FF0D8B015D04CC0F8
:101A6E0021F04DC022F04EC023F0000E246E800EE9
:101A7E00256EBF0E266E93EC08F021C049F022C0F1
:101A8E004AF023C04BF012004CC049F04DC04AF052
:101A9E004EC04BF0120032C001F033C002F0000E07
:101AAE00046E030E036EFBEC10F030C034F031C048
:101ABE0035F0015034260250352234C0F6FF35C0C1
:101ACE00F7FF0900F5CF36F00900F5CF37F00A0021
:101ADE00F5CF38F03ED036C015F037C016F038C00E
:101AEE0017F02DC012F02EC013F02FC014F0F6EC2C
:101AFE000BF012C021F013C022F014C023F0000E20
:101B0E00046E030E036E3206D8A0330632C001F007
:101B1E0033C002F0FBEC10F030C034F031C035F0C1
:101B2E00015034260250352234C0F6FF35C0F7FF7F
:101B3E000900F5CF24F00900F5CF25F00A00F5CF06
:101B4E0026F093EC08F021C036F022C037F023C007
:101B5E0038F032503310D8A4BED736C02DF037C06F
:101B6E002EF038C02FF01200000E106E0EAE0AD0FE
:101B7E000E1E0D1E0C1E0B6C000E0C220D220E22C4
:101B8E00010E106E0AAE0AD00A1E091E081E076C40
:101B9E00000E082209220A22010E101A000E116EE2
:101BAE00000E126E000E136E000E146E0B500C1003
:101BBE000D100E10D8B42AD0010E0F6E06D0D8908C
:101BCE000B360C360D360E360F2A0EAEF8D7D890D1
:101BDE0011361236133614360B50075C0C5008585B
:101BEE000D5009580E500A58D8A009D00B50075E58
:101BFE000C50085A0D50095A0E500A5A1180D8909E
:101C0E000E320D320C320B320F2EE1D71050D8B4EB
:101C1E0008D0141E131E121E116C000E1222132257
:101C2E00142211C007F012C008F013C009F014C03E
:101C3E000AF0120039503A103B10D8A407D0000E0B
:101C4E00396E000E3A6E000E3B6E12003B507F0B4B
:101C5E003E6E3F6AD8903E363F363E503C263F5051
:101C6E003D223AAE03D03E6A3E2A01D03E6A3E5035
:101C7E003C26000E3D223DAE0CD0000E0001AC6F96
:101C8E00220EAB6F000E396E000E3A6E000E3B6EDA
:101C9E0012003DBE16D03D04D8A013D0000E000198
:101CAE00AC6F220EAB6F3BAE06D0FF0E396E7F0EC1
:101CBE003A6EFF0EECD7FF0E396E7F0E3A6E7F0E28
:101CCE00E6D73D343D303F6E3C303E6E3B503E18C5
:101CDE00800B3E183B6E3CC03EF0010E3E163E326F
:101CEE003E323A503E187F0B3E183A6E39C039F0EC
:101CFE003AC03AF03BC03BF012000450D8B405D0C5
:101D0E00015002100310D8A40CD0000E016E000E6C
:101D1E00026E000E036E1200042AD89003320232B5
:101D2E000132000E0114066E000E0214076EFE0E36
:101D3E000314086E065007100810D8B40CD0ECD758
:101D4E00042A010E0126000E0222000E0322D89054
:101D5E00033202320132000E0114066E000E02141E
:101D6E00076EFF0E0314086E065007100810D8B445
:101D7E0006D0E6D70406D89001360236033602BEE8
:101D8E0003D0020E0460F6D704A0029ED89004324F
:101D9E00045003120550D8A4038E01C001F002C0F6
:101DAE0002F003C003F01200015002100310D8A479
:101DBE000FD004C0D9FF05C0DAFF000EDE6E000E94
:101DCE00DD6E000E016E000E026E000E036E12002E
:101DDE0003507F0B066E076AD8900636073604C08E
:101DEE00D9FF05C0DAFF06C0DEFF07C0DDFF02AE79
:101DFE0003D0066A062A01D0066A065004C0D9FF2F
:101E0E0005C0DAFFDE12000EDD1204C0D9FF05C0D8
:101E1E00DAFF820EDE26FF0EDD22038003820384AC
:101E2E0003860388038A039C029E01C001F002C050
:101E3E0002F003C003F0120003AE16D001C007F08B
:101E4E0002C008F003C009F0071E081E091E072A6B
:101E5E00000E08220922000E0724016E000E082033
:101E6E00026E800E0920036E06AE16D004C007F077
:101E7E0005C008F006C009F0071E081E091E072A35
:101E8E00000E08220922000E0724046E000E082000
:101E9E00056E800E0920066E000E011A000E021A43
:101EAE00800E031A000E041A000E051A800E061A72
:101EBE000450015C0550025806500358D8B002D0A9
:101ECE00D8901200D8801200000E486E8E0E476E0B
:101EDE0042AE11D0421E411E401E3F6C000E4022EB
:101EEE0041224222010E486E06D0D8904232413233
:101EFE0040323F32472A000E3F14436E000E40140C
:101F0E00446E000E4114456EFF0E4214466E435051
:101F1E00441045104610D8A4E8D73FC001F040C089
:101F2E0002F041C003F047C004F048C005F084EC55
:101F3E000EF001C03FF002C040F003C041F01200AD
:101F4E008E0E116E06D0D8900C320B320A32093238
:101F5E00112A000E09140D6E000E0A140E6E000EDC
:101F6E000B140F6EFF0E0C14106E0D500E100F1082
:101F7E001010D8A4E8D709C001F00AC002F00BC0B7
:101F8E0003F011C004F0000E056E84EC0EF001C0DB
:101F9E0009F002C00AF003C00BF0120054EC11F06D
:101FAE002DEC11F0949045EC11F0340E0001D16F30
:101FBE00F10EE82EFED7D12FFCD700D0F00E00D0B8
:101FCE00E82EFDD7F00E00D0E82EFDD7000E000152
:101FDE00C46F010EC36F69EC09F00B0E0001D26FD6
:101FEE00260ED16F5D0EE82EFED7D12FFCD7D22F45
:101FFE00FAD700D0EBD7156E95809582729E728AB5
:10200E007250F00B0809726E719A7188000E076E8D
:10201E00240E086EF40E096E000E0A6E15C001F045
:10202E00026A0F0E046EA00E036EFBEC10F001C0E0
:10203E000BF002C00CF0000E0CBEFF0E0D6E0E6EFD
:10204E00BBEC0DF00704746E1200040E8D6E000EC4
:10205E008C6E000E896E000E8A6E010E8B6EC30E94
:10206E00966EEF0E926EDF0E936E960E946E9568D0
:10207E00800E0F01486F100E496FF18E968E968C62
:10208E00000E426F000E416F000E406F1200960E52
:10209E00F66E210EF76E000EF86E00EE60F010EE8A
:1020AE0035F00900F5CFEEFFE550E150FAE101EE13
:1020BE0000F0640EEE6AE806FDE100EE95F0230EE8
:1020CE00EE6AE806FDE1000EF86E0001D5EF0FF0A6
:1020DE00180E7E6E980EAC6E240EAD6ECF0EB06ED8
:1020EE00000E7F6E000E016E000E026E5EEC11F0A1
:1020FE00000E016E000E026E59EC11F0000E016E14
:10210E00000E026E63EC11F0000E0001B76F1200AC
:10211E00305031103210D8B406D0000E301A000EE6
:10212E00311A800E321A2DC021F02EC022F02FC08F
:10213E0023F030C024F031C025F032C026F093ECED
:10214E0008F021C02DF022C02EF023C02FF0120077
:10215E00000E0C6E0AAE06D0096C0A1ED8B00A2A02
:10216E00010E0C6E09C001F00AC002F0036A8E0E59
:10217E00046E0CC005F084EC0EF001C009F002C034
:10218E000AF003C00BF0120000010203040506075B
:10219E0008090A0B0C0D0E0F101112131415161739
:1021AE0018191A1B1C1D1E1F030004000500000039
:0D21BE00B0B1B2B3B4B5B6B706070809005A
:1021CC00700ED36E000E9B6E000E0F013D6F140E41
:1021DC00876E0B0E026E260E016E5E0EE82EFED77B
:1021EC00012EFCD7022EFAD7120001500302F3CFB6
:1021FC0005F0F4CF06F001500402F350062602500D
:10220C000302F350062605C001F006C002F01200CE
:10221C00015002100310D8B406D0000E011A000EA3
:10222C00021A800E031A01C001F002C002F003C0B2
:10223C0003F01200016E01C075FF73A0FED7A4AEAF
:10224C00FED7A49E71AC12006DEC11F012002CECB8
:10225C0010F0E6EC10F04DEC11F06FEC10F0640E99
:10226C0002EC10F01200718673A0FED701B002D000
:10227C00719A01D0718A718871A81200FDD768EC2F
:10228C0011F0000E20EC11F06DEC11F01200800E2C
:10229C00C76E200EC66E000EC86E1200F28EF28C47
:1022AC00A38EA49E120001C0B3F002C0B4F01200C1
:1022BC0001C0B5F002C0B6F0120001C0B1F002C00E
:1022CC00B2F01200718071B0FED7A49E120071841E
:0822DC0071B4FED7A49E1200AC
:08FFF800BEF4F4FFFFFFBFF3AC
:00000001FF
