:04000000B1EF08F064
:100F00000000803F72313FFE753E58633D951D3CA9
:100F1000C5AE3A79213994803793A73556153400F8
:100F2000000000803FF0FFBEE2A93E8376BEAE2BFC
:100F30003E3CC3BDD2133D78D3BB0D003000200032
:010F400000B0
:100F42008D84060E236E300EE82EFED7232EFCD79C
:100F520000D08D94340E236EF20EE82EFED7232E8F
:100F6200FCD78D84AE0E216EAE0E9BEC09F03F0EC7
:100F7200216EA80E9BEC09F0000E216ED30E9BECA5
:100F820009F0000E216E200E9BEC09F0400E216E3E
:100F9200400E9BEC09F0A00E216EA00E9BEC09F016
:100FA200C00E216EC00E9BEC09F0120E216EDA0EFD
:100FB2009BEC09F07F0E216E810E9BEC09F0D90E9D
:100FC200216ED90E9BEC09F0400E216EDB0E9BECDC
:100FD20009F0A40E216EA40E9BEC09F0A60E216E60
:100FE200A60E9BEC09F0800E216ED50E9BEC09F04B
:100FF200140E216E8D0E9BEC09F02E0E216E2E0E1C
:101002009BEC09F0AF0E216EAF0E9BEC09F01200C3
:10101200000E2F6E2DAE0AD02D1E2C1E2B1E2A6CFA
:10102200000E2B222C222D22010E2F6E29AE0AD069
:10103200291E281E271E266C000E2722282229225E
:10104200010E2F1A000E306E000E316E000E326E3F
:10105200000E336E2A502B102C102D10D8B42AD02B
:10106200010E2E6E06D0D8902A362B362C362D360F
:101072002E2A2DAEF8D7D890303631363236333666
:101082002A50265C2B5027582C5028582D5029586E
:10109200D8A009D02A50265E2B50275A2C50285A05
:1010A2002D50295A3080D8902D322C322B322A32B0
:1010B2002E2EE1D72F50D8B408D0331E321E311E47
:1010C200306C000E31223222332230C026F031C081
:1010D20027F032C028F033C029F01200070E216E2B
:1010E200000E236E220E226E070EC3EC09F0010ED3
:1010F200216E000E236E210E226E010EC3EC09F04A
:101102002CEC0AF07A0EE5EC09F0410EE5EC09F060
:1011120015C020F016C021F0000E236EFD0E226EC7
:10112200000E256E100E246E70EC09F0000E296E72
:10113200000E286E28502910D8A40FD0D890283439
:10114200D96E2934DA6E1550D9261650DA22DF50BC
:10115200E5EC09F0284A292AEDD731EC0AF0120011
:10116200AA0EF66E130EF76E000EF86E00EE60F029
:1011720010EE20F00900F5CFEEFFE550E150FAE164
:10118200FC0EF66E130EF76E000EF86E00EE37F0E0
:1011920010EE15F00900F5CFEEFFE550E150FAE14F
:1011A20001EE00F011EE00F0EE6AE550E150FCE1D4
:1011B200E250FAE100EE01F01F0EEE6AE806FDE1F0
:1011C200000EF86E000132EF09F0346E95809582C0
:1011D200729E728A7250F00B0809726E719A71884F
:1011E200000E266E240E276EF40E286E000E296E57
:1011F20034C020F0216A0F0E236EA00E226EB0ECD6
:1012020009F020C02AF021C02BF0000E2BBEFF0EE9
:101212002C6E2D6E09EC08F02604746E1200040E7A
:101222008D6E000E8C6E000E896E000E8A6E010E9F
:101232008B6EC30E966EEF0E926EDF0E936E960E4F
:10124200946E9568800E0F01486F100E496FF18EF3
:10125200968E968C000E426F000E416F000E406F0C
:10126200120018EC0AF0F2EC09F0949009EC0AF082
:10127200340E356EF20EE82EFED7352EFCD7A1ECD9
:1012820007F0290E366E960E356E7F0EE82EFED7CB
:10129200352EFCD7362EFAD700F06FEC08F0FFD7C8
:1012A200180E7E6E980EAC6E240EAD6ECF0EB06E22
:1012B200000E7F6E000E206E000E216E22EC0AF0F0
:1012C200000E206E000E216E1DEC0AF0000E206E44
:1012D200000E216E27EC0AF0000E1F6E120020C0D5
:1012E20026F021C027F008D026C0D9FF27C0DAFF98
:1012F20022C0DFFF264A272A2406D8A02506242852
:10130200F3E12528D8B41200EFD7700ED36E000E89
:101312009B6E000E0F013D6F140E876E0B0E216E39
:10132200260E206E5E0EE82EFED7202EFCD7212E32
:10133200FAD71200226E2CEC0AF07A0EE5EC09F0D4
:101342002250E5EC09F02128D8A403D031EC0AF0B0
:1013520003D02150E5EC09F031EC0AF012002050E4
:101362002202F3CF24F0F4CF25F020502302F350D1
:10137200252621502202F350252624C020F025C024
:1013820021F01200246E2CEC0AF07A0EE5EC09F042
:101392002250E5EC09F02450E5EC09F02150E5EC8F
:1013A20009F031EC0AF012000001020304050607FD
:1013B20008090A0B0C0D0E0F101112131415161733
:1013C20018191A1B1C1D1E1F206E20C075FF73A04A
:1013D200FED7A4AEFED7A49E71AC120031EC0AF087
:1013E200120010EC09F086EC09F011EC0AF051EC55
:1013F20009F0640EE6EC08F0120003000400050098
:0F1402000000B0B1B2B3B4B5B6B7060708090021
:101412002CEC0AF0000EE5EC09F031EC0AF01200B7
:10142200800EC76E200EC66E000EC86E1200F28EBF
:10143200F28CA38EA49E120020C01BF021C01CF0CF
:10144200120020C01DF021C01EF0120020C019F0B1
:1014520021C01AF01200718071B0FED7A49E120052
:0A146200718471B4FED7A49E12003D
:08FFF800BEF4F4FFFFFFBFF3AC
:00000001FF
