:04000000E8EF08F02D
:100F00000000803F72313FFE753E58633D951D3CA9
:100F1000C5AE3A79213994803793A73556153400F8
:100F2000000000803FF0FFBEE2A93E8376BEAE2BFC
:100F30003E3CC3BDD2133D78D3BB0D003000200032
:010F400000B0
:100F4200000E2F6E2DAE0AD02D1E2C1E2B1E2A6CCB
:100F5200000E2B222C222D22010E2F6E29AE0AD03A
:100F6200291E281E271E266C000E2722282229222F
:100F7200010E2F1A000E306E000E316E000E326E10
:100F8200000E336E2A502B102C102D10D8B42AD0FC
:100F9200010E2E6E06D0D8902A362B362C362D36E0
:100FA2002E2A2DAEF8D7D890303631363236333637
:100FB2002A50265C2B5027582C5028582D5029583F
:100FC200D8A009D02A50265E2B50275A2C50285AD6
:100FD2002D50295A3080D8902D322C322B322A3281
:100FE2002E2EE1D72F50D8B408D0331E321E311E18
:100FF200306C000E31223222332230C026F031C052
:1010020027F032C028F033C029F012005DEC0AF05C
:101012002BEC0AF094904EEC0AF0340E356EF20E80
:10102200E82EFED7352EFCD7000E236E030E226E5D
:10103200000E256E010E246E5EEC08F0000E236E8B
:10104200050E226E000E256E000E246E5EEC08F078
:10105200000E236E030E226E1DEC09F00B0E366E8F
:10106200260E356E5E0EE82EFED7352EFCD7362EB6
:10107200FAD7000E236E030E226E4EEC09F0000921
:10108200D8A4ECD7340E356EF20EE82EFED7352EEC
:10109200FCD7000E236E030E226E4EEC09F00009FF
:1010A200D8A4DCD7000E236E050E226E000E256E2C
:1010B200010E246EA3EC08F0D1D776EC0AF0400EB4
:1010C2001EEC0AF0000E1EEC0AF071EC0AF0410E62
:1010D2001EEC0AF0000E216E010E206E37EC0AF0B3
:1010E20075CF28F0296A7BEC0AF076EC0AF0400E04
:1010F2001EEC0AF0000E1EEC0AF024042510D8A4FF
:101102000FD022C026F0010E276E262A02D0D890D8
:101112002736262EFCD7275028101EEC0AF00FD0B7
:1011220022C026F0010E276E262A02D0D89027363A
:10113200262EFCD72750FF0A28141EEC0AF07BEC5F
:101142000AF0120076EC0AF0400E1EEC0AF00A0ECB
:101152001EEC0AF071EC0AF0410E1EEC0AF0000ED1
:10116200216E010E206E37EC0AF075CF28F0296A45
:101172007BEC0AF076EC0AF0400E1EEC0AF00A0E46
:101182001EEC0AF024042510D8A40FD022C026F0A9
:10119200010E276E262A02D0D8902736262EFCD79B
:1011A200275028101EEC0AF00FD022C026F0010EA4
:1011B200276E262A02D0D8902736262EFCD7275013
:1011C200FF0A28141EEC0AF07BEC0AF012001C0E37
:1011D200F66E140EF76E000EF86E00EE60F010EE72
:1011E20020F00900F5CFEEFFE550E150FAE1860E5E
:1011F200F66E140EF76E000EF86E00EE37F010EE7B
:1012020015F00900F5CFEEFFE550E150FAE101EEED
:1012120000F011EE00F0EE6AE550E150FCE1E25020
:10122200FAE100EE01F01F0EEE6AE806FDE1000EA3
:10123200F86E000107EF08F076EC0AF0400E1EECA3
:101242000AF0060E1EEC0AF071EC0AF0410E1EECDA
:101252000AF0000E216E010E206E37EC0AF075CFF7
:1012620026F0276A7BEC0AF076EC0AF0400E1EECC0
:101272000AF0060E1EEC0AF022C024F0010E256EC2
:10128200242A02D0D8902536242EFCD725502610A9
:101292001EEC0AF07BEC0AF0120076EC0AF0400E2B
:1012A2001EEC0AF0090E1EEC0AF071EC0AF0410E77
:1012B2001EEC0AF0000E216E010E206E37EC0AF0D1
:1012C20022C024F0010E256E242A02D0D8902536A1
:1012D200242EFCD725507514266E2650276E286AB8
:1012E2007BEC0AF027502810D8A402D0000E12007E
:1012F200010E1200346E95809582729E728A72502F
:10130200F00B0809726E719A7188000E266E240E17
:10131200276EF40E286E000E296E34C020F0216A6A
:101322000F0E236EA00E226EFBEC09F020C02AF0F5
:1013320021C02BF0000E2BBEFF0E2C6E2D6EA1ECE9
:1013420007F02604746E1200040E8D6E000E8C6E71
:10135200000E896E000E8A6E010E8B6EC30E966EA3
:10136200EF0E926EDF0E936E960E946E9568800E5F
:101372000F01486F100E496FF18E968E968C000EFB
:10138200426F000E416F000E406F1200180E7E6E0B
:10139200980EAC6E240EAD6ECF0EB06E000E7F6E48
:1013A200000E206E000E216E67EC0AF0000E206E19
:1013B200000E216E62EC0AF0000E206E000E216E0D
:1013C2006CEC0AF0000E1F6E1200700ED36E000E4F
:1013D2009B6E000E0F013D6F140E876E0B0E216E79
:1013E200260E206E5E0EE82EFED7202EFCD7212E72
:1013F200FAD7120020502202F3CF24F0F4CF25F0C6
:1014020020502302F350252621502202F350252694
:1014120024C020F025C021F01200000102030405BF
:10142200060708090A0B0C0D0E0F101112131415E2
:10143200161718191A1B1C1D1E1F206E20C075FFBF
:1014420073A0FED7A4AEFED7A49E71AC12007BECB3
:101452000AF01200A5EC09F0E6EC09F056EC0AF0ED
:10146200C7EC09F0640E7BEC09F01200718673A0E0
:10147200FED720B002D0719A01D0718A718871A80A
:101482001200FDD70300040005000000B0B1B2B3A2
:09149200B4B5B6B706070809005D
:10149C0076EC0AF0000E1EEC0AF07BEC0AF012005F
:1014AC00800EC76E200EC66E000EC86E1200F28E35
:1014BC00F28CA38EA49E120020C01BF021C01CF045
:1014CC00120020C01DF021C01EF0120020C019F027
:1014DC0021C01AF01200718271B2FED7A49E1200C4
:1014EC00718071B0FED7A49E1200718471B4FED7C6
:0414FC00A49E120098
:08FFF800BEF4F4FFFFFFBFF3AC
:00000001FF
