:04000000FDEF7AF0A6
:10F33A00718471B4FED7A49E1200718071B0FED799
:10F34A00A49E12001EC017F01FC018F012001EC0A3
:10F35A001BF01FC01CF012001EC019F01FC01AF0CB
:10F36A001200F28EF28CA38EA49E1200800EC76E3B
:10F37A00200EC66E000EC86E1200A2EC79F0000EC6
:10F38A00DEEC79F09DEC79F0120003000400050030
:10F39A000000060708090001010182EC7AF031EC4D
:10F3AA007AF0BBEC79F063EC7AF0900EA4EC7AF088
:10F3BA0012001E6E1EC075FF73A0FED7A4AEFED744
:10F3CA00A49E71AC12009DEC79F012001F6E160E0D
:10F3DA001F601200080E1E6401D012001FC043F005
:10F3EA001EC042F012001F6E000E206EA2EC79F0D1
:10F3FA007A0EDEEC79F02050DEEC79F01F50DEEC6C
:10F40A0079F09DEC79F012001E502002F3CF22F021
:10F41A00F4CF23F01E502102F35023261F5020025E
:10F42A00F350232622C01EF023C01FF01200206EC4
:10F43A00A2EC79F07A0EDEEC79F02050DEEC79F06D
:10F44A001F28D8A403D09DEC79F003D01F50DEEC1E
:10F45A0079F09DEC79F01200700ED36E000E9B6E5F
:10F46A00000E0F013D6F140E876E0B0E1F6E260ED7
:10F47A001E6E5E0EE82EFED71E2EFCD71F2EFAD762
:10F48A001200B6EC79F0D2EC79F0C2EC79F0340ED5
:10F49A00336EF20EE82EFED7332EFCD70EEC7CF03C
:10F4AA00CEEC7AF0010E1E6E010EEBEC79F0D50E61
:10F4BA00286EFF0E296E68EC7BF0FFD7180E7E6E61
:10F4CA00980EAC6E240EAD6ECF0EB06E000E7F6E2F
:10F4DA00000E1E6E000E1F6EACEC79F0000E1E6E52
:10F4EA00000E1F6EB1EC79F0000E1E6E000E1F6E3C
:10F4FA00A7EC79F0000E1D6E1200040E8D6E000E40
:10F50A008C6E000E896E000E8A6E010E8B6EC30E13
:10F51A00966EEF0E926EDF0E936E960E946E95684F
:10F52A00800E0F01486F100E496FF18E968E968CE1
:10F53A00000E426F000E416F000E406F1200326ED5
:10F54A0095809582729E728A7250F00B0809726ECB
:10F55A00719A7188000E246E240E256EF40E266EA2
:10F56A00000E276E32C01EF01F6A0F0E216EA00E0B
:10F57A00206E09EC7AF01EC028F01FC029F0000E98
:10F58A0029BEFF0E2A6E2B6EA8EC7BF02404746E43
:10F59A001200210E1F6E210E1CEC7AF0000EF8EC00
:10F5AA0079F07F0EF8EC79F0220E1F6E220E1CEC19
:10F5BA007AF0000EF8EC79F0070EF8EC79F0A2EC8C
:10F5CA0079F07A0EDEEC79F0400EDEEC79F0000E7E
:10F5DA00226E000E216E040E225CD8B006D0000EF8
:10F5EA00DEEC79F0214A222AF6D79DEC79F0120056
:10F5FA00C00EF66EF90EF76E000EF86E00EEC4F04D
:10F60A0014EE00F00900F5CFEEFFE550E150FAE103
:10F61A00E250F8E1940EF66EF30EF76E000EF86EF5
:10F62A0000EE34F010EE10F00900F5CFEEFFE550D1
:10F63A00E150FAE100EE60F0640EEE6AE806FDE1E0
:10F64A0000EE01F01D0EEE6AE806FDE1000EF86E0E
:10F65A00000146EF7AF0000E236E1FAE06D01E6C34
:10F66A001F1ED8B01F2A010E236E21AE04D0206CB3
:10F67A00211ED8B0212A20502110D8B418D0010E4A
:10F68A00226E04D0D89020362136222A21AEFAD70B
:10F69A0020501E5C21501F58D8A004D020501E5E56
:10F6AA0021501F5AD89021322032222EF1D72350CE
:10F6BA00D8B404D01E6C1F1ED8B01F2A1EC01EF05C
:10F6CA001FC01FF01200000E2C6E29D02C50010D05
:10F6DA0028C02AF029C02BF0F3502A26F4502B22F6
:10F6EA002AC0F6FF2BC0F7FF0800F550200AD8A45D
:10F6FA0003D04304D8B412D02C50010D28C02AF0EC
:10F70A0029C02BF0F3502A26F4502B222AC0F6FFE8
:10F71A002BC0F7FF0800F55076EC7CF02C2A2C5011
:10F72A00010D28C02AF029C02BF0F3502A26F450E4
:10F73A002B222AC0F6FF2BC0F7FF0800F55000095C
:10F74A00D8B41200C3D7000E2D6E2BAE0AD02B1ED2
:10F75A002A1E291E286C000E29222A222B22010E7B
:10F76A002D6E27AE0AD0271E261E251E246C000EDB
:10F77A00252226222722010E2D1A000E2E6E000E99
:10F78A002F6E000E306E000E316E285029102A108E
:10F79A002B10D8B42AD0010E2C6E06D0D890283659
:10F7AA0029362A362B362C2A2BAEF8D7D8902E3665
:10F7BA002F36303631362850245C295025582A50A5
:10F7CA0026582B502758D8A009D02850245E2950F3
:10F7DA00255A2A50265A2B50275A2E80D8902B3237
:10F7EA002A32293228322C2EE1D72D50D8B408D00B
:10F7FA00311E301E2F1E2E6C000E2F223022312277
:10F80A002EC024F02FC025F030C026F031C027F0DA
:10F81A0012008D84060E216E300EE82EFED7212EA0
:10F82A00FCD700D08D94340E216EF20EE82EFED74E
:10F83A00212EFCD78D84AE0E1F6EAE0E1CEC7AF014
:10F84A003F0E1F6EA80E1CEC7AF0000E1F6ED30E30
:10F85A001CEC7AF0000E1F6E200E1CEC7AF0400EA3
:10F86A001F6E400E1CEC7AF0A00E1F6EA00E1CEC50
:10F87A007AF0C80E1F6EC80E1CEC7AF0120E1F6EBC
:10F88A00DA0E1CEC7AF07F0E1F6E810E1CEC7AF0F9
:10F89A00D90E1F6ED90E1CEC7AF0400E1F6EDB0ECD
:10F8AA001CEC7AF0A40E1F6EA40E1CEC7AF0A60EC5
:10F8BA001F6EA60E1CEC7AF0800E1F6ED50E1CEC85
:10F8CA007AF0140E1F6E8D0E1CEC7AF02E0E1F6E3F
:10F8DA002E0E1CEC7AF0AF0E1F6EAF0E1CEC7AF0F7
:10F8EA001200266E1F0E266403D07E0E266402D0F6
:10F8FA003F0E266E210E1F6E210E1CEC7AF0430479
:10F90A00060DF350F8EC79F04304060DF350040F9A
:10F91A00F8EC79F0220E1F6E220E1CEC7AF04204EB
:10F92A00F8EC79F04204F8EC79F0A2EC79F07A0E6E
:10F93A00DEEC79F0400EDEEC79F0000E276E040E54
:10F94A00276401D01ED0E00E26241E6E1F6AFF0E09
:10F95A001F22000E216E050E206E09EC7AF0275048
:10F96A001E26000E1F22C10E1E24F66EFD0E1F203B
:10F97A00F76E0800F5CF25F02550DEEC79F0272A3E
:10F98A00DED79DEC79F043C01EF01F6A000E216E8F
:10F99A00150E206E30EC7BF01E28436E4150D8B411
:10F9AA0012004304D8A4120042C024F0070E241601
:10F9BA002428426E1200000000000000000000002F
:10F9CA00000000000000000000000000000000002D
:10F9DA00000000000000000000000000000000001D
:10F9EA00000000000000000000000000000000000D
:10F9FA00000000000080808000000000000000007D
:10FA0A00000000000000008080C0C000000000006C
:10FA1A0000000000000000000000000000000000DC
:10FA2A0000000000000000000000000000000000CC
:10FA3A0000000000000000000000000000000000BC
:10FA4A000000000000000000000080C0E0F0F8FCA8
:10FA5A00F8E00000000000000000000000000000C4
:10FA6A00000000808080808000808000000000808C
:10FA7A008080808000FFFFFF00000000808080807F
:10FA8A0000008080000080FFFF808000808000806E
:10FA9A008080800080800000000000808000008C50
:10FAAA008E84000080F8F8F8800000000000000052
:10FABA00000000000000F0F0F0F0F0F0F0F0F0F0DC
:10FACA00F0F0E0E0C08000E0FCFEFFFFFF7FFFFFF8
:10FADA00FFFFFF000000000000000000000000001F
:10FAEA0000FEFFC70101010183FFFF00007CFEC782
:10FAFA000101010183FFFFFF0038FEC783010101F5
:10FB0A0083C7FFFF000001FFFF010100FFFF07019C
:10FB1A00010100007FFF80000000FFFF7F0000FF5F
:10FB2A00FFFF000001FFFFFF0100000000000000CE
:10FB3A00000000000000030F3F7F7FFFFFFFFFFF71
:10FB4A00FFFFE7C7C78F8F9FBFFFFFC3C0F0FFFF4D
:10FB5A00FFFFFFFCFCFCFCFCFCFCFCF8F8F0F0E00E
:10FB6A00C0000103030303030103030000000001B3
:10FB7A00030303030101030100000001030303035C
:10FB8A000101030300000003030000000303000057
:10FB9A000000000000010303030303010000000149
:10FBAA000301000000030301000000000000000040
:10FBBA0000000000000000000080C0E0F0F9FFFF34
:10FBCA00FFFFFF3F1F0F87C7F7FFFF1F1F3DFCF80F
:10FBDA00F8F8F87C7DFFFFFFFFFFFFFFFF7F3F0F75
:10FBEA0007003030000000000000000000000000A4
:10FBFA0000000000000000000000FEFEFC00000003
:10FC0A0000000000000000000000000000000000EA
:10FC1A00000000E0C000000000000000000000003A
:10FC2A00303000000000000000000000000000006A
:10FC3A0000000000000000C0FEFFFFFFFFFFFFFF03
:10FC4A00FFFF7F7F3F1F0F071F7FFFFFF8F8FFFFB0
:10FC5A00FFFFFFFEF8E000000001000000000000C6
:10FC6A000000FEFE000000FCFEFC0C06060EFCF87E
:10FC7A000000F0F81C0E0606060CFFFFFF0000FE4F
:10FC8A00FE00000000FCFEFC00183C7E66E6CE8406
:10FC9A00000006FFFF0606FCFEFC0C060606000036
:10FCAA00FEFE0000C0F8FC4E4646464E7C784018E0
:10FCBA003C76E6CECC800000000000000000000088
:10FCCA000000000000000000000001070F1F1F3F96
:10FCDA003F3F3F1F0F03000000000000000000002C
:10FCEA0000000F0F0000000F0F0F000000000F0FA1
:10FCFA00000003070E0C18180C060F0F0F00000166
:10FD0A000F0E0C180C0F070100040E0C180C0F072D
:10FD1A000000000F0F00000F0F0F0000000000008E
:10FD2A000F0F00000007070C0C181C0C0606000435
:10FD3A000E0C180C0F070000000000000000000065
:10FD4A0000000000000000000000000000000000A9
:10FD5A000000000000000000000000000000000099
:10FD6A000000000000000000000000000000000089
:10FD7A000000000000000000000000000000000079
:10FD8A000000000000000000000000000000000069
:10FD9A000000000000000000000000000000000059
:10FDAA000000000000000000000000000000000049
:10FDBA0000000000000000000000000000005F00DA
:10FDCA00000007000700147F147F14242A7F2A12D8
:10FDDA0023130864623649562050000807030000BE
:10FDEA001C2241000041221C002A1C7F1C2A0808F0
:10FDFA003E08080080703000080808080800006003
:10FE0A00600020100804023E5149453E00427F40EE
:10FE1A000072494949462141494D331814127F104D
:10FE2A0027454545393C4A49493141211109073697
:10FE3A0049494936464949291E0000140000004034
:10FE4A00340000000814224114141414140041222E
:10FE5A00140802015909063E415D594E7C121112DD
:10FE6A007C7F494949363E414141227F4141413ED9
:10FE7A007F494949417F090909013E414151737F3F
:10FE8A000808087F00417F41002040413F017F0868
:10FE9A001422417F404040407F021C027F7F0408B9
:10FEAA00107F3E4141413E7F090909063E415121E9
:10FEBA005E7F09192946264949493203017F010310
:10FECA003F4040403F1F2040201F3F4038403F6393
:10FEDA001408146303047804036159494D43007FED
:10FEEA004141410204081020004141417F040201BE
:10FEFA000204404040404000030708002054547860
:10FF0A00407F284444383844444428384444287FAD
:10FF1A00385454541800087E090218A4A49C787F07
:10FF2A000804047800447D40002040403D007F10D2
:10FF3A0028440000417F40007C047804787C08044F
:10FF4A0004783844444438FC182424181824241803
:10FF5A00FC7C08040408485454542404043F4424F0
:10FF6A003C4040207C1C2040201C3C4030403C440B
:10FF7A00281028444C9090907C4464544C440008C7
:10FF8A0036410000007700000041360800020102F5
:10FF9A00040200803F72313FFE753E58633D951D55
:10FFAA003CC5AE3A79213994803793A73556153432
:10FFBA0000000000803FF0FFBEE2A93E8376BEAE9D
:10FFCA002B3E3CC3BDD2133D78D3BB496620796F23
:10FFDA00752072656164696E672074686973204967
:0EFFEA0074277320776F726B6564002000002F
:08FFF800BEF4F4FFFFFFBFF3AC
:00000001FF
